{
  "contractName": "Co",
  "abi": [
    {
      "constant": true,
      "inputs": [],
      "name": "getAppManagerAddress",
      "outputs": [
        {
          "name": "",
          "type": "address"
        }
      ],
      "payable": false,
      "stateMutability": "view",
      "type": "function"
    },
    {
      "constant": true,
      "inputs": [],
      "name": "slope",
      "outputs": [
        {
          "name": "",
          "type": "uint256"
        }
      ],
      "payable": false,
      "stateMutability": "view",
      "type": "function"
    },
    {
      "constant": true,
      "inputs": [],
      "name": "Co_ChangeAlpha",
      "outputs": [
        {
          "name": "",
          "type": "bytes32"
        }
      ],
      "payable": false,
      "stateMutability": "view",
      "type": "function"
    },
    {
      "constant": true,
      "inputs": [],
      "name": "EMPTY_PARAM_HASH",
      "outputs": [
        {
          "name": "",
          "type": "bytes32"
        }
      ],
      "payable": false,
      "stateMutability": "view",
      "type": "function"
    },
    {
      "constant": true,
      "inputs": [],
      "name": "alpha",
      "outputs": [
        {
          "name": "",
          "type": "uint256"
        }
      ],
      "payable": false,
      "stateMutability": "view",
      "type": "function"
    },
    {
      "constant": true,
      "inputs": [],
      "name": "Co_ChangeSlop",
      "outputs": [
        {
          "name": "",
          "type": "bytes32"
        }
      ],
      "payable": false,
      "stateMutability": "view",
      "type": "function"
    },
    {
      "constant": true,
      "inputs": [],
      "name": "appManager",
      "outputs": [
        {
          "name": "",
          "type": "address"
        }
      ],
      "payable": false,
      "stateMutability": "view",
      "type": "function"
    },
    {
      "inputs": [
        {
          "name": "_appManager",
          "type": "address"
        },
        {
          "name": "_slope",
          "type": "uint256"
        },
        {
          "name": "_alpha",
          "type": "uint256"
        }
      ],
      "payable": false,
      "stateMutability": "nonpayable",
      "type": "constructor"
    },
    {
      "anonymous": false,
      "inputs": [
        {
          "indexed": false,
          "name": "_slope",
          "type": "uint256"
        }
      ],
      "name": "OnChangeSlope",
      "type": "event"
    },
    {
      "anonymous": false,
      "inputs": [
        {
          "indexed": false,
          "name": "_alpha",
          "type": "uint256"
        }
      ],
      "name": "OnChangeAlpha",
      "type": "event"
    },
    {
      "constant": false,
      "inputs": [
        {
          "name": "_slope",
          "type": "uint256"
        }
      ],
      "name": "changeSlop",
      "outputs": [
        {
          "name": "",
          "type": "bool"
        }
      ],
      "payable": false,
      "stateMutability": "nonpayable",
      "type": "function"
    },
    {
      "constant": false,
      "inputs": [
        {
          "name": "_alpha",
          "type": "uint256"
        }
      ],
      "name": "changeAlpha",
      "outputs": [
        {
          "name": "",
          "type": "bool"
        }
      ],
      "payable": false,
      "stateMutability": "nonpayable",
      "type": "function"
    },
    {
      "constant": true,
      "inputs": [
        {
          "name": "_totalValue",
          "type": "uint256"
        }
      ],
      "name": "getVauleToReserve",
      "outputs": [
        {
          "name": "",
          "type": "uint256"
        }
      ],
      "payable": false,
      "stateMutability": "view",
      "type": "function"
    },
    {
      "constant": true,
      "inputs": [
        {
          "name": "_crowdFundMoney",
          "type": "uint256"
        }
      ],
      "name": "getCrowdFundPrice",
      "outputs": [
        {
          "name": "",
          "type": "uint256"
        }
      ],
      "payable": false,
      "stateMutability": "view",
      "type": "function"
    },
    {
      "constant": true,
      "inputs": [
        {
          "name": "_value",
          "type": "uint256"
        },
        {
          "name": "_totalSupply",
          "type": "uint256"
        }
      ],
      "name": "getBuyAmount",
      "outputs": [
        {
          "name": "",
          "type": "uint256"
        }
      ],
      "payable": false,
      "stateMutability": "view",
      "type": "function"
    },
    {
      "constant": true,
      "inputs": [
        {
          "name": "_sellAmount",
          "type": "uint256"
        },
        {
          "name": "_sellReserve",
          "type": "uint256"
        },
        {
          "name": "_totalSupply",
          "type": "uint256"
        }
      ],
      "name": "getSellValue",
      "outputs": [
        {
          "name": "",
          "type": "uint256"
        }
      ],
      "payable": false,
      "stateMutability": "view",
      "type": "function"
    }
  ],
  "bytecode": "0x608060405234801561001057600080fd5b50604051606080610f6f8339810180604052606081101561003057600080fd5b8101908080519060200190929190805190602001909291908051906020019092919050505082806000806101000a81548173ffffffffffffffffffffffffffffffffffffffff021916908373ffffffffffffffffffffffffffffffffffffffff160217905550508160018190555080600281905550505050610eb8806100b76000396000f3fe608060405234801561001057600080fd5b50600436106100cf5760003560e01c80639bffc9441161008c578063db1d0fd511610066578063db1d0fd5146102d4578063dded3dea146102f2578063ebe86c1314610310578063f81cb5ae1461035a576100cf565b80639bffc94414610252578063b6a5814914610270578063c513f66e146102b6576100cf565b806332386d9e146100d4578063344faef6146101165780634c3300771461015c57806356d68a2d146101a657806383caf275146101f25780638bcc953714610210575b600080fd5b610100600480360360208110156100ea57600080fd5b81019080803590602001909291905050506103b0565b6040518082815260200191505060405180910390f35b6101426004803603602081101561012c57600080fd5b810190808035906020019092919050505061043d565b604051808215151515815260200191505060405180910390f35b61016461065c565b604051808273ffffffffffffffffffffffffffffffffffffffff1673ffffffffffffffffffffffffffffffffffffffff16815260200191505060405180910390f35b6101dc600480360360408110156101bc57600080fd5b810190808035906020019092919080359060200190929190505050610685565b6040518082815260200191505060405180910390f35b6101fa61070e565b6040518082815260200191505060405180910390f35b61023c6004803603602081101561022657600080fd5b8101908080359060200190929190505050610714565b6040518082815260200191505060405180910390f35b61025a610746565b6040518082815260200191505060405180910390f35b61029c6004803603602081101561028657600080fd5b810190808035906020019092919050505061077f565b604051808215151515815260200191505060405180910390f35b6102be610990565b6040518082815260200191505060405180910390f35b6102dc6109b7565b6040518082815260200191505060405180910390f35b6102fa6109bd565b6040518082815260200191505060405180910390f35b6103186109f6565b604051808273ffffffffffffffffffffffffffffffffffffffff1673ffffffffffffffffffffffffffffffffffffffff16815260200191505060405180910390f35b61039a6004803603606081101561037057600080fd5b81019080803590602001909291908035906020019092919080359060200190929190505050610a1b565b6040518082815260200191505060405180910390f35b6000806103ef6001546103e16103e86103d3600288610a9990919063ffffffff16565b610a9990919063ffffffff16565b610b1f90919063ffffffff16565b90506104356103e8610427600154610419600261040b87610b69565b610b1f90919063ffffffff16565b610a9990919063ffffffff16565b610b1f90919063ffffffff16565b915050919050565b600060405180807f436f5f4368616e6765416c706861000000000000000000000000000000000000815250600e01905060405180910390206000809054906101000a900473ffffffffffffffffffffffffffffffffffffffff1673ffffffffffffffffffffffffffffffffffffffff16634c5f07493330847f290decd9548b62a8d60345a988386fc84ba6bc95484008f6362f93160ef3e56360001b6040518563ffffffff1660e01b8152600401808573ffffffffffffffffffffffffffffffffffffffff1673ffffffffffffffffffffffffffffffffffffffff1681526020018473ffffffffffffffffffffffffffffffffffffffff1673ffffffffffffffffffffffffffffffffffffffff16815260200183815260200182815260200194505050505060206040518083038186803b15801561057a57600080fd5b505afa15801561058e573d6000803e3d6000fd5b505050506040513d60208110156105a457600080fd5b810190808051906020019092919050505061060a576040517f08c379a0000000000000000000000000000000000000000000000000000000008152600401808060200182810382526024815260200180610e696024913960400191505060405180910390fd5b612710831061061857600080fd5b826002819055507fb29f7427378d95c038b9500642788c5178270200c421d56a2ea7bc661aa766dc836040518082815260200191505060405180910390a150919050565b60008060009054906101000a900473ffffffffffffffffffffffffffffffffffffffff16905090565b6000806106e861069e8485610a9990919063ffffffff16565b6106da6001546106cc6103e86106be60028b610a9990919063ffffffff16565b610a9990919063ffffffff16565b610b1f90919063ffffffff16565b610bef90919063ffffffff16565b9050610705836106f783610b69565b610c7790919063ffffffff16565b91505092915050565b60015481565b600061073f6103e861073184600254610a9990919063ffffffff16565b610b1f90919063ffffffff16565b9050919050565b60405180807f436f5f4368616e6765416c706861000000000000000000000000000000000000815250600e019050604051809103902081565b600060405180807f436f5f4368616e6765536c6f7000000000000000000000000000000000000000815250600d01905060405180910390206000809054906101000a900473ffffffffffffffffffffffffffffffffffffffff1673ffffffffffffffffffffffffffffffffffffffff16634c5f07493330847f290decd9548b62a8d60345a988386fc84ba6bc95484008f6362f93160ef3e56360001b6040518563ffffffff1660e01b8152600401808573ffffffffffffffffffffffffffffffffffffffff1673ffffffffffffffffffffffffffffffffffffffff1681526020018473ffffffffffffffffffffffffffffffffffffffff1673ffffffffffffffffffffffffffffffffffffffff16815260200183815260200182815260200194505050505060206040518083038186803b1580156108bc57600080fd5b505afa1580156108d0573d6000803e3d6000fd5b505050506040513d60208110156108e657600080fd5b810190808051906020019092919050505061094c576040517f08c379a0000000000000000000000000000000000000000000000000000000008152600401808060200182810382526024815260200180610e696024913960400191505060405180910390fd5b826001819055507f78b8461277b70bb5459f5ec7f52367c197c98401da02d19fad54b60715a98e84836040518082815260200191505060405180910390a150919050565b7f290decd9548b62a8d60345a988386fc84ba6bc95484008f6362f93160ef3e56360001b81565b60025481565b60405180807f436f5f4368616e6765536c6f7000000000000000000000000000000000000000815250600d019050604051809103902081565b6000809054906101000a900473ffffffffffffffffffffffffffffffffffffffff1681565b600080610a8c83610a7e85610a70610a4f8a610a4160028b610a9990919063ffffffff16565b610c7790919063ffffffff16565b610a628b8b610a9990919063ffffffff16565b610a9990919063ffffffff16565b610b1f90919063ffffffff16565b610b1f90919063ffffffff16565b9050809150509392505050565b600080831415610aac5760009050610b19565b6000828402905082848281610abd57fe5b0414610b14576040517f08c379a0000000000000000000000000000000000000000000000000000000008152600401808060200182810382526021815260200180610e486021913960400191505060405180910390fd5b809150505b92915050565b6000610b6183836040518060400160405280601a81526020017f536166654d6174683a206469766973696f6e206279207a65726f000000000000815250610cc1565b905092915050565b600080610b936002610b85600186610bef90919063ffffffff16565b610b1f90919063ffffffff16565b905060008390505b80821015610be557819050610bde6002610bd084610bc28689610b1f90919063ffffffff16565b610bef90919063ffffffff16565b610b1f90919063ffffffff16565b9150610b9b565b8092505050919050565b600080828401905083811015610c6d576040517f08c379a000000000000000000000000000000000000000000000000000000000815260040180806020018281038252601b8152602001807f536166654d6174683a206164646974696f6e206f766572666c6f77000000000081525060200191505060405180910390fd5b8091505092915050565b6000610cb983836040518060400160405280601e81526020017f536166654d6174683a207375627472616374696f6e206f766572666c6f770000815250610d87565b905092915050565b60008083118290610d6d576040517f08c379a00000000000000000000000000000000000000000000000000000000081526004018080602001828103825283818151815260200191508051906020019080838360005b83811015610d32578082015181840152602081019050610d17565b50505050905090810190601f168015610d5f5780820380516001836020036101000a031916815260200191505b509250505060405180910390fd5b506000838581610d7957fe5b049050809150509392505050565b6000838311158290610e34576040517f08c379a00000000000000000000000000000000000000000000000000000000081526004018080602001828103825283818151815260200191508051906020019080838360005b83811015610df9578082015181840152602081019050610dde565b50505050905090810190601f168015610e265780820380516001836020036101000a031916815260200191505b509250505060405180910390fd5b506000838503905080915050939250505056fe536166654d6174683a206d756c7469706c69636174696f6e206f766572666c6f774e6f207065726d697373696f6e20746f20696e766f6b652074686520436f6e7472616374a165627a7a72305820be04503bf84dd82d4b488b053c8f32eaeeab21b9824d83f256ff967c098969190029",
  "source": "pragma solidity >=0.4.22 <0.6.0;\r\n\r\nimport \"../apps/FutureDaoApp.sol\";\r\nimport \"../Interface/ICurve.sol\";\r\n\r\ncontract Co is ICurve ,FutureDaoApp{\r\n\r\n    uint256 public slope; //1000 * 10**9\r\n\r\n    uint256 public alpha; //300\r\n\r\n    bytes32 public constant Co_ChangeSlop = keccak256(\"Co_ChangeSlop\");\r\n    bytes32 public constant Co_ChangeAlpha = keccak256(\"Co_ChangeAlpha\");\r\n\r\n    event OnChangeSlope(uint256 _slope);\r\n    event OnChangeAlpha(uint256 _alpha);\r\n\r\n    constructor(AppManager _appManager,uint256 _slope,uint256 _alpha) FutureDaoApp(_appManager) public {\r\n        slope = _slope;\r\n        alpha = _alpha;\r\n    }\r\n\r\n    function changeSlop(uint256 _slope) public auth(Co_ChangeSlop) returns(bool){\r\n        slope = _slope;\r\n        emit OnChangeSlope(_slope);\r\n    }\r\n\r\n    function changeAlpha(uint256 _alpha) public auth(Co_ChangeAlpha) returns(bool){\r\n        require(_alpha<10000);\r\n        alpha = _alpha;\r\n        emit OnChangeAlpha(_alpha);\r\n    }\r\n\r\n    function getVauleToReserve(uint256 _totalValue) external view returns(uint256){\r\n        return alpha.mul(_totalValue).div(1000);\r\n    }\r\n\r\n    function getCrowdFundPrice(uint256 _crowdFundMoney) external view returns(uint256){\r\n        uint256 _n = (_crowdFundMoney.mul(2).mul(1000)).div(slope);\r\n        return _sqrt(_n).div(2).mul(slope).div(1000);\r\n    }\r\n\r\n    function getBuyAmount(uint256 _value,uint256 _totalSupply) external view returns(uint256){\r\n        uint256 _n = (_value.mul(2).mul(1000).div(slope)).add(_totalSupply.mul(_totalSupply));\r\n        return _sqrt(_n).sub(_totalSupply);\r\n    }\r\n\r\n    function getSellValue(uint256 _sellAmount,uint256 _sellReserve,uint256 _totalSupply) external view returns(uint256){\r\n        uint256 _n = (_sellReserve.mul(_sellAmount)).mul((_totalSupply.mul(2).sub(_sellAmount))).div(_totalSupply).div(_totalSupply);\r\n        return _n;\r\n    }\r\n\r\n    ///////////////\r\n    // 内部函数\r\n    //////////////\r\n    function _sqrt(uint256 x) internal pure returns(uint256){\r\n        uint256 z = x.add(1).div(2);\r\n        uint256 y = x;\r\n        while(z < y){\r\n            y = z;\r\n            z = ((x.div(z)).add(z)).div(2);\r\n        }\r\n        return y;\r\n    }\r\n}",
  "sourcePath": "D:/_______work/FD_Contract_ETH/fd/contracts/Curve/Co.sol",
  "compiler": {
    "name": "solc",
    "version": "0.5.8+commit.23d335f2.Emscripten.clang"
  },
  "schemaVersion": "3.0.11",
  "updatedAt": "2019-11-05T02:27:33.587Z",
  "devdoc": {
    "methods": {}
  },
  "userdoc": {
    "methods": {}
  }
}