{
  "contractName": "GovernShareManager",
  "abi": [
    {
      "constant": true,
      "inputs": [],
      "name": "getAppManagerAddress",
      "outputs": [
        {
          "name": "",
          "type": "address"
        }
      ],
      "payable": false,
      "stateMutability": "view",
      "type": "function"
    },
    {
      "constant": true,
      "inputs": [],
      "name": "GovernShareManager_SendEth",
      "outputs": [
        {
          "name": "",
          "type": "bytes32"
        }
      ],
      "payable": false,
      "stateMutability": "view",
      "type": "function"
    },
    {
      "constant": true,
      "inputs": [],
      "name": "GovernShareManager_MintBinding",
      "outputs": [
        {
          "name": "",
          "type": "bytes32"
        }
      ],
      "payable": false,
      "stateMutability": "view",
      "type": "function"
    },
    {
      "constant": true,
      "inputs": [],
      "name": "GovernShareManager_Clearing",
      "outputs": [
        {
          "name": "",
          "type": "bytes32"
        }
      ],
      "payable": false,
      "stateMutability": "view",
      "type": "function"
    },
    {
      "constant": true,
      "inputs": [],
      "name": "GovernShareManager_Free",
      "outputs": [
        {
          "name": "",
          "type": "bytes32"
        }
      ],
      "payable": false,
      "stateMutability": "view",
      "type": "function"
    },
    {
      "constant": true,
      "inputs": [],
      "name": "GovernShareManager_ClearingFdt",
      "outputs": [
        {
          "name": "",
          "type": "bytes32"
        }
      ],
      "payable": false,
      "stateMutability": "view",
      "type": "function"
    },
    {
      "constant": true,
      "inputs": [],
      "name": "EMPTY_PARAM_HASH",
      "outputs": [
        {
          "name": "",
          "type": "bytes32"
        }
      ],
      "payable": false,
      "stateMutability": "view",
      "type": "function"
    },
    {
      "constant": true,
      "inputs": [],
      "name": "GovernShareManager_Lock",
      "outputs": [
        {
          "name": "",
          "type": "bytes32"
        }
      ],
      "payable": false,
      "stateMutability": "view",
      "type": "function"
    },
    {
      "constant": true,
      "inputs": [],
      "name": "appManager",
      "outputs": [
        {
          "name": "",
          "type": "address"
        }
      ],
      "payable": false,
      "stateMutability": "view",
      "type": "function"
    },
    {
      "constant": true,
      "inputs": [],
      "name": "token",
      "outputs": [
        {
          "name": "",
          "type": "address"
        }
      ],
      "payable": false,
      "stateMutability": "view",
      "type": "function"
    },
    {
      "inputs": [
        {
          "name": "_appManager",
          "type": "address"
        },
        {
          "name": "_token",
          "type": "address"
        }
      ],
      "payable": false,
      "stateMutability": "nonpayable",
      "type": "constructor"
    },
    {
      "payable": true,
      "stateMutability": "payable",
      "type": "fallback"
    },
    {
      "anonymous": false,
      "inputs": [
        {
          "indexed": false,
          "name": "who",
          "type": "address"
        },
        {
          "indexed": false,
          "name": "amount",
          "type": "uint256"
        }
      ],
      "name": "OnGetFdtOut",
      "type": "event"
    },
    {
      "anonymous": false,
      "inputs": [
        {
          "indexed": false,
          "name": "who",
          "type": "address"
        },
        {
          "indexed": false,
          "name": "amount",
          "type": "uint256"
        }
      ],
      "name": "OnSetFdtIn",
      "type": "event"
    },
    {
      "anonymous": false,
      "inputs": [
        {
          "indexed": false,
          "name": "contractAddress",
          "type": "address"
        },
        {
          "indexed": false,
          "name": "lockAddr",
          "type": "address"
        },
        {
          "indexed": false,
          "name": "index",
          "type": "uint256"
        },
        {
          "indexed": false,
          "name": "expireDate",
          "type": "uint256"
        },
        {
          "indexed": false,
          "name": "lockAmount",
          "type": "uint256"
        }
      ],
      "name": "OnLock",
      "type": "event"
    },
    {
      "anonymous": false,
      "inputs": [
        {
          "indexed": false,
          "name": "contractAddress",
          "type": "address"
        },
        {
          "indexed": false,
          "name": "lockAddr",
          "type": "address"
        },
        {
          "indexed": false,
          "name": "index",
          "type": "uint256"
        },
        {
          "indexed": false,
          "name": "expireDate",
          "type": "uint256"
        }
      ],
      "name": "OnFree",
      "type": "event"
    },
    {
      "anonymous": false,
      "inputs": [
        {
          "indexed": false,
          "name": "addr",
          "type": "address"
        },
        {
          "indexed": false,
          "name": "amount",
          "type": "uint256"
        },
        {
          "indexed": false,
          "name": "timestamp",
          "type": "uint256"
        }
      ],
      "name": "OnMintBinding",
      "type": "event"
    },
    {
      "constant": true,
      "inputs": [
        {
          "name": "_addr",
          "type": "address"
        }
      ],
      "name": "getFdtInGovern",
      "outputs": [
        {
          "name": "",
          "type": "uint256"
        }
      ],
      "payable": false,
      "stateMutability": "view",
      "type": "function"
    },
    {
      "constant": true,
      "inputs": [],
      "name": "getFdtTotalSupply",
      "outputs": [
        {
          "name": "",
          "type": "uint256"
        }
      ],
      "payable": false,
      "stateMutability": "view",
      "type": "function"
    },
    {
      "constant": false,
      "inputs": [
        {
          "name": "_addr",
          "type": "address"
        },
        {
          "name": "_amount",
          "type": "uint256"
        },
        {
          "name": "_timestamp",
          "type": "uint256"
        }
      ],
      "name": "mintBinding",
      "outputs": [
        {
          "name": "",
          "type": "bool"
        }
      ],
      "payable": false,
      "stateMutability": "nonpayable",
      "type": "function"
    },
    {
      "constant": false,
      "inputs": [
        {
          "name": "_amount",
          "type": "uint256"
        }
      ],
      "name": "setFdtIn",
      "outputs": [
        {
          "name": "",
          "type": "bool"
        }
      ],
      "payable": false,
      "stateMutability": "nonpayable",
      "type": "function"
    },
    {
      "constant": false,
      "inputs": [
        {
          "name": "amount",
          "type": "uint256"
        }
      ],
      "name": "getFdtOut",
      "outputs": [
        {
          "name": "",
          "type": "bool"
        }
      ],
      "payable": false,
      "stateMutability": "nonpayable",
      "type": "function"
    },
    {
      "constant": false,
      "inputs": [
        {
          "name": "_lockAddr",
          "type": "address"
        },
        {
          "name": "_index",
          "type": "uint256"
        },
        {
          "name": "_expireDate",
          "type": "uint256"
        },
        {
          "name": "_lockAmount",
          "type": "uint256"
        }
      ],
      "name": "lock",
      "outputs": [
        {
          "name": "",
          "type": "bool"
        }
      ],
      "payable": false,
      "stateMutability": "nonpayable",
      "type": "function"
    },
    {
      "constant": false,
      "inputs": [
        {
          "name": "_lockAddr",
          "type": "address"
        },
        {
          "name": "_index",
          "type": "uint256"
        },
        {
          "name": "_expireDate",
          "type": "uint256"
        }
      ],
      "name": "free",
      "outputs": [
        {
          "name": "",
          "type": "bool"
        }
      ],
      "payable": false,
      "stateMutability": "nonpayable",
      "type": "function"
    },
    {
      "constant": false,
      "inputs": [
        {
          "name": "_addr_clearingFundPool",
          "type": "address"
        },
        {
          "name": "_addr",
          "type": "address"
        },
        {
          "name": "amount",
          "type": "uint256"
        }
      ],
      "name": "clearingFdt",
      "outputs": [
        {
          "name": "",
          "type": "bool"
        }
      ],
      "payable": false,
      "stateMutability": "nonpayable",
      "type": "function"
    },
    {
      "constant": false,
      "inputs": [
        {
          "name": "_addr",
          "type": "address"
        },
        {
          "name": "_value",
          "type": "uint256"
        }
      ],
      "name": "sendEth",
      "outputs": [
        {
          "name": "",
          "type": "bool"
        }
      ],
      "payable": true,
      "stateMutability": "payable",
      "type": "function"
    },
    {
      "constant": false,
      "inputs": [
        {
          "name": "_addr_clearingFundPool",
          "type": "address"
        },
        {
          "name": "_ratio",
          "type": "uint256"
        }
      ],
      "name": "clearing",
      "outputs": [
        {
          "name": "",
          "type": "bool"
        }
      ],
      "payable": true,
      "stateMutability": "payable",
      "type": "function"
    }
  ],
  "bytecode": "0x60806040526005600060146101000a81548160ff021916908360ff16021790555034801561002c57600080fd5b5060405160408061316f8339810180604052604081101561004c57600080fd5b81019080805190602001909291908051906020019092919050505081806000806101000a81548173ffffffffffffffffffffffffffffffffffffffff021916908373ffffffffffffffffffffffffffffffffffffffff1602179055505080600460006101000a81548173ffffffffffffffffffffffffffffffffffffffff021916908373ffffffffffffffffffffffffffffffffffffffff1602179055505050613074806100fb6000396000f3fe60806040526004361061011f5760003560e01c8063af6d13b1116100a0578063c97be18011610064578063c97be1801461058c578063e5ba7b0f14610613578063ebe86c131461063e578063efc66ad114610695578063fc0c546a146107125761011f565b8063af6d13b11461044d578063b197aadf14610478578063b77df54b1461050b578063bdb1a59514610536578063c513f66e146105615761011f565b8063578f6a62116100e7578063578f6a62146102c257806366027b9d146103275780636c351c8e146103525780637b69ae90146103cf578063999bb8db146103fa5761011f565b806308731cfe14610121578063469616b61461014c57806349dcbc5e1461019f5780634c330077146102055780634f25e2a31461025c575b005b34801561012d57600080fd5b50610136610769565b6040518082815260200191505060405180910390f35b34801561015857600080fd5b506101856004803603602081101561016f57600080fd5b8101908080359060200190929190505050610818565b604051808215151515815260200191505060405180910390f35b6101eb600480360360408110156101b557600080fd5b81019080803573ffffffffffffffffffffffffffffffffffffffff16906020019092919080359060200190929190505050610bc5565b604051808215151515815260200191505060405180910390f35b34801561021157600080fd5b5061021a610ed9565b604051808273ffffffffffffffffffffffffffffffffffffffff1673ffffffffffffffffffffffffffffffffffffffff16815260200191505060405180910390f35b6102a86004803603604081101561027257600080fd5b81019080803573ffffffffffffffffffffffffffffffffffffffff16906020019092919080359060200190929190505050610f02565b604051808215151515815260200191505060405180910390f35b3480156102ce57600080fd5b50610311600480360360208110156102e557600080fd5b81019080803573ffffffffffffffffffffffffffffffffffffffff16906020019092919050505061121a565b6040518082815260200191505060405180910390f35b34801561033357600080fd5b5061033c611263565b6040518082815260200191505060405180910390f35b34801561035e57600080fd5b506103b56004803603606081101561037557600080fd5b81019080803573ffffffffffffffffffffffffffffffffffffffff169060200190929190803590602001909291908035906020019092919050505061129c565b604051808215151515815260200191505060405180910390f35b3480156103db57600080fd5b506103e461147e565b6040518082815260200191505060405180910390f35b34801561040657600080fd5b506104336004803603602081101561041d57600080fd5b81019080803590602001909291905050506114b7565b604051808215151515815260200191505060405180910390f35b34801561045957600080fd5b50610462611732565b6040518082815260200191505060405180910390f35b34801561048457600080fd5b506104f16004803603606081101561049b57600080fd5b81019080803573ffffffffffffffffffffffffffffffffffffffff169060200190929190803573ffffffffffffffffffffffffffffffffffffffff1690602001909291908035906020019092919050505061176b565b604051808215151515815260200191505060405180910390f35b34801561051757600080fd5b50610520611cc2565b6040518082815260200191505060405180910390f35b34801561054257600080fd5b5061054b611cfb565b6040518082815260200191505060405180910390f35b34801561056d57600080fd5b50610576611d34565b6040518082815260200191505060405180910390f35b34801561059857600080fd5b506105f9600480360360808110156105af57600080fd5b81019080803573ffffffffffffffffffffffffffffffffffffffff169060200190929190803590602001909291908035906020019092919080359060200190929190505050611d5b565b604051808215151515815260200191505060405180910390f35b34801561061f57600080fd5b50610628611f43565b6040518082815260200191505060405180910390f35b34801561064a57600080fd5b50610653611f7c565b604051808273ffffffffffffffffffffffffffffffffffffffff1673ffffffffffffffffffffffffffffffffffffffff16815260200191505060405180910390f35b3480156106a157600080fd5b506106f8600480360360608110156106b857600080fd5b81019080803573ffffffffffffffffffffffffffffffffffffffff1690602001909291908035906020019092919080359060200190929190505050611fa1565b604051808215151515815260200191505060405180910390f35b34801561071e57600080fd5b50610727612324565b604051808273ffffffffffffffffffffffffffffffffffffffff1673ffffffffffffffffffffffffffffffffffffffff16815260200191505060405180910390f35b600080600460009054906101000a900473ffffffffffffffffffffffffffffffffffffffff1673ffffffffffffffffffffffffffffffffffffffff166318160ddd6040518163ffffffff1660e01b815260040160206040518083038186803b1580156107d457600080fd5b505afa1580156107e8573d6000803e3d6000fd5b505050506040513d60208110156107fe57600080fd5b810190808051906020019092919050505090508091505090565b600080821161088f576040517f08c379a00000000000000000000000000000000000000000000000000000000081526004018080602001828103825260178152602001807f616d6f756e74206e656564206d6f7265207468616e203000000000000000000081525060200191505060405180910390fd5b600061089a3361234a565b9050826108ef82600260003373ffffffffffffffffffffffffffffffffffffffff1673ffffffffffffffffffffffffffffffffffffffff168152602001908152602001600020546124a790919063ffffffff16565b1015610963576040517f08c379a00000000000000000000000000000000000000000000000000000000081526004018080602001828103825260198152602001807f5468652062616c616e6365206973206e6f7420656e6f7567680000000000000081525060200191505060405180910390fd5b6000600460009054906101000a900473ffffffffffffffffffffffffffffffffffffffff1673ffffffffffffffffffffffffffffffffffffffff1663a9059cbb33866040518363ffffffff1660e01b8152600401808373ffffffffffffffffffffffffffffffffffffffff1673ffffffffffffffffffffffffffffffffffffffff16815260200182815260200192505050602060405180830381600087803b158015610a0e57600080fd5b505af1158015610a22573d6000803e3d6000fd5b505050506040513d6020811015610a3857600080fd5b8101908080519060200190929190505050905080610abe576040517f08c379a000000000000000000000000000000000000000000000000000000000815260040180806020018281038252600a8152602001807f66726565206572726f720000000000000000000000000000000000000000000081525060200191505060405180910390fd5b610b1084600260003373ffffffffffffffffffffffffffffffffffffffff1673ffffffffffffffffffffffffffffffffffffffff168152602001908152602001600020546124a790919063ffffffff16565b600260003373ffffffffffffffffffffffffffffffffffffffff1673ffffffffffffffffffffffffffffffffffffffff168152602001908152602001600020819055507f7fc38195c181aaf0adae24c6faacf2e3e3907fa4ffdaed1dfe843501a66d87c63385604051808373ffffffffffffffffffffffffffffffffffffffff1673ffffffffffffffffffffffffffffffffffffffff1681526020018281526020019250505060405180910390a15050919050565b600060405180807f476f7665726e53686172654d616e616765725f53656e64457468000000000000815250601a01905060405180910390206000809054906101000a900473ffffffffffffffffffffffffffffffffffffffff1673ffffffffffffffffffffffffffffffffffffffff16634c5f07493330847f290decd9548b62a8d60345a988386fc84ba6bc95484008f6362f93160ef3e56360001b6040518563ffffffff1660e01b8152600401808573ffffffffffffffffffffffffffffffffffffffff1673ffffffffffffffffffffffffffffffffffffffff1681526020018473ffffffffffffffffffffffffffffffffffffffff1673ffffffffffffffffffffffffffffffffffffffff16815260200183815260200182815260200194505050505060206040518083038186803b158015610d0257600080fd5b505afa158015610d16573d6000803e3d6000fd5b505050506040513d6020811015610d2c57600080fd5b8101908080519060200190929190505050610d92576040517f08c379a00000000000000000000000000000000000000000000000000000000081526004018080602001828103825260248152602001806130046024913960400191505060405180910390fd5b6000809054906101000a900473ffffffffffffffffffffffffffffffffffffffff1673ffffffffffffffffffffffffffffffffffffffff1663783672e36040518163ffffffff1660e01b815260040160206040518083038186803b158015610df957600080fd5b505afa158015610e0d573d6000803e3d6000fd5b505050506040513d6020811015610e2357600080fd5b810190808051906020019092919050505073ffffffffffffffffffffffffffffffffffffffff166349dcbc5e85856040518363ffffffff1660e01b8152600401808373ffffffffffffffffffffffffffffffffffffffff1673ffffffffffffffffffffffffffffffffffffffff16815260200182815260200192505050600060405180830381600087803b158015610eba57600080fd5b505af1158015610ece573d6000803e3d6000fd5b505050505092915050565b60008060009054906101000a900473ffffffffffffffffffffffffffffffffffffffff16905090565b600060405180807f476f7665726e53686172654d616e616765725f436c656172696e670000000000815250601b01905060405180910390206000809054906101000a900473ffffffffffffffffffffffffffffffffffffffff1673ffffffffffffffffffffffffffffffffffffffff16634c5f07493330847f290decd9548b62a8d60345a988386fc84ba6bc95484008f6362f93160ef3e56360001b6040518563ffffffff1660e01b8152600401808573ffffffffffffffffffffffffffffffffffffffff1673ffffffffffffffffffffffffffffffffffffffff1681526020018473ffffffffffffffffffffffffffffffffffffffff1673ffffffffffffffffffffffffffffffffffffffff16815260200183815260200182815260200194505050505060206040518083038186803b15801561103f57600080fd5b505afa158015611053573d6000803e3d6000fd5b505050506040513d602081101561106957600080fd5b81019080805190602001909291905050506110cf576040517f08c379a00000000000000000000000000000000000000000000000000000000081526004018080602001828103825260248152602001806130046024913960400191505060405180910390fd5b6000809054906101000a900473ffffffffffffffffffffffffffffffffffffffff1673ffffffffffffffffffffffffffffffffffffffff1663783672e36040518163ffffffff1660e01b815260040160206040518083038186803b15801561113657600080fd5b505afa15801561114a573d6000803e3d6000fd5b505050506040513d602081101561116057600080fd5b810190808051906020019092919050505073ffffffffffffffffffffffffffffffffffffffff16634f25e2a385856040518363ffffffff1660e01b8152600401808373ffffffffffffffffffffffffffffffffffffffff1673ffffffffffffffffffffffffffffffffffffffff16815260200182815260200192505050600060405180830381600087803b1580156111f757600080fd5b505af115801561120b573d6000803e3d6000fd5b50505050600191505092915050565b6000600260008373ffffffffffffffffffffffffffffffffffffffff1673ffffffffffffffffffffffffffffffffffffffff168152602001908152602001600020549050919050565b60405180807f476f7665726e53686172654d616e616765725f53656e64457468000000000000815250601a019050604051809103902081565b600060405180807f476f7665726e53686172654d616e616765725f46726565000000000000000000815250601701905060405180910390206000809054906101000a900473ffffffffffffffffffffffffffffffffffffffff1673ffffffffffffffffffffffffffffffffffffffff16634c5f07493330847f290decd9548b62a8d60345a988386fc84ba6bc95484008f6362f93160ef3e56360001b6040518563ffffffff1660e01b8152600401808573ffffffffffffffffffffffffffffffffffffffff1673ffffffffffffffffffffffffffffffffffffffff1681526020018473ffffffffffffffffffffffffffffffffffffffff1673ffffffffffffffffffffffffffffffffffffffff16815260200183815260200182815260200194505050505060206040518083038186803b1580156113d957600080fd5b505afa1580156113ed573d6000803e3d6000fd5b505050506040513d602081101561140357600080fd5b8101908080519060200190929190505050611469576040517f08c379a00000000000000000000000000000000000000000000000000000000081526004018080602001828103825260248152602001806130046024913960400191505060405180910390fd5b611475853386866124f1565b50509392505050565b60405180807f476f7665726e53686172654d616e616765725f4d696e7442696e64696e670000815250601e019050604051809103902081565b600080821161152e576040517f08c379a00000000000000000000000000000000000000000000000000000000081526004018080602001828103825260178152602001807f616d6f756e74206e656564206d6f7265207468616e203000000000000000000081525060200191505060405180910390fd5b6000600460009054906101000a900473ffffffffffffffffffffffffffffffffffffffff1673ffffffffffffffffffffffffffffffffffffffff166323b872dd3330866040518463ffffffff1660e01b8152600401808473ffffffffffffffffffffffffffffffffffffffff1673ffffffffffffffffffffffffffffffffffffffff1681526020018373ffffffffffffffffffffffffffffffffffffffff1673ffffffffffffffffffffffffffffffffffffffff1681526020018281526020019350505050602060405180830381600087803b15801561160d57600080fd5b505af1158015611621573d6000803e3d6000fd5b505050506040513d602081101561163757600080fd5b81019080805190602001909291905050509050806116bd576040517f08c379a000000000000000000000000000000000000000000000000000000000815260040180806020018281038252600a8152602001807f6c6f636b206572726f720000000000000000000000000000000000000000000081525060200191505060405180910390fd5b7fe291949335b619b4c85b1dc41e80582821cf203aecaa7e0618ad5583ddc2f5313384604051808373ffffffffffffffffffffffffffffffffffffffff1673ffffffffffffffffffffffffffffffffffffffff1681526020018281526020019250505060405180910390a16001915050919050565b60405180807f476f7665726e53686172654d616e616765725f436c656172696e670000000000815250601b019050604051809103902081565b600060405180807f476f7665726e53686172654d616e616765725f436c656172696e674664740000815250601e01905060405180910390206000809054906101000a900473ffffffffffffffffffffffffffffffffffffffff1673ffffffffffffffffffffffffffffffffffffffff16634c5f07493330847f290decd9548b62a8d60345a988386fc84ba6bc95484008f6362f93160ef3e56360001b6040518563ffffffff1660e01b8152600401808573ffffffffffffffffffffffffffffffffffffffff1673ffffffffffffffffffffffffffffffffffffffff1681526020018473ffffffffffffffffffffffffffffffffffffffff1673ffffffffffffffffffffffffffffffffffffffff16815260200183815260200182815260200194505050505060206040518083038186803b1580156118a857600080fd5b505afa1580156118bc573d6000803e3d6000fd5b505050506040513d60208110156118d257600080fd5b8101908080519060200190929190505050611938576040517f08c379a00000000000000000000000000000000000000000000000000000000081526004018080602001828103825260248152602001806130046024913960400191505060405180910390fd5b600061198c84600260008873ffffffffffffffffffffffffffffffffffffffff1673ffffffffffffffffffffffffffffffffffffffff168152602001908152602001600020546124a790919063ffffffff16565b116119ff576040517f08c379a00000000000000000000000000000000000000000000000000000000081526004018080602001828103825260088152602001807f6e6f206d6f6e657900000000000000000000000000000000000000000000000081525060200191505060405180910390fd5b600460009054906101000a900473ffffffffffffffffffffffffffffffffffffffff1673ffffffffffffffffffffffffffffffffffffffff1663095ea7b386856040518363ffffffff1660e01b8152600401808373ffffffffffffffffffffffffffffffffffffffff1673ffffffffffffffffffffffffffffffffffffffff16815260200182815260200192505050602060405180830381600087803b158015611aa857600080fd5b505af1158015611abc573d6000803e3d6000fd5b505050506040513d6020811015611ad257600080fd5b81019080805190602001909291905050505060008573ffffffffffffffffffffffffffffffffffffffff1663282d3fdf86866040518363ffffffff1660e01b8152600401808373ffffffffffffffffffffffffffffffffffffffff1673ffffffffffffffffffffffffffffffffffffffff16815260200182815260200192505050602060405180830381600087803b158015611b6d57600080fd5b505af1158015611b81573d6000803e3d6000fd5b505050506040513d6020811015611b9757600080fd5b81019080805190602001909291905050509050611bfc84600260008873ffffffffffffffffffffffffffffffffffffffff1673ffffffffffffffffffffffffffffffffffffffff168152602001908152602001600020546124a790919063ffffffff16565b600260008773ffffffffffffffffffffffffffffffffffffffff1673ffffffffffffffffffffffffffffffffffffffff168152602001908152602001600020819055506001151581151514611cb9576040517f08c379a00000000000000000000000000000000000000000000000000000000081526004018080602001828103825260058152602001807f6572726f7200000000000000000000000000000000000000000000000000000081525060200191505060405180910390fd5b50509392505050565b60405180807f476f7665726e53686172654d616e616765725f467265650000000000000000008152506017019050604051809103902081565b60405180807f476f7665726e53686172654d616e616765725f436c656172696e674664740000815250601e019050604051809103902081565b7f290decd9548b62a8d60345a988386fc84ba6bc95484008f6362f93160ef3e56360001b81565b600060405180807f476f7665726e53686172654d616e616765725f4c6f636b000000000000000000815250601701905060405180910390206000809054906101000a900473ffffffffffffffffffffffffffffffffffffffff1673ffffffffffffffffffffffffffffffffffffffff16634c5f07493330847f290decd9548b62a8d60345a988386fc84ba6bc95484008f6362f93160ef3e56360001b6040518563ffffffff1660e01b8152600401808573ffffffffffffffffffffffffffffffffffffffff1673ffffffffffffffffffffffffffffffffffffffff1681526020018473ffffffffffffffffffffffffffffffffffffffff1673ffffffffffffffffffffffffffffffffffffffff16815260200183815260200182815260200194505050505060206040518083038186803b158015611e9857600080fd5b505afa158015611eac573d6000803e3d6000fd5b505050506040513d6020811015611ec257600080fd5b8101908080519060200190929190505050611f28576040517f08c379a00000000000000000000000000000000000000000000000000000000081526004018080602001828103825260248152602001806130046024913960400191505060405180910390fd5b611f358633878787612815565b506001915050949350505050565b60405180807f476f7665726e53686172654d616e616765725f4c6f636b0000000000000000008152506017019050604051809103902081565b6000809054906101000a900473ffffffffffffffffffffffffffffffffffffffff1681565b600060405180807f476f7665726e53686172654d616e616765725f4d696e7442696e64696e670000815250601e01905060405180910390206000809054906101000a900473ffffffffffffffffffffffffffffffffffffffff1673ffffffffffffffffffffffffffffffffffffffff16634c5f07493330847f290decd9548b62a8d60345a988386fc84ba6bc95484008f6362f93160ef3e56360001b6040518563ffffffff1660e01b8152600401808573ffffffffffffffffffffffffffffffffffffffff1673ffffffffffffffffffffffffffffffffffffffff1681526020018473ffffffffffffffffffffffffffffffffffffffff1673ffffffffffffffffffffffffffffffffffffffff16815260200183815260200182815260200194505050505060206040518083038186803b1580156120de57600080fd5b505afa1580156120f2573d6000803e3d6000fd5b505050506040513d602081101561210857600080fd5b810190808051906020019092919050505061216e576040517f08c379a00000000000000000000000000000000000000000000000000000000081526004018080602001828103825260248152602001806130046024913960400191505060405180910390fd5b6121c084600260008873ffffffffffffffffffffffffffffffffffffffff1673ffffffffffffffffffffffffffffffffffffffff16815260200190815260200160002054612d4b90919063ffffffff16565b600260008773ffffffffffffffffffffffffffffffffffffffff1673ffffffffffffffffffffffffffffffffffffffff1681526020019081526020016000208190555061220b612e93565b6040518060400160405280868152602001858152509050600360003373ffffffffffffffffffffffffffffffffffffffff1673ffffffffffffffffffffffffffffffffffffffff168152602001908152602001600020819080600181540180825580915050906001820390600052602060002090600202016000909192909190915060008201518160000155602082015181600101555050507f39ef0a48be308d3109a12c79c9ebb23d3a0ed4ded82c56bc3d04d5671aa668c7868686604051808473ffffffffffffffffffffffffffffffffffffffff1673ffffffffffffffffffffffffffffffffffffffff168152602001838152602001828152602001935050505060405180910390a16001925050509392505050565b600460009054906101000a900473ffffffffffffffffffffffffffffffffffffffff1681565b60008090506000600360008473ffffffffffffffffffffffffffffffffffffffff1673ffffffffffffffffffffffffffffffffffffffff168152602001908152602001600020905060008090505b818054905081121561249d5760008282815481106123b257fe5b9060005260206000209060020201905080600101544210156123ec576123e5816000015485612d4b90919063ffffffff16565b935061248f565b82612405600185805490506124a790919063ffffffff16565b8154811061240f57fe5b9060005260206000209060020201905082612438600185805490506124a790919063ffffffff16565b8154811061244257fe5b90600052602060002090600202016000808201600090556001820160009055505061247b600184805490506124a790919063ffffffff16565b83816124879190612ead565b506001820391505b508080600101915050612398565b5081915050919050565b60006124e983836040518060400160405280601e81526020017f536166654d6174683a207375627472616374696f6e206f766572666c6f770000815250612dd3565b905092915050565b600080600160008773ffffffffffffffffffffffffffffffffffffffff1673ffffffffffffffffffffffffffffffffffffffff168152602001908152602001600020905060008090505b818054905081121561280657600082828154811061255557fe5b906000526020600020906004020190508673ffffffffffffffffffffffffffffffffffffffff168160000160009054906101000a900473ffffffffffffffffffffffffffffffffffffffff1673ffffffffffffffffffffffffffffffffffffffff161480156125c75750848160020154145b80156125d65750858160010154145b156127f8576126318160030154600260008b73ffffffffffffffffffffffffffffffffffffffff1673ffffffffffffffffffffffffffffffffffffffff16815260200190815260200160002054612d4b90919063ffffffff16565b600260008a73ffffffffffffffffffffffffffffffffffffffff1673ffffffffffffffffffffffffffffffffffffffff168152602001908152602001600020819055508261268d600185805490506124a790919063ffffffff16565b8154811061269757fe5b90600052602060002090600402019050826126c0600185805490506124a790919063ffffffff16565b815481106126ca57fe5b9060005260206000209060040201600080820160006101000a81549073ffffffffffffffffffffffffffffffffffffffff02191690556001820160009055600282016000905560038201600090555050612732600184805490506124a790919063ffffffff16565b838161273e9190612edf565b506001820391507f84cababf7d3d167c4d136925bed36193e6683fc9e8591127877b59f3633e76cf87898888604051808573ffffffffffffffffffffffffffffffffffffffff1673ffffffffffffffffffffffffffffffffffffffff1681526020018473ffffffffffffffffffffffffffffffffffffffff1673ffffffffffffffffffffffffffffffffffffffff16815260200183815260200182815260200194505050505060405180910390a16001935050505061280d565b50808060010191505061253b565b5060009150505b949350505050565b600080600260008873ffffffffffffffffffffffffffffffffffffffff1673ffffffffffffffffffffffffffffffffffffffff16815260200190815260200160002054116128ae576040517f08c379a0000000000000000000000000000000000000000000000000000000008152600401808060200182810382526027815260200180612fdd6027913960400191505060405180910390fd5b6000600160008873ffffffffffffffffffffffffffffffffffffffff1673ffffffffffffffffffffffffffffffffffffffff168152602001908152602001600020905060008090505b8180549050811015612a7357600082828154811061291157fe5b906000526020600020906004020190508773ffffffffffffffffffffffffffffffffffffffff168160000160009054906101000a900473ffffffffffffffffffffffffffffffffffffffff1673ffffffffffffffffffffffffffffffffffffffff161480156129835750858160020154145b80156129925750868160010154145b15612a57576129ae858260030154612d4b90919063ffffffff16565b8160030181905550612a0885600260008c73ffffffffffffffffffffffffffffffffffffffff1673ffffffffffffffffffffffffffffffffffffffff168152602001908152602001600020546124a790919063ffffffff16565b600260008b73ffffffffffffffffffffffffffffffffffffffff1673ffffffffffffffffffffffffffffffffffffffff1681526020019081526020016000208190555060019350505050612d42565b50612a6c600182612d4b90919063ffffffff16565b90506128f7565b50612a7c612f11565b60405180608001604052808873ffffffffffffffffffffffffffffffffffffffff168152602001878152602001868152602001858152509050600060149054906101000a900460ff1660ff1682805490501115612b24576040517f08c379a00000000000000000000000000000000000000000000000000000000081526004018080602001828103825260218152602001806130286021913960400191505060405180910390fd5b600160008973ffffffffffffffffffffffffffffffffffffffff1673ffffffffffffffffffffffffffffffffffffffff168152602001908152602001600020819080600181540180825580915050906001820390600052602060002090600402016000909192909190915060008201518160000160006101000a81548173ffffffffffffffffffffffffffffffffffffffff021916908373ffffffffffffffffffffffffffffffffffffffff160217905550602082015181600101556040820151816002015560608201518160030155505050612c4984600260008b73ffffffffffffffffffffffffffffffffffffffff1673ffffffffffffffffffffffffffffffffffffffff168152602001908152602001600020546124a790919063ffffffff16565b600260008a73ffffffffffffffffffffffffffffffffffffffff1673ffffffffffffffffffffffffffffffffffffffff168152602001908152602001600020819055507f9c169e8fb12658489988f55de84217d9e98c71ae8416e5256cce7e69b5ba5c0d8789888888604051808673ffffffffffffffffffffffffffffffffffffffff1673ffffffffffffffffffffffffffffffffffffffff1681526020018573ffffffffffffffffffffffffffffffffffffffff1673ffffffffffffffffffffffffffffffffffffffff1681526020018481526020018381526020018281526020019550505050505060405180910390a16001925050505b95945050505050565b600080828401905083811015612dc9576040517f08c379a000000000000000000000000000000000000000000000000000000000815260040180806020018281038252601b8152602001807f536166654d6174683a206164646974696f6e206f766572666c6f77000000000081525060200191505060405180910390fd5b8091505092915050565b6000838311158290612e80576040517f08c379a00000000000000000000000000000000000000000000000000000000081526004018080602001828103825283818151815260200191508051906020019080838360005b83811015612e45578082015181840152602081019050612e2a565b50505050905090810190601f168015612e725780820380516001836020036101000a031916815260200191505b509250505060405180910390fd5b5060008385039050809150509392505050565b604051806040016040528060008152602001600081525090565b815481835581811115612eda57600202816002028360005260206000209182019101612ed99190612f4f565b5b505050565b815481835581811115612f0c57600402816004028360005260206000209182019101612f0b9190612f7e565b5b505050565b6040518060800160405280600073ffffffffffffffffffffffffffffffffffffffff1681526020016000815260200160008152602001600081525090565b612f7b91905b80821115612f7757600080820160009055600182016000905550600201612f55565b5090565b90565b612fd991905b80821115612fd557600080820160006101000a81549073ffffffffffffffffffffffffffffffffffffffff021916905560018201600090556002820160009055600382016000905550600401612f84565b5090565b9056fe4c6f636b6564207368617265732063616e6e6f7420657863656564207468652062616c616e63654e6f207065726d697373696f6e20746f20696e766f6b652074686520436f6e747261637443616e6e6f742065786365656420746865206e756d626572206f66206c6f636b73a165627a7a72305820c1c919256cd4f30662bd844afbab03f700aeb866e906acbae2c3fa20276e480f0029",
  "source": "pragma solidity >=0.4.22 <0.6.0;\r\n\r\nimport \"../Interface/IGovernShareManager.sol\";\r\nimport \"../apps/FutureDaoApp.sol\";\r\nimport \"../Interface/IERC20.sol\";\r\nimport \"../Interface/ITradeFundPool.sol\";\r\nimport \"../clearing/ClearingFundPool.sol\";\r\n\r\n\r\n/// @title \r\n/// @author viko\r\n/// @notice \r\ncontract GovernShareManager is FutureDaoApp , IGovernShareManager{\r\n    /// @notice \r\n    uint8 lockTimesLimit = 5;\r\n\r\n    /// @notice\r\n    mapping(address => SL[]) slMap;\r\n\r\n    /// @notice Fdt\r\n    mapping (address=>uint256) balances;\r\n\r\n    /// @notice balances\r\n    mapping (address=>Sbinding[]) map_Sbinding;\r\n\r\n    /// @notice \r\n    address public token;\r\n\r\n    bytes32 public constant GovernShareManager_MintBinding = keccak256(\"GovernShareManager_MintBinding\");\r\n    bytes32 public constant GovernShareManager_Lock = keccak256(\"GovernShareManager_Lock\");\r\n    bytes32 public constant GovernShareManager_Free = keccak256(\"GovernShareManager_Free\");\r\n    bytes32 public constant GovernShareManager_SendEth = keccak256(\"GovernShareManager_SendEth\");\r\n    bytes32 public constant GovernShareManager_Clearing = keccak256(\"GovernShareManager_Clearing\");\r\n    bytes32 public constant GovernShareManager_ClearingFdt = keccak256(\"GovernShareManager_ClearingFdt\");\r\n\r\n    ////  \r\n    struct Sbinding{\r\n        uint256 amount;\r\n        uint timestamp;\r\n    }\r\n\r\n    /// @notice \r\n    struct SL {\r\n        address contractAddress;\r\n        uint256 index;\r\n        uint256 expireDate;\r\n        uint256 lockAmount;\r\n    }\r\n\r\n    /// @notice fdt\r\n    /// @param who \r\n    /// @param amount \r\n    event OnGetFdtOut(address who,uint256 amount);\r\n\r\n    /// @notice fdt\r\n    /// @param who \r\n    /// @param amount \r\n    event OnSetFdtIn(address who,uint256 amount);\r\n\r\n    /// @notice fdt\r\n    /// @param contractAddress \r\n    /// @param lockAddr \r\n    /// @param index \r\n    /// @param expireDate \r\n    /// @param lockAmount \r\n    event OnLock(address contractAddress,address lockAddr,uint256 index,uint256 expireDate,uint256 lockAmount);\r\n\r\n    /// @notice fdt\r\n    /// @param contractAddress \r\n    /// @param lockAddr \r\n    /// @param index \r\n    /// @param expireDate \r\n    event OnFree(address contractAddress,address lockAddr,uint256 index,uint256 expireDate);\r\n\r\n    event OnMintBinding(address addr,uint256 amount,uint256 timestamp);\r\n\r\n    constructor(AppManager _appManager,address _token)  FutureDaoApp(_appManager) public {\r\n        token = _token;\r\n    }\r\n\r\n    /// @notice \r\n    function getFdtInGovern(address _addr) public view returns(uint256) {\r\n        return balances[_addr];\r\n    }\r\n\r\n    /// @notice fdt\r\n    function getFdtTotalSupply() public view returns(uint256){\r\n        uint256 totalSupplyInFdt = IERC20(token).totalSupply();\r\n        return totalSupplyInFdt;\r\n    }\r\n\r\n    function mintBinding(address _addr,uint256 _amount,uint256 _timestamp)\r\n    public auth(GovernShareManager_MintBinding) returns(bool){\r\n        balances[_addr] = balances[_addr].add(_amount);\r\n        Sbinding memory binding = Sbinding({\r\n            amount : _amount,\r\n            timestamp : _timestamp\r\n        });\r\n        map_Sbinding[msg.sender].push(binding);\r\n        emit OnMintBinding(_addr,_amount,_timestamp);\r\n        return true;\r\n    }\r\n\r\n    ///@notice \r\n    function setFdtIn(uint256 _amount) public returns(bool) {\r\n        require(_amount>0,\"amount need more than 0\");\r\n        bool r = IERC20(token).transferFrom(msg.sender,address(this),_amount);\r\n        require(r,\"lock error\");\r\n        emit OnSetFdtIn(msg.sender,_amount);\r\n        return true;\r\n    }\r\n\r\n    ///@notice \r\n    function getFdtOut(uint256 amount) public returns(bool){\r\n        require(amount>0,'amount need more than 0');\r\n        uint256 _bindingAmount = _getbindingAmount(msg.sender);\r\n        require(balances[msg.sender].sub(_bindingAmount) >= amount,\"The balance is not enough\");\r\n        // //\r\n        // _refreshSL(msg.sender);\r\n        bool r = IERC20(token).transfer(msg.sender,amount);\r\n        require(r,\"free error\");\r\n        balances[msg.sender] = balances[msg.sender].sub(amount);\r\n        emit OnGetFdtOut(msg.sender,amount);\r\n    }\r\n\r\n    /// @notice \r\n    function lock(address _lockAddr,uint256 _index,uint256 _expireDate,uint256 _lockAmount)\r\n    public\r\n    auth(GovernShareManager_Lock)\r\n    returns(bool)\r\n    {\r\n        // //\r\n        // _refreshSL(_lockAddr);\r\n        //\r\n        _addSL(_lockAddr,msg.sender,_index,_expireDate,_lockAmount);\r\n        return true;\r\n    }\r\n\r\n    /// @notice \r\n    function free(address _lockAddr,uint256 _index,uint256 _expireDate)\r\n    public\r\n    auth(GovernShareManager_Free)\r\n    returns(bool)\r\n    {\r\n        _delSL(_lockAddr,msg.sender,_index,_expireDate);\r\n    }\r\n\r\n    /// @notice fdt\r\n    function clearingFdt(address payable _addr_clearingFundPool,address _addr,uint256 amount) public auth(GovernShareManager_ClearingFdt)\r\n    returns(bool)\r\n    {\r\n        // //\r\n        // _refreshSL(_addr);\r\n        require(balances[_addr].sub(amount)>0,\"no money\");\r\n        IERC20(token).approve(_addr_clearingFundPool,amount);\r\n        bool r = ClearingFundPool(_addr_clearingFundPool).lock(_addr,amount);\r\n        balances[_addr] = balances[_addr].sub(amount);\r\n        require(r==true,\"error\");\r\n    }\r\n\r\n    /// @notice \r\n    function sendEth(address payable _addr,uint256 _value) public payable auth(GovernShareManager_SendEth) returns(bool){\r\n        ITradeFundPool(appManager.getTradeFundPool()).sendEth(_addr,_value);\r\n    }\r\n\r\n    /// @notice \r\n    function clearing(address payable _addr_clearingFundPool,uint256 _ratio) public payable auth(GovernShareManager_Clearing) returns(bool){\r\n        ITradeFundPool(appManager.getTradeFundPool()).clearing(_addr_clearingFundPool,_ratio);\r\n        return true;\r\n    }\r\n\r\n/////////////////////\r\n///\r\n////////////////////\r\n\r\n    /// @notice \r\n    function _addSL(\r\n        address _lockAddr,\r\n        address _contractAddr,\r\n        uint256 _index,\r\n        uint256 _expireDate,\r\n        uint256 _lockAmount\r\n    )\r\n    private\r\n    returns(bool)\r\n    {\r\n        //\r\n        require(balances[_lockAddr] > 0,\"Locked shares cannot exceed the balance\");\r\n        SL[] storage slQueue = slMap[_lockAddr];\r\n        for(uint256 i = 0;i<slQueue.length;i = i.add(1)){\r\n            SL storage _sl = slQueue[i];\r\n            if(_sl.contractAddress == _contractAddr && _sl.expireDate == _expireDate && _sl.index == _index){\r\n                _sl.lockAmount = _sl.lockAmount.add(_lockAmount);\r\n                balances[_lockAddr] = balances[_lockAddr].sub(_lockAmount);\r\n                return true;\r\n            }\r\n        }\r\n\r\n        SL memory sl = SL({\r\n            contractAddress : _contractAddr,\r\n            expireDate : _expireDate,\r\n            index : _index,\r\n            lockAmount : _lockAmount\r\n        });\r\n        //\r\n        require(slQueue.length <= lockTimesLimit,\"Cannot exceed the number of locks\");\r\n        slMap[_lockAddr].push(sl);\r\n        balances[_lockAddr] = balances[_lockAddr].sub(_lockAmount);\r\n        emit OnLock(_contractAddr,_lockAddr,_index,_expireDate,_lockAmount);\r\n        return true;\r\n    }\r\n\r\n    /// @notice \r\n    function _delSL(\r\n        address _lockAddr,\r\n        address _contractAddr,\r\n        uint256 _index,\r\n        uint256 _expireDate\r\n    )\r\n    private\r\n    returns(bool)\r\n    {\r\n        SL[] storage slQueue = slMap[_lockAddr];\r\n        for(int i = 0;i < int(slQueue.length);i++){\r\n            SL storage _sl = slQueue[uint(i)];\r\n            if(_sl.contractAddress == _contractAddr && _sl.expireDate == _expireDate && _sl.index == _index){\r\n                balances[_lockAddr] = balances[_lockAddr].add(_sl.lockAmount);\r\n                _sl = slQueue[slQueue.length.sub(1)];\r\n                delete slQueue[slQueue.length.sub(1)];\r\n                slQueue.length = slQueue.length.sub(1);\r\n                i = i - 1;\r\n                emit OnFree(_contractAddr,_lockAddr,_index,_expireDate);\r\n                return true;\r\n            }\r\n        }\r\n        return false;\r\n    }\r\n\r\n    // /// @notice  \r\n    // function _refreshSL(address _lockAddr) private {\r\n    //     SL[] storage slQueue = slMap[_lockAddr];\r\n    //     for(int i = 0;i<int(slQueue.length);i++){\r\n    //         SL storage _sl = slQueue[uint(i)];\r\n    //         if(_sl.expireDate > now){\r\n    //             balances[_lockAddr] = balances[_lockAddr].add(_sl.lockAmount);\r\n    //             _sl = slQueue[slQueue.length.sub(1)];\r\n    //             delete slQueue[slQueue.length.sub(1)];\r\n    //             slQueue.length = slQueue.length.sub(1);\r\n    //             i = i-1;\r\n    //         }\r\n    //     }\r\n    // }\r\n\r\n/*\r\n    /// @notice \r\n    function callContract(address payable _addr,uint256 _value,bytes memory _execScript) public payable isWhiteAddress(msg.sender){\r\n        (bool success,) = _addr.call.value(_value)(_execScript);\r\n        require(success, \"call failed\");\r\n    }\r\n*/\r\n\r\n    function _getbindingAmount(address _addr) private returns(uint256 _bindingAmount){\r\n        _bindingAmount = 0;\r\n        Sbinding[] storage queue = map_Sbinding[_addr];\r\n        for(int i = 0;i < int(queue.length);i++){\r\n            Sbinding storage _sb = queue[uint(i)];\r\n            if(now < _sb.timestamp){\r\n                _bindingAmount = _bindingAmount.add(_sb.amount);\r\n            }\r\n            else{\r\n                _sb = queue[queue.length.sub(1)];\r\n                delete queue[queue.length.sub(1)];\r\n                queue.length = queue.length.sub(1);\r\n                i = i - 1;\r\n            }\r\n        }\r\n        return _bindingAmount;\r\n    }\r\n\r\n    function() external payable{\r\n    }\r\n}",
  "sourcePath": "D:/_______work/FD_Contract_ETH/fd/contracts/Govern/GovernShareManager.sol",
  "compiler": {
    "name": "solc",
    "version": "0.5.8+commit.23d335f2.Emscripten.clang"
  },
  "schemaVersion": "3.0.11",
  "updatedAt": "2019-11-05T02:27:33.657Z",
  "devdoc": {
    "methods": {}
  },
  "userdoc": {
    "methods": {
      "clearing(address,uint256)": {
        "notice": ""
      },
      "clearingFdt(address,address,uint256)": {
        "notice": "fdt"
      },
      "free(address,uint256,uint256)": {
        "notice": ""
      },
      "getFdtInGovern(address)": {
        "notice": ""
      },
      "getFdtOut(uint256)": {
        "notice": ""
      },
      "getFdtTotalSupply()": {
        "notice": "fdt"
      },
      "lock(address,uint256,uint256,uint256)": {
        "notice": ""
      },
      "sendEth(address,uint256)": {
        "notice": ""
      },
      "setFdtIn(uint256)": {
        "notice": ""
      }
    },
    "notice": ""
  }
}