{
    "contractName": "GuildBank2",
    "abi": [
        {
            "constant": true,
            "inputs": [],
            "name": "owner",
            "outputs": [
                {
                    "name": "",
                    "type": "address"
                }
            ],
            "payable": false,
            "stateMutability": "view",
            "type": "function"
        },
        {
            "inputs": [],
            "payable": false,
            "stateMutability": "nonpayable",
            "type": "constructor"
        },
        {
            "anonymous": false,
            "inputs": [
                {
                    "indexed": true,
                    "name": "receiver",
                    "type": "address"
                },
                {
                    "indexed": true,
                    "name": "tokenAddress",
                    "type": "address"
                },
                {
                    "indexed": false,
                    "name": "amount",
                    "type": "uint256"
                }
            ],
            "name": "Withdrawal",
            "type": "event"
        },
        {
            "constant": false,
            "inputs": [
                {
                    "name": "receiver",
                    "type": "address"
                },
                {
                    "name": "shares",
                    "type": "uint256"
                },
                {
                    "name": "totalShares",
                    "type": "uint256"
                },
                {
                    "name": "approvedTokens",
                    "type": "address[]"
                }
            ],
            "name": "withdraw",
            "outputs": [
                {
                    "name": "",
                    "type": "bool"
                }
            ],
            "payable": false,
            "stateMutability": "nonpayable",
            "type": "function"
        },
        {
            "constant": false,
            "inputs": [
                {
                    "name": "token",
                    "type": "address"
                },
                {
                    "name": "receiver",
                    "type": "address"
                },
                {
                    "name": "amount",
                    "type": "uint256"
                }
            ],
            "name": "withdrawToken",
            "outputs": [
                {
                    "name": "",
                    "type": "bool"
                }
            ],
            "payable": false,
            "stateMutability": "nonpayable",
            "type": "function"
        }
    ],
    "bytecode": "0x608060405234801561001057600080fd5b5060008054600160a060020a03191633179055610505806100326000396000f3fe608060405234801561001057600080fd5b50600436106100445760e060020a600035046301e336678114610049578063732c8f57146100935780638da5cb5b14610152575b600080fd5b61007f6004803603606081101561005f57600080fd5b50600160a060020a03813581169160208101359091169060400135610176565b604080519115158252519081900360200190f35b61007f600480360360808110156100a957600080fd5b600160a060020a0382351691602081013591604082013591908101906080810160608201356401000000008111156100e057600080fd5b8201836020820111156100f257600080fd5b8035906020019184602083028401116401000000008311171561011457600080fd5b919080806020026020016040519081016040528093929190818152602001838360200280828437600092019190915250929550610272945050505050565b61015a61046c565b60408051600160a060020a039092168252519081900360200190f35b60008054600160a060020a0316331461018e57600080fd5b83600160a060020a031683600160a060020a03167f2717ead6b9200dd235aad468c9809ea400fe33ac69b5bfaa6d3e90fc922b6398846040518082815260200191505060405180910390a383600160a060020a031663a9059cbb84846040518363ffffffff1660e060020a0281526004018083600160a060020a0316600160a060020a0316815260200182815260200192505050602060405180830381600087803b15801561023c57600080fd5b505af1158015610250573d6000803e3d6000fd5b505050506040513d602081101561026657600080fd5b505190505b9392505050565b60008054600160a060020a0316331461028a57600080fd5b60005b825181101561046057600061034284838151811015156102a957fe5b6020908102909101810151604080517f70a082310000000000000000000000000000000000000000000000000000000081523060048201529051600160a060020a03909216926370a0823192602480840193829003018186803b15801561030f57600080fd5b505afa158015610323573d6000803e3d6000fd5b505050506040513d602081101561033957600080fd5b5051878761047b565b9050838281518110151561035257fe5b90602001906020020151600160a060020a031687600160a060020a03167f2717ead6b9200dd235aad468c9809ea400fe33ac69b5bfaa6d3e90fc922b6398836040518082815260200191505060405180910390a383828151811015156103b457fe5b90602001906020020151600160a060020a031663a9059cbb88836040518363ffffffff1660e060020a0281526004018083600160a060020a0316600160a060020a0316815260200182815260200192505050602060405180830381600087803b15801561042057600080fd5b505af1158015610434573d6000803e3d6000fd5b505050506040513d602081101561044a57600080fd5b5051151561045757600080fd5b5060010161028d565b50600195945050505050565b600054600160a060020a031681565b600081151561048957600080fd5b8315156104985750600061026b565b8383028385828115156104a757fe5b0414156104c25782818115156104b957fe5b0491505061026b565b8383868115156104ce57fe5b04029594505050505056fea165627a7a72305820af895ee38f20a140bf147820337378dcb75119f4373f6a00eb96b912ca1681970029",
    "source": "pragma solidity >=0.4.22 <0.6.0;\r\n\r\nimport \"./IERC20.sol\";\r\n\r\ncontract GuildBank  {\r\n    address public owner;\r\n\r\n    constructor () public {\r\n        owner = msg.sender;\r\n    }\r\n\r\n    modifier onlyOwner() {\r\n        require(msg.sender == owner);\r\n        _;\r\n    }\r\n\r\n    event Withdrawal(address indexed receiver, address indexed tokenAddress, uint256 amount);\r\n\r\n    function withdraw(address receiver, uint256 shares, uint256 totalShares, IERC20[] memory approvedTokens) public onlyOwner returns (bool) {\r\n        for (uint256 i = 0; i < approvedTokens.length; i++) {\r\n            uint256 amount = fairShare(approvedTokens[i].balanceOf(address(this)), shares, totalShares);\r\n            emit Withdrawal(receiver, address(approvedTokens[i]), amount);\r\n            require(approvedTokens[i].transfer(receiver, amount));\r\n        }\r\n        return true;\r\n    }\r\n\r\n    function withdrawToken(IERC20 token, address receiver, uint256 amount) public onlyOwner returns (bool) {\r\n        emit Withdrawal(receiver, address(token), amount);\r\n        return token.transfer(receiver, amount);\r\n    }\r\n\r\n    function fairShare(uint256 balance, uint256 shares, uint256 totalShares) internal pure returns (uint256) {\r\n        require(totalShares != 0);\r\n\r\n        if (balance == 0) { return 0; }\r\n\r\n        uint256 prod = balance * shares;\r\n\r\n        if (prod / balance == shares) { // no overflow in multiplication above?\r\n            return prod / totalShares;\r\n        }\r\n\r\n        return (balance / totalShares) * shares;\r\n    }\r\n\r\n}\r\n",
    "sourcePath": "D:\\_________FD\\moloch\\contracts\\GuildBank.sol",
    "compiler": {
        "name": "solc",
        "version": "0.5.3+commit.10d17f24.Emscripten.clang"
    },
    "schemaVersion": "3.0.11",
    "updatedAt": "2019-12-31T08:13:16.643Z",
    "devdoc": {
        "methods": {}
    },
    "userdoc": {
        "methods": {}
    }
}