{
  "contractName": "Moloch2",
  "abi": [
    {
      "constant": true,
      "inputs": [
        {
          "name": "",
          "type": "uint256"
        }
      ],
      "name": "proposals",
      "outputs": [
        {
          "name": "applicant",
          "type": "address"
        },
        {
          "name": "proposer",
          "type": "address"
        },
        {
          "name": "sponsor",
          "type": "address"
        },
        {
          "name": "sharesRequested",
          "type": "uint256"
        },
        {
          "name": "lootRequested",
          "type": "uint256"
        },
        {
          "name": "tributeOffered",
          "type": "uint256"
        },
        {
          "name": "tributeToken",
          "type": "address"
        },
        {
          "name": "paymentRequested",
          "type": "uint256"
        },
        {
          "name": "paymentToken",
          "type": "address"
        },
        {
          "name": "startingPeriod",
          "type": "uint256"
        },
        {
          "name": "yesVotes",
          "type": "uint256"
        },
        {
          "name": "noVotes",
          "type": "uint256"
        },
        {
          "name": "details",
          "type": "string"
        },
        {
          "name": "maxTotalSharesAndLootAtYesVote",
          "type": "uint256"
        }
      ],
      "payable": false,
      "stateMutability": "view",
      "type": "function"
    },
    {
      "constant": true,
      "inputs": [],
      "name": "processingReward",
      "outputs": [
        {
          "name": "",
          "type": "uint256"
        }
      ],
      "payable": false,
      "stateMutability": "view",
      "type": "function"
    },
    {
      "constant": true,
      "inputs": [
        {
          "name": "",
          "type": "address"
        }
      ],
      "name": "members",
      "outputs": [
        {
          "name": "delegateKey",
          "type": "address"
        },
        {
          "name": "shares",
          "type": "uint256"
        },
        {
          "name": "loot",
          "type": "uint256"
        },
        {
          "name": "exists",
          "type": "bool"
        },
        {
          "name": "highestIndexYesVote",
          "type": "uint256"
        },
        {
          "name": "jailed",
          "type": "uint256"
        }
      ],
      "payable": false,
      "stateMutability": "view",
      "type": "function"
    },
    {
      "constant": true,
      "inputs": [
        {
          "name": "",
          "type": "uint256"
        }
      ],
      "name": "approvedTokens",
      "outputs": [
        {
          "name": "",
          "type": "address"
        }
      ],
      "payable": false,
      "stateMutability": "view",
      "type": "function"
    },
    {
      "constant": true,
      "inputs": [],
      "name": "emergencyProcessingWait",
      "outputs": [
        {
          "name": "",
          "type": "uint256"
        }
      ],
      "payable": false,
      "stateMutability": "view",
      "type": "function"
    },
    {
      "constant": true,
      "inputs": [],
      "name": "totalShares",
      "outputs": [
        {
          "name": "",
          "type": "uint256"
        }
      ],
      "payable": false,
      "stateMutability": "view",
      "type": "function"
    },
    {
      "constant": true,
      "inputs": [
        {
          "name": "",
          "type": "uint256"
        }
      ],
      "name": "proposalQueue",
      "outputs": [
        {
          "name": "",
          "type": "uint256"
        }
      ],
      "payable": false,
      "stateMutability": "view",
      "type": "function"
    },
    {
      "constant": true,
      "inputs": [
        {
          "name": "",
          "type": "address"
        }
      ],
      "name": "proposedToKick",
      "outputs": [
        {
          "name": "",
          "type": "bool"
        }
      ],
      "payable": false,
      "stateMutability": "view",
      "type": "function"
    },
    {
      "constant": true,
      "inputs": [
        {
          "name": "",
          "type": "address"
        }
      ],
      "name": "memberAddressByDelegateKey",
      "outputs": [
        {
          "name": "",
          "type": "address"
        }
      ],
      "payable": false,
      "stateMutability": "view",
      "type": "function"
    },
    {
      "constant": true,
      "inputs": [],
      "name": "emergencyWarning",
      "outputs": [
        {
          "name": "",
          "type": "bool"
        }
      ],
      "payable": false,
      "stateMutability": "view",
      "type": "function"
    },
    {
      "constant": true,
      "inputs": [],
      "name": "totalLoot",
      "outputs": [
        {
          "name": "",
          "type": "uint256"
        }
      ],
      "payable": false,
      "stateMutability": "view",
      "type": "function"
    },
    {
      "constant": true,
      "inputs": [],
      "name": "gracePeriodLength",
      "outputs": [
        {
          "name": "",
          "type": "uint256"
        }
      ],
      "payable": false,
      "stateMutability": "view",
      "type": "function"
    },
    {
      "constant": true,
      "inputs": [
        {
          "name": "",
          "type": "address"
        }
      ],
      "name": "tokenWhitelist",
      "outputs": [
        {
          "name": "",
          "type": "bool"
        }
      ],
      "payable": false,
      "stateMutability": "view",
      "type": "function"
    },
    {
      "constant": true,
      "inputs": [],
      "name": "summoningTime",
      "outputs": [
        {
          "name": "",
          "type": "uint256"
        }
      ],
      "payable": false,
      "stateMutability": "view",
      "type": "function"
    },
    {
      "constant": true,
      "inputs": [],
      "name": "votingPeriodLength",
      "outputs": [
        {
          "name": "",
          "type": "uint256"
        }
      ],
      "payable": false,
      "stateMutability": "view",
      "type": "function"
    },
    {
      "constant": true,
      "inputs": [],
      "name": "proposalDeposit",
      "outputs": [
        {
          "name": "",
          "type": "uint256"
        }
      ],
      "payable": false,
      "stateMutability": "view",
      "type": "function"
    },
    {
      "constant": true,
      "inputs": [],
      "name": "bailoutWait",
      "outputs": [
        {
          "name": "",
          "type": "uint256"
        }
      ],
      "payable": false,
      "stateMutability": "view",
      "type": "function"
    },
    {
      "constant": true,
      "inputs": [],
      "name": "guildBank",
      "outputs": [
        {
          "name": "",
          "type": "address"
        }
      ],
      "payable": false,
      "stateMutability": "view",
      "type": "function"
    },
    {
      "constant": true,
      "inputs": [],
      "name": "lastEmergencyProposalIndex",
      "outputs": [
        {
          "name": "",
          "type": "uint256"
        }
      ],
      "payable": false,
      "stateMutability": "view",
      "type": "function"
    },
    {
      "constant": true,
      "inputs": [],
      "name": "dilutionBound",
      "outputs": [
        {
          "name": "",
          "type": "uint256"
        }
      ],
      "payable": false,
      "stateMutability": "view",
      "type": "function"
    },
    {
      "constant": true,
      "inputs": [],
      "name": "periodDuration",
      "outputs": [
        {
          "name": "",
          "type": "uint256"
        }
      ],
      "payable": false,
      "stateMutability": "view",
      "type": "function"
    },
    {
      "constant": true,
      "inputs": [],
      "name": "depositToken",
      "outputs": [
        {
          "name": "",
          "type": "address"
        }
      ],
      "payable": false,
      "stateMutability": "view",
      "type": "function"
    },
    {
      "constant": true,
      "inputs": [],
      "name": "proposalCount",
      "outputs": [
        {
          "name": "",
          "type": "uint256"
        }
      ],
      "payable": false,
      "stateMutability": "view",
      "type": "function"
    },
    {
      "constant": true,
      "inputs": [],
      "name": "summoner",
      "outputs": [
        {
          "name": "",
          "type": "address"
        }
      ],
      "payable": false,
      "stateMutability": "view",
      "type": "function"
    },
    {
      "constant": true,
      "inputs": [
        {
          "name": "",
          "type": "address"
        }
      ],
      "name": "proposedToWhitelist",
      "outputs": [
        {
          "name": "",
          "type": "bool"
        }
      ],
      "payable": false,
      "stateMutability": "view",
      "type": "function"
    },
    {
      "inputs": [
        {
          "name": "_summoner",
          "type": "address"
        },
        {
          "name": "_approvedTokens",
          "type": "address[]"
        },
        {
          "name": "_periodDuration",
          "type": "uint256"
        },
        {
          "name": "_votingPeriodLength",
          "type": "uint256"
        },
        {
          "name": "_gracePeriodLength",
          "type": "uint256"
        },
        {
          "name": "_emergencyProcessingWait",
          "type": "uint256"
        },
        {
          "name": "_bailoutWait",
          "type": "uint256"
        },
        {
          "name": "_proposalDeposit",
          "type": "uint256"
        },
        {
          "name": "_dilutionBound",
          "type": "uint256"
        },
        {
          "name": "_processingReward",
          "type": "uint256"
        }
      ],
      "payable": false,
      "stateMutability": "nonpayable",
      "type": "constructor"
    },
    {
      "anonymous": false,
      "inputs": [
        {
          "indexed": false,
          "name": "proposalIndex",
          "type": "uint256"
        },
        {
          "indexed": true,
          "name": "delegateKey",
          "type": "address"
        },
        {
          "indexed": true,
          "name": "memberAddress",
          "type": "address"
        },
        {
          "indexed": true,
          "name": "applicant",
          "type": "address"
        },
        {
          "indexed": false,
          "name": "sharesRequested",
          "type": "uint256"
        },
        {
          "indexed": false,
          "name": "lootRequested",
          "type": "uint256"
        },
        {
          "indexed": false,
          "name": "tributeOffered",
          "type": "uint256"
        },
        {
          "indexed": false,
          "name": "tributeToken",
          "type": "address"
        },
        {
          "indexed": false,
          "name": "paymentRequested",
          "type": "uint256"
        },
        {
          "indexed": false,
          "name": "paymentToken",
          "type": "address"
        }
      ],
      "name": "SubmitProposal",
      "type": "event"
    },
    {
      "anonymous": false,
      "inputs": [
        {
          "indexed": true,
          "name": "delegateKey",
          "type": "address"
        },
        {
          "indexed": true,
          "name": "memberAddress",
          "type": "address"
        },
        {
          "indexed": false,
          "name": "proposalIndex",
          "type": "uint256"
        },
        {
          "indexed": false,
          "name": "proposalQueueIndex",
          "type": "uint256"
        },
        {
          "indexed": false,
          "name": "startingPeriod",
          "type": "uint256"
        }
      ],
      "name": "SponsorProposal",
      "type": "event"
    },
    {
      "anonymous": false,
      "inputs": [
        {
          "indexed": true,
          "name": "proposalIndex",
          "type": "uint256"
        },
        {
          "indexed": true,
          "name": "delegateKey",
          "type": "address"
        },
        {
          "indexed": true,
          "name": "memberAddress",
          "type": "address"
        },
        {
          "indexed": false,
          "name": "uintVote",
          "type": "uint8"
        }
      ],
      "name": "SubmitVote",
      "type": "event"
    },
    {
      "anonymous": false,
      "inputs": [
        {
          "indexed": true,
          "name": "proposalIndex",
          "type": "uint256"
        },
        {
          "indexed": true,
          "name": "proposalId",
          "type": "uint256"
        },
        {
          "indexed": false,
          "name": "didPass",
          "type": "bool"
        }
      ],
      "name": "ProcessProposal",
      "type": "event"
    },
    {
      "anonymous": false,
      "inputs": [
        {
          "indexed": true,
          "name": "memberAddress",
          "type": "address"
        },
        {
          "indexed": false,
          "name": "sharesToBurn",
          "type": "uint256"
        },
        {
          "indexed": false,
          "name": "lootToBurn",
          "type": "uint256"
        }
      ],
      "name": "Ragequit",
      "type": "event"
    },
    {
      "anonymous": false,
      "inputs": [
        {
          "indexed": true,
          "name": "proposalIndex",
          "type": "uint256"
        },
        {
          "indexed": false,
          "name": "applicantAddress",
          "type": "address"
        }
      ],
      "name": "CancelProposal",
      "type": "event"
    },
    {
      "anonymous": false,
      "inputs": [
        {
          "indexed": true,
          "name": "memberAddress",
          "type": "address"
        },
        {
          "indexed": false,
          "name": "newDelegateKey",
          "type": "address"
        }
      ],
      "name": "UpdateDelegateKey",
      "type": "event"
    },
    {
      "anonymous": false,
      "inputs": [
        {
          "indexed": true,
          "name": "summoner",
          "type": "address"
        },
        {
          "indexed": false,
          "name": "shares",
          "type": "uint256"
        }
      ],
      "name": "SummonComplete",
      "type": "event"
    },
    {
      "constant": false,
      "inputs": [
        {
          "name": "applicant",
          "type": "address"
        },
        {
          "name": "sharesRequested",
          "type": "uint256"
        },
        {
          "name": "lootRequested",
          "type": "uint256"
        },
        {
          "name": "tributeOffered",
          "type": "uint256"
        },
        {
          "name": "tributeToken",
          "type": "address"
        },
        {
          "name": "paymentRequested",
          "type": "uint256"
        },
        {
          "name": "paymentToken",
          "type": "address"
        },
        {
          "name": "details",
          "type": "string"
        }
      ],
      "name": "submitProposal",
      "outputs": [
        {
          "name": "proposalId",
          "type": "uint256"
        }
      ],
      "payable": false,
      "stateMutability": "nonpayable",
      "type": "function"
    },
    {
      "constant": false,
      "inputs": [
        {
          "name": "tokenToWhitelist",
          "type": "address"
        },
        {
          "name": "details",
          "type": "string"
        }
      ],
      "name": "submitWhitelistProposal",
      "outputs": [
        {
          "name": "proposalId",
          "type": "uint256"
        }
      ],
      "payable": false,
      "stateMutability": "nonpayable",
      "type": "function"
    },
    {
      "constant": false,
      "inputs": [
        {
          "name": "memberToKick",
          "type": "address"
        },
        {
          "name": "details",
          "type": "string"
        }
      ],
      "name": "submitGuildKickProposal",
      "outputs": [
        {
          "name": "proposalId",
          "type": "uint256"
        }
      ],
      "payable": false,
      "stateMutability": "nonpayable",
      "type": "function"
    },
    {
      "constant": false,
      "inputs": [
        {
          "name": "proposalId",
          "type": "uint256"
        }
      ],
      "name": "sponsorProposal",
      "outputs": [],
      "payable": false,
      "stateMutability": "nonpayable",
      "type": "function"
    },
    {
      "constant": false,
      "inputs": [
        {
          "name": "proposalIndex",
          "type": "uint256"
        },
        {
          "name": "uintVote",
          "type": "uint8"
        }
      ],
      "name": "submitVote",
      "outputs": [],
      "payable": false,
      "stateMutability": "nonpayable",
      "type": "function"
    },
    {
      "constant": false,
      "inputs": [
        {
          "name": "proposalIndex",
          "type": "uint256"
        }
      ],
      "name": "processProposal",
      "outputs": [],
      "payable": false,
      "stateMutability": "nonpayable",
      "type": "function"
    },
    {
      "constant": false,
      "inputs": [
        {
          "name": "proposalIndex",
          "type": "uint256"
        }
      ],
      "name": "processWhitelistProposal",
      "outputs": [],
      "payable": false,
      "stateMutability": "nonpayable",
      "type": "function"
    },
    {
      "constant": false,
      "inputs": [
        {
          "name": "proposalIndex",
          "type": "uint256"
        }
      ],
      "name": "processGuildKickProposal",
      "outputs": [],
      "payable": false,
      "stateMutability": "nonpayable",
      "type": "function"
    },
    {
      "constant": false,
      "inputs": [
        {
          "name": "sharesToBurn",
          "type": "uint256"
        },
        {
          "name": "lootToBurn",
          "type": "uint256"
        }
      ],
      "name": "ragequit",
      "outputs": [],
      "payable": false,
      "stateMutability": "nonpayable",
      "type": "function"
    },
    {
      "constant": false,
      "inputs": [
        {
          "name": "sharesToBurn",
          "type": "uint256"
        },
        {
          "name": "lootToBurn",
          "type": "uint256"
        },
        {
          "name": "tokenList",
          "type": "address[]"
        }
      ],
      "name": "safeRagequit",
      "outputs": [],
      "payable": false,
      "stateMutability": "nonpayable",
      "type": "function"
    },
    {
      "constant": false,
      "inputs": [
        {
          "name": "memberToKick",
          "type": "address"
        }
      ],
      "name": "ragekick",
      "outputs": [],
      "payable": false,
      "stateMutability": "nonpayable",
      "type": "function"
    },
    {
      "constant": false,
      "inputs": [
        {
          "name": "memberToBail",
          "type": "address"
        }
      ],
      "name": "bailout",
      "outputs": [],
      "payable": false,
      "stateMutability": "nonpayable",
      "type": "function"
    },
    {
      "constant": false,
      "inputs": [
        {
          "name": "proposalId",
          "type": "uint256"
        }
      ],
      "name": "cancelProposal",
      "outputs": [],
      "payable": false,
      "stateMutability": "nonpayable",
      "type": "function"
    },
    {
      "constant": false,
      "inputs": [
        {
          "name": "newDelegateKey",
          "type": "address"
        }
      ],
      "name": "updateDelegateKey",
      "outputs": [],
      "payable": false,
      "stateMutability": "nonpayable",
      "type": "function"
    },
    {
      "constant": true,
      "inputs": [],
      "name": "getCurrentPeriod",
      "outputs": [
        {
          "name": "",
          "type": "uint256"
        }
      ],
      "payable": false,
      "stateMutability": "view",
      "type": "function"
    },
    {
      "constant": true,
      "inputs": [],
      "name": "getProposalQueueLength",
      "outputs": [
        {
          "name": "",
          "type": "uint256"
        }
      ],
      "payable": false,
      "stateMutability": "view",
      "type": "function"
    },
    {
      "constant": true,
      "inputs": [
        {
          "name": "proposalId",
          "type": "uint256"
        }
      ],
      "name": "getProposalFlags",
      "outputs": [
        {
          "name": "",
          "type": "bool[6]"
        }
      ],
      "payable": false,
      "stateMutability": "view",
      "type": "function"
    },
    {
      "constant": true,
      "inputs": [
        {
          "name": "highestIndexYesVote",
          "type": "uint256"
        }
      ],
      "name": "canRagequit",
      "outputs": [
        {
          "name": "",
          "type": "bool"
        }
      ],
      "payable": false,
      "stateMutability": "view",
      "type": "function"
    },
    {
      "constant": true,
      "inputs": [
        {
          "name": "memberToBail",
          "type": "address"
        }
      ],
      "name": "canBailout",
      "outputs": [
        {
          "name": "",
          "type": "bool"
        }
      ],
      "payable": false,
      "stateMutability": "view",
      "type": "function"
    },
    {
      "constant": true,
      "inputs": [
        {
          "name": "startingPeriod",
          "type": "uint256"
        }
      ],
      "name": "hasVotingPeriodExpired",
      "outputs": [
        {
          "name": "",
          "type": "bool"
        }
      ],
      "payable": false,
      "stateMutability": "view",
      "type": "function"
    },
    {
      "constant": true,
      "inputs": [
        {
          "name": "memberAddress",
          "type": "address"
        },
        {
          "name": "proposalIndex",
          "type": "uint256"
        }
      ],
      "name": "getMemberProposalVote",
      "outputs": [
        {
          "name": "",
          "type": "uint8"
        }
      ],
      "payable": false,
      "stateMutability": "view",
      "type": "function"
    }
  ],
  "bytecode": "0x60806040526000600c556000600d556000600e556000600f60006101000a81548160ff02191690831515021790555060006010553480156200004057600080fd5b5060405162009e3338038062009e3383398101806040526101408110156200006757600080fd5b810190808051906020019092919080516401000000008111156200008a57600080fd5b82810190506020810184811115620000a157600080fd5b8151856020820283011164010000000082111715620000bf57600080fd5b5050929190602001805190602001909291908051906020019092919080519060200190929190805190602001909291908051906020019092919080519060200190929190805190602001909291908051906020019092919050505060016000806101000a81548160ff021916908315150217905550600073ffffffffffffffffffffffffffffffffffffffff168a73ffffffffffffffffffffffffffffffffffffffff161415620001d8576040517f08c379a00000000000000000000000000000000000000000000000000000000081526004018080602001828103825260148152602001807f73756d6d6f6e65722063616e6e6f74206265203000000000000000000000000081525060200191505060405180910390fd5b600088116200024f576040517f08c379a000000000000000000000000000000000000000000000000000000000815260040180806020018281038252601b8152602001807f5f706572696f644475726174696f6e2063616e6e6f742062652030000000000081525060200191505060405180910390fd5b60008711620002c6576040517f08c379a000000000000000000000000000000000000000000000000000000000815260040180806020018281038252601f8152602001807f5f766f74696e67506572696f644c656e6774682063616e6e6f7420626520300081525060200191505060405180910390fd5b670de0b6b3a764000087111562000329576040517f08c379a000000000000000000000000000000000000000000000000000000000815260040180806020018281038252602181526020018062009d7b6021913960400191505060405180910390fd5b670de0b6b3a7640000861115620003a8576040517f08c379a00000000000000000000000000000000000000000000000000000000081526004018080602001828103825260208152602001807f5f6772616365506572696f644c656e6774682065786365656473206c696d697481525060200191505060405180910390fd5b6000851162000403576040517f08c379a000000000000000000000000000000000000000000000000000000000815260040180806020018281038252602481526020018062009dd66024913960400191505060405180910390fd5b8484116200045d576040517f08c379a000000000000000000000000000000000000000000000000000000000815260040180806020018281038252603a81526020018062009d9c603a913960400191505060405180910390fd5b670de0b6b3a7640000841115620004dc576040517f08c379a000000000000000000000000000000000000000000000000000000000815260040180806020018281038252601a8152602001807f5f6261696c6f7574576169742065786365656473206c696d697400000000000081525060200191505060405180910390fd5b6000821162000553576040517f08c379a000000000000000000000000000000000000000000000000000000000815260040180806020018281038252601a8152602001807f5f64696c7574696f6e426f756e642063616e6e6f74206265203000000000000081525060200191505060405180910390fd5b670de0b6b3a7640000821115620005d2576040517f08c379a000000000000000000000000000000000000000000000000000000000815260040180806020018281038252601c8152602001807f5f64696c7574696f6e426f756e642065786365656473206c696d69740000000081525060200191505060405180910390fd5b60008951116200064a576040517f08c379a00000000000000000000000000000000000000000000000000000000081526004018080602001828103825260208152602001807f6e656564206174206c65617374206f6e6520617070726f76656420746f6b656e81525060200191505060405180910390fd5b80831015620006a5576040517f08c379a000000000000000000000000000000000000000000000000000000000815260040180806020018281038252603981526020018062009dfa6039913960400191505060405180910390fd5b89600060016101000a81548173ffffffffffffffffffffffffffffffffffffffff021916908373ffffffffffffffffffffffffffffffffffffffff16021790555088600081518110620006f457fe5b6020026020010151600a60006101000a81548173ffffffffffffffffffffffffffffffffffffffff021916908373ffffffffffffffffffffffffffffffffffffffff16021790555060008090505b8951811015620009cd57600073ffffffffffffffffffffffffffffffffffffffff168a82815181106200077157fe5b602002602001015173ffffffffffffffffffffffffffffffffffffffff16141562000804576040517f08c379a000000000000000000000000000000000000000000000000000000000815260040180806020018281038252601a8152602001807f5f617070726f766564546f6b656e2063616e6e6f74206265203000000000000081525060200191505060405180910390fd5b601160008b83815181106200081557fe5b602002602001015173ffffffffffffffffffffffffffffffffffffffff1673ffffffffffffffffffffffffffffffffffffffff16815260200190815260200160002060009054906101000a900460ff1615620008d9576040517f08c379a00000000000000000000000000000000000000000000000000000000081526004018080602001828103825260188152602001807f6475706c696361746520617070726f76656420746f6b656e000000000000000081525060200191505060405180910390fd5b6001601160008c8481518110620008ec57fe5b602002602001015173ffffffffffffffffffffffffffffffffffffffff1673ffffffffffffffffffffffffffffffffffffffff16815260200190815260200160002060006101000a81548160ff02191690831515021790555060128a82815181106200095457fe5b602002602001015190806001815401808255809150509060018203906000526020600020016000909192909190916101000a81548173ffffffffffffffffffffffffffffffffffffffff021916908373ffffffffffffffffffffffffffffffffffffffff16021790555050808060010191505062000742565b50604051620009dc9062000d21565b604051809103906000f080158015620009f9573d6000803e3d6000fd5b50600b60006101000a81548173ffffffffffffffffffffffffffffffffffffffff021916908373ffffffffffffffffffffffffffffffffffffffff1602179055508760018190555086600281905550856003819055508460048190555083600581905550826006819055508160078190555080600881905550426009819055506040518060c00160405280600060019054906101000a900473ffffffffffffffffffffffffffffffffffffffff1673ffffffffffffffffffffffffffffffffffffffff1681526020016001815260200160008152602001600115158152602001600081526020016000815250601560008060019054906101000a900473ffffffffffffffffffffffffffffffffffffffff1673ffffffffffffffffffffffffffffffffffffffff1673ffffffffffffffffffffffffffffffffffffffff16815260200190815260200160002060008201518160000160006101000a81548173ffffffffffffffffffffffffffffffffffffffff021916908373ffffffffffffffffffffffffffffffffffffffff160217905550602082015181600101556040820151816002015560608201518160030160006101000a81548160ff0219169083151502179055506080820151816004015560a08201518160050155905050600060019054906101000a900473ffffffffffffffffffffffffffffffffffffffff16601660008060019054906101000a900473ffffffffffffffffffffffffffffffffffffffff1673ffffffffffffffffffffffffffffffffffffffff1673ffffffffffffffffffffffffffffffffffffffff16815260200190815260200160002060006101000a81548173ffffffffffffffffffffffffffffffffffffffff021916908373ffffffffffffffffffffffffffffffffffffffff1602179055506001600d81905550600060019054906101000a900473ffffffffffffffffffffffffffffffffffffffff1673ffffffffffffffffffffffffffffffffffffffff167f03995a801b13c36325306deef859ef977ce61c6e15a794281bf969d20482522760016040518082815260200191505060405180910390a25050505050505050505062000d2f565b61076c806200960f83390190565b6188d08062000d3f6000396000f3fe608060405234801561001057600080fd5b506004361061028a5760003560e01c80638340bbce1161015c578063b2643aab116100ce578063e0a8f6f511610087578063e0a8f6f514610f6a578063e178034514610f98578063e1a0e3fa14610ff4578063e63bc62d14611022578063ec51b0bf14611050578063feb7ea1d1461111c5761028a565b8063b2643aab14610dec578063b470aade14610e56578063c89039c514610e74578063da35c66414610ebe578063dacaa9d114610edc578063dfdd369e14610f265761028a565b806397a498b11161012057806397a498b114610cc757806399653fbe14610ce5578063a3dc380014610d20578063a42afd2914610d66578063a44a5e7e14610db0578063afe5475f14610dce5761028a565b80638340bbce14610bd35780638b15a60514610bf15780639425a47614610c0f5780639431790814610c555780639746d94014610c995761028a565b80633793ab3c11610200578063590f940b116101b9578063590f940b146109a7578063635e99aa14610aff57806363858f2d14610b1d578063753d756314610b3b578063797daf7014610b975780637d5b6c7214610bb55761028a565b80633793ab3c146108175780633a98ef39146108455780633b214a74146108635780633fc24bba146108a5578063402c179414610901578063505afd74146109855761028a565b8063115b2d1811610252578063115b2d18146105c457806313d90cc4146106b357806315eb349e1461070f5780631dafede0146107475780631e2362ec146107b55780632582bf2a146107d35761028a565b8063013cf08b1461028f57806303e32fa11461046d578063044a0ca81461048b578063086146d2146104fb57806308ae4b0c14610519575b600080fd5b6102bb600480360360208110156102a557600080fd5b810190808035906020019092919050505061120b565b604051808f73ffffffffffffffffffffffffffffffffffffffff1673ffffffffffffffffffffffffffffffffffffffff1681526020018e73ffffffffffffffffffffffffffffffffffffffff1673ffffffffffffffffffffffffffffffffffffffff1681526020018d73ffffffffffffffffffffffffffffffffffffffff1673ffffffffffffffffffffffffffffffffffffffff1681526020018c81526020018b81526020018a81526020018973ffffffffffffffffffffffffffffffffffffffff1673ffffffffffffffffffffffffffffffffffffffff1681526020018881526020018773ffffffffffffffffffffffffffffffffffffffff1673ffffffffffffffffffffffffffffffffffffffff16815260200186815260200185815260200184815260200180602001838152602001828103825284818151815260200191508051906020019080838360005b8381101561042557808201518184015260208101905061040a565b50505050905090810190601f1680156104525780820380516001836020036101000a031916815260200191505b509f5050505050505050505050505050505060405180910390f35b6104756113af565b6040518082815260200191505060405180910390f35b6104d7600480360360408110156104a157600080fd5b81019080803573ffffffffffffffffffffffffffffffffffffffff169060200190929190803590602001909291905050506113b5565b604051808260028111156104e757fe5b60ff16815260200191505060405180910390f35b610503611573565b6040518082815260200191505060405180910390f35b61055b6004803603602081101561052f57600080fd5b81019080803573ffffffffffffffffffffffffffffffffffffffff1690602001909291905050506115a3565b604051808773ffffffffffffffffffffffffffffffffffffffff1673ffffffffffffffffffffffffffffffffffffffff16815260200186815260200185815260200184151515158152602001838152602001828152602001965050505050505060405180910390f35b61069d600480360360408110156105da57600080fd5b81019080803573ffffffffffffffffffffffffffffffffffffffff1690602001909291908035906020019064010000000081111561061757600080fd5b82018360208201111561062957600080fd5b8035906020019184600183028401116401000000008311171561064b57600080fd5b91908080601f016020809104026020016040519081016040528093929190818152602001838380828437600081840152601f19601f82011690508083019250505050505050919291929050505061160c565b6040518082815260200191505060405180910390f35b6106f5600480360360208110156106c957600080fd5b81019080803573ffffffffffffffffffffffffffffffffffffffff1690602001909291905050506119c5565b604051808215151515815260200191505060405180910390f35b6107456004803603604081101561072557600080fd5b810190808035906020019092919080359060200190929190505050611b81565b005b6107736004803603602081101561075d57600080fd5b8101908080359060200190929190505050611dd1565b604051808273ffffffffffffffffffffffffffffffffffffffff1673ffffffffffffffffffffffffffffffffffffffff16815260200191505060405180910390f35b6107bd611e0d565b6040518082815260200191505060405180910390f35b610815600480360360208110156107e957600080fd5b81019080803573ffffffffffffffffffffffffffffffffffffffff169060200190929190505050611e13565b005b6108436004803603602081101561082d57600080fd5b8101908080359060200190929190505050612427565b005b61084d612819565b6040518082815260200191505060405180910390f35b61088f6004803603602081101561087957600080fd5b810190808035906020019092919050505061281f565b6040518082815260200191505060405180910390f35b6108e7600480360360208110156108bb57600080fd5b81019080803573ffffffffffffffffffffffffffffffffffffffff169060200190929190505050612840565b604051808215151515815260200191505060405180910390f35b6109436004803603602081101561091757600080fd5b81019080803573ffffffffffffffffffffffffffffffffffffffff169060200190929190505050612860565b604051808273ffffffffffffffffffffffffffffffffffffffff1673ffffffffffffffffffffffffffffffffffffffff16815260200191505060405180910390f35b61098d612893565b604051808215151515815260200191505060405180910390f35b610ae960048036036101008110156109be57600080fd5b81019080803573ffffffffffffffffffffffffffffffffffffffff169060200190929190803590602001909291908035906020019092919080359060200190929190803573ffffffffffffffffffffffffffffffffffffffff16906020019092919080359060200190929190803573ffffffffffffffffffffffffffffffffffffffff16906020019092919080359060200190640100000000811115610a6357600080fd5b820183602082011115610a7557600080fd5b80359060200191846001830284011164010000000083111715610a9757600080fd5b91908080601f016020809104026020016040519081016040528093929190818152602001838380828437600081840152601f19601f8201169050808301925050505050505091929192905050506128a6565b6040518082815260200191505060405180910390f35b610b07612e3f565b6040518082815260200191505060405180910390f35b610b25612e45565b6040518082815260200191505060405180910390f35b610b7d60048036036020811015610b5157600080fd5b81019080803573ffffffffffffffffffffffffffffffffffffffff169060200190929190505050612e4b565b604051808215151515815260200191505060405180910390f35b610b9f612e6b565b6040518082815260200191505060405180910390f35b610bbd612e78565b6040518082815260200191505060405180910390f35b610bdb612e7e565b6040518082815260200191505060405180910390f35b610bf9612e84565b6040518082815260200191505060405180910390f35b610c3b60048036036020811015610c2557600080fd5b8101908080359060200190929190505050612e8a565b604051808215151515815260200191505060405180910390f35b610c9760048036036020811015610c6b57600080fd5b81019080803573ffffffffffffffffffffffffffffffffffffffff169060200190929190505050612eb2565b005b610cc560048036036020811015610caf57600080fd5b8101908080359060200190929190505050613209565b005b610ccf613dfc565b6040518082815260200191505060405180910390f35b610d1e60048036036040811015610cfb57600080fd5b8101908080359060200190929190803560ff169060200190929190505050613e02565b005b610d4c60048036036020811015610d3657600080fd5b81019080803590602001909291905050506145cb565b604051808215151515815260200191505060405180910390f35b610d6e61469d565b604051808273ffffffffffffffffffffffffffffffffffffffff1673ffffffffffffffffffffffffffffffffffffffff16815260200191505060405180910390f35b610db86146c3565b6040518082815260200191505060405180910390f35b610dd66146c9565b6040518082815260200191505060405180910390f35b610e1860048036036020811015610e0257600080fd5b81019080803590602001909291905050506146cf565b6040518082600660200280838360005b83811015610e43578082015181840152602081019050610e28565b5050505090500191505060405180910390f35b610e5e614755565b6040518082815260200191505060405180910390f35b610e7c61475b565b604051808273ffffffffffffffffffffffffffffffffffffffff1673ffffffffffffffffffffffffffffffffffffffff16815260200191505060405180910390f35b610ec6614781565b6040518082815260200191505060405180910390f35b610ee4614787565b604051808273ffffffffffffffffffffffffffffffffffffffff1673ffffffffffffffffffffffffffffffffffffffff16815260200191505060405180910390f35b610f6860048036036020811015610f3c57600080fd5b81019080803573ffffffffffffffffffffffffffffffffffffffff1690602001909291905050506147ad565b005b610f9660048036036020811015610f8057600080fd5b8101908080359060200190929190505050614af6565b005b610fda60048036036020811015610fae57600080fd5b81019080803573ffffffffffffffffffffffffffffffffffffffff169060200190929190505050614f7b565b604051808215151515815260200191505060405180910390f35b6110206004803603602081101561100a57600080fd5b8101908080359060200190929190505050614f9b565b005b61104e6004803603602081101561103857600080fd5b8101908080359060200190929190505050615363565b005b61111a6004803603606081101561106657600080fd5b8101908080359060200190929190803590602001909291908035906020019064010000000081111561109757600080fd5b8201836020820111156110a957600080fd5b803590602001918460208302840111640100000000831117156110cb57600080fd5b919080806020026020016040519081016040528093929190818152602001838360200280828437600081840152601f19601f820116905080830192505050505050509192919290505050616375565b005b6111f56004803603604081101561113257600080fd5b81019080803573ffffffffffffffffffffffffffffffffffffffff1690602001909291908035906020019064010000000081111561116f57600080fd5b82018360208201111561118157600080fd5b803590602001918460018302840111640100000000831117156111a357600080fd5b91908080601f016020809104026020016040519081016040528093929190818152602001838380828437600081840152601f19601f8201169050808301925050505050505091929192905050506166e6565b6040518082815260200191505060405180910390f35b60176020528060005260406000206000915090508060000160009054906101000a900473ffffffffffffffffffffffffffffffffffffffff16908060010160009054906101000a900473ffffffffffffffffffffffffffffffffffffffff16908060020160009054906101000a900473ffffffffffffffffffffffffffffffffffffffff16908060030154908060040154908060050154908060060160009054906101000a900473ffffffffffffffffffffffffffffffffffffffff16908060070154908060080160009054906101000a900473ffffffffffffffffffffffffffffffffffffffff169080600901549080600a01549080600b01549080600d018054600181600116156101000203166002900480601f01602080910402602001604051908101604052809291908181526020018280546001816001161561010002031660029004801561139f5780601f106113745761010080835404028352916020019161139f565b820191906000526020600020905b81548152906001019060200180831161138257829003601f168201915b50505050509080600e015490508e565b60085481565b6000601560008473ffffffffffffffffffffffffffffffffffffffff1673ffffffffffffffffffffffffffffffffffffffff16815260200190815260200160002060030160009054906101000a900460ff16611479576040517f08c379a00000000000000000000000000000000000000000000000000000000081526004018080602001828103825260158152602001807f6d656d62657220646f6573206e6f74206578697374000000000000000000000081525060200191505060405180910390fd5b60188054905082106114f3576040517f08c379a00000000000000000000000000000000000000000000000000000000081526004018080602001828103825260178152602001807f70726f706f73616c20646f6573206e6f7420657869737400000000000000000081525060200191505060405180910390fd5b601760006018848154811061150457fe5b90600052602060002001548152602001908152602001600020600f0160008473ffffffffffffffffffffffffffffffffffffffff1673ffffffffffffffffffffffffffffffffffffffff16815260200190815260200160002060009054906101000a900460ff16905092915050565b600061159e6001546115906009544261692c90919063ffffffff16565b61697690919063ffffffff16565b905090565b60156020528060005260406000206000915090508060000160009054906101000a900473ffffffffffffffffffffffffffffffffffffffff16908060010154908060020154908060030160009054906101000a900460ff16908060040154908060050154905086565b60008060009054906101000a900460ff1661168f576040517f08c379a000000000000000000000000000000000000000000000000000000000815260040180806020018281038252601f8152602001807f5265656e7472616e637947756172643a207265656e7472616e742063616c6c0081525060200191505060405180910390fd5b60008060006101000a81548160ff0219169083151502179055506116b16181fe565b601560008573ffffffffffffffffffffffffffffffffffffffff1673ffffffffffffffffffffffffffffffffffffffff1681526020019081526020016000206040518060c00160405290816000820160009054906101000a900473ffffffffffffffffffffffffffffffffffffffff1673ffffffffffffffffffffffffffffffffffffffff1673ffffffffffffffffffffffffffffffffffffffff16815260200160018201548152602001600282015481526020016003820160009054906101000a900460ff161515151581526020016004820154815260200160058201548152505090506000816020015111806117ad575060008160400151115b611802576040517f08c379a000000000000000000000000000000000000000000000000000000000815260040180806020018281038252602f81526020018061863e602f913960400191505060405180910390fd5b600060019054906101000a900473ffffffffffffffffffffffffffffffffffffffff1673ffffffffffffffffffffffffffffffffffffffff168473ffffffffffffffffffffffffffffffffffffffff1614156118c6576040517f08c379a000000000000000000000000000000000000000000000000000000000815260040180806020018281038252601e8152602001807f7468652073756d6d6f6e6572206d6179206e6f74206265206b69636b6564000081525060200191505060405180910390fd5b6000601560008673ffffffffffffffffffffffffffffffffffffffff1673ffffffffffffffffffffffffffffffffffffffff1681526020019081526020016000206005015414611961576040517f08c379a00000000000000000000000000000000000000000000000000000000081526004018080602001828103825260218152602001806185d66021913960400191505060405180910390fd5b61196961824c565b60018160056006811061197857fe5b60200201901515908115158152505061199b856000806000806000808b896169c0565b6001600c54039250505060016000806101000a81548160ff02191690831515021790555092915050565b60006119cf6181fe565b601560008473ffffffffffffffffffffffffffffffffffffffff1673ffffffffffffffffffffffffffffffffffffffff1681526020019081526020016000206040518060c00160405290816000820160009054906101000a900473ffffffffffffffffffffffffffffffffffffffff1673ffffffffffffffffffffffffffffffffffffffff1673ffffffffffffffffffffffffffffffffffffffff16815260200160018201548152602001600282015481526020016003820160009054906101000a900460ff1615151515815260200160048201548152602001600582015481525050905060008160a00151826080015111611afc576017600060188460a0015181548110611ada57fe5b9060005260206000200154815260200190815260200160002060090154611b2f565b601760006018846080015181548110611b1157fe5b90600052602060002001548152602001908152602001600020600901545b9050611b6e600554611b60600354611b5260025486616e3190919063ffffffff16565b616e3190919063ffffffff16565b616e3190919063ffffffff16565b611b76611573565b101592505050919050565b6000809054906101000a900460ff16611c02576040517f08c379a000000000000000000000000000000000000000000000000000000000815260040180806020018281038252601f8152602001807f5265656e7472616e637947756172643a207265656e7472616e742063616c6c0081525060200191505060405180910390fd5b60008060006101000a81548160ff0219169083151502179055506000601560003373ffffffffffffffffffffffffffffffffffffffff1673ffffffffffffffffffffffffffffffffffffffff168152602001908152602001600020600101541180611caf57506000601560003373ffffffffffffffffffffffffffffffffffffffff1673ffffffffffffffffffffffffffffffffffffffff16815260200190815260200160002060020154115b611d21576040517f08c379a000000000000000000000000000000000000000000000000000000000815260040180806020018281038252600c8152602001807f6e6f742061206d656d626572000000000000000000000000000000000000000081525060200191505060405180910390fd5b611db33383836012805480602002602001604051908101604052809291908181526020018280548015611da957602002820191906000526020600020905b8160009054906101000a900473ffffffffffffffffffffffffffffffffffffffff1673ffffffffffffffffffffffffffffffffffffffff1681526020019060010190808311611d5f575b5050505050616eb9565b60016000806101000a81548160ff0219169083151502179055505050565b60128181548110611dde57fe5b906000526020600020016000915054906101000a900473ffffffffffffffffffffffffffffffffffffffff1681565b60045481565b6000809054906101000a900460ff16611e94576040517f08c379a000000000000000000000000000000000000000000000000000000000815260040180806020018281038252601f8152602001807f5265656e7472616e637947756172643a207265656e7472616e742063616c6c0081525060200191505060405180910390fd5b60008060006101000a81548160ff0219169083151502179055506000601560003373ffffffffffffffffffffffffffffffffffffffff1673ffffffffffffffffffffffffffffffffffffffff1681526020019081526020016000206001015411611f66576040517f08c379a00000000000000000000000000000000000000000000000000000000081526004018080602001828103825260118152602001807f6e6f742061207368617265686f6c64657200000000000000000000000000000081525060200191505060405180910390fd5b600073ffffffffffffffffffffffffffffffffffffffff168173ffffffffffffffffffffffffffffffffffffffff161415612009576040517f08c379a000000000000000000000000000000000000000000000000000000000815260040180806020018281038252601a8152602001807f6e657744656c65676174654b65792063616e6e6f74206265203000000000000081525060200191505060405180910390fd5b3373ffffffffffffffffffffffffffffffffffffffff168173ffffffffffffffffffffffffffffffffffffffff16146121e857601560008273ffffffffffffffffffffffffffffffffffffffff1673ffffffffffffffffffffffffffffffffffffffff16815260200190815260200160002060030160009054906101000a900460ff16156120e2576040517f08c379a00000000000000000000000000000000000000000000000000000000081526004018080602001828103825260218152602001806187306021913960400191505060405180910390fd5b60156000601660008473ffffffffffffffffffffffffffffffffffffffff1673ffffffffffffffffffffffffffffffffffffffff16815260200190815260200160002060009054906101000a900473ffffffffffffffffffffffffffffffffffffffff1673ffffffffffffffffffffffffffffffffffffffff1673ffffffffffffffffffffffffffffffffffffffff16815260200190815260200160002060030160009054906101000a900460ff16156121e7576040517f08c379a00000000000000000000000000000000000000000000000000000000081526004018080602001828103825260278152602001806184e96027913960400191505060405180910390fd5b5b6000601560003373ffffffffffffffffffffffffffffffffffffffff1673ffffffffffffffffffffffffffffffffffffffff16815260200190815260200160002090506000601660008360000160009054906101000a900473ffffffffffffffffffffffffffffffffffffffff1673ffffffffffffffffffffffffffffffffffffffff1673ffffffffffffffffffffffffffffffffffffffff16815260200190815260200160002060006101000a81548173ffffffffffffffffffffffffffffffffffffffff021916908373ffffffffffffffffffffffffffffffffffffffff16021790555033601660008473ffffffffffffffffffffffffffffffffffffffff1673ffffffffffffffffffffffffffffffffffffffff16815260200190815260200160002060006101000a81548173ffffffffffffffffffffffffffffffffffffffff021916908373ffffffffffffffffffffffffffffffffffffffff160217905550818160000160006101000a81548173ffffffffffffffffffffffffffffffffffffffff021916908373ffffffffffffffffffffffffffffffffffffffff1602179055503373ffffffffffffffffffffffffffffffffffffffff167fde7b64a369e10562cc2e71f0f1f944eaf144b75fead6ecb51fac9c4dd693488583604051808273ffffffffffffffffffffffffffffffffffffffff1673ffffffffffffffffffffffffffffffffffffffff16815260200191505060405180910390a25060016000806101000a81548160ff02191690831515021790555050565b6000809054906101000a900460ff166124a8576040517f08c379a000000000000000000000000000000000000000000000000000000000815260040180806020018281038252601f8152602001807f5265656e7472616e637947756172643a207265656e7472616e742063616c6c0081525060200191505060405180910390fd5b60008060006101000a81548160ff0219169083151502179055506124cb816172e1565b6000601882815481106124da57fe5b90600052602060002001549050600060176000838152602001908152602001600020905080600c0160046006811061250e57fe5b602091828204019190069054906101000a900460ff16612596576040517f08c379a000000000000000000000000000000000000000000000000000000000815260040180806020018281038252601c8152602001807f6d75737420626520612077686974656c6973742070726f706f73616c0000000081525060200191505060405180910390fd5b600181600c016001600681106125a857fe5b602091828204019190066101000a81548160ff02191690831515021790555060006125d28461786b565b509050801561271357600182600c016002600681106125ed57fe5b602091828204019190066101000a81548160ff0219169083151502179055506001601160008460060160009054906101000a900473ffffffffffffffffffffffffffffffffffffffff1673ffffffffffffffffffffffffffffffffffffffff1673ffffffffffffffffffffffffffffffffffffffff16815260200190815260200160002060006101000a81548160ff02191690831515021790555060128260060160009054906101000a900473ffffffffffffffffffffffffffffffffffffffff1690806001815401808255809150509060018203906000526020600020016000909192909190916101000a81548173ffffffffffffffffffffffffffffffffffffffff021916908373ffffffffffffffffffffffffffffffffffffffff160217905550505b6000601360008460060160009054906101000a900473ffffffffffffffffffffffffffffffffffffffff1673ffffffffffffffffffffffffffffffffffffffff1673ffffffffffffffffffffffffffffffffffffffff16815260200190815260200160002060006101000a81548160ff0219169083151502179055506127bc8260020160009054906101000a900473ffffffffffffffffffffffffffffffffffffffff16617d4b565b82847f86f74240ecee9e4230d26ff92e17fee978460d9c0f78f5c88b2864c9e7a4942783604051808215151515815260200191505060405180910390a350505060016000806101000a81548160ff02191690831515021790555050565b600d5481565b6018818154811061282c57fe5b906000526020600020016000915090505481565b60146020528060005260406000206000915054906101000a900460ff1681565b60166020528060005260406000206000915054906101000a900473ffffffffffffffffffffffffffffffffffffffff1681565b600f60009054906101000a900460ff1681565b60008060009054906101000a900460ff16612929576040517f08c379a000000000000000000000000000000000000000000000000000000000815260040180806020018281038252601f8152602001807f5265656e7472616e637947756172643a207265656e7472616e742063616c6c0081525060200191505060405180910390fd5b60008060006101000a81548160ff021916908315150217905550670de0b6b3a764000061295f888a616e3190919063ffffffff16565b11156129d3576040517f08c379a00000000000000000000000000000000000000000000000000000000081526004018080602001828103825260198152602001807f746f6f206d616e7920736861726573207265717565737465640000000000000081525060200191505060405180910390fd5b601160008673ffffffffffffffffffffffffffffffffffffffff1673ffffffffffffffffffffffffffffffffffffffff16815260200190815260200160002060009054906101000a900460ff16612a92576040517f08c379a000000000000000000000000000000000000000000000000000000000815260040180806020018281038252601f8152602001807f74726962757465546f6b656e206973206e6f742077686974656c69737465640081525060200191505060405180910390fd5b601160008473ffffffffffffffffffffffffffffffffffffffff1673ffffffffffffffffffffffffffffffffffffffff16815260200190815260200160002060009054906101000a900460ff16612b51576040517f08c379a000000000000000000000000000000000000000000000000000000000815260040180806020018281038252601a8152602001807f7061796d656e74206973206e6f742077686974656c697374656400000000000081525060200191505060405180910390fd5b600073ffffffffffffffffffffffffffffffffffffffff168973ffffffffffffffffffffffffffffffffffffffff161415612bf4576040517f08c379a00000000000000000000000000000000000000000000000000000000081526004018080602001828103825260158152602001807f6170706c6963616e742063616e6e6f742062652030000000000000000000000081525060200191505060405180910390fd5b6000601560008b73ffffffffffffffffffffffffffffffffffffffff1673ffffffffffffffffffffffffffffffffffffffff1681526020019081526020016000206005015414612c8f576040517f08c379a00000000000000000000000000000000000000000000000000000000081526004018080602001828103825260258152602001806186976025913960400191505060405180910390fd5b8473ffffffffffffffffffffffffffffffffffffffff166323b872dd3330896040518463ffffffff1660e01b8152600401808473ffffffffffffffffffffffffffffffffffffffff1673ffffffffffffffffffffffffffffffffffffffff1681526020018373ffffffffffffffffffffffffffffffffffffffff1673ffffffffffffffffffffffffffffffffffffffff1681526020018281526020019350505050602060405180830381600087803b158015612d4a57600080fd5b505af1158015612d5e573d6000803e3d6000fd5b505050506040513d6020811015612d7457600080fd5b8101908080519060200190929190505050612df7576040517f08c379a000000000000000000000000000000000000000000000000000000000815260040180806020018281038252601d8152602001807f7472696275746520746f6b656e207472616e73666572206661696c656400000081525060200191505060405180910390fd5b612dff61824c565b612e108a8a8a8a8a8a8a8a896169c0565b6001600c540391505060016000806101000a81548160ff02191690831515021790555098975050505050505050565b600e5481565b60035481565b60116020528060005260406000206000915054906101000a900460ff1681565b6000601880549050905090565b60095481565b60025481565b60065481565b6000612ea160025483616e3190919063ffffffff16565b612ea9611573565b10159050919050565b6000809054906101000a900460ff16612f33576040517f08c379a000000000000000000000000000000000000000000000000000000000815260040180806020018281038252601f8152602001807f5265656e7472616e637947756172643a207265656e7472616e742063616c6c0081525060200191505060405180910390fd5b60008060006101000a81548160ff0219169083151502179055506000601560008373ffffffffffffffffffffffffffffffffffffffff1673ffffffffffffffffffffffffffffffffffffffff168152602001908152602001600020905060008160050154141561300b576040517f08c379a00000000000000000000000000000000000000000000000000000000081526004018080602001828103825260168152602001807f6d656d626572206d75737420626520696e206a61696c0000000000000000000081525060200191505060405180910390fd5b6000816002015411613085576040517f08c379a000000000000000000000000000000000000000000000000000000000815260040180806020018281038252601a8152602001807f6d656d626572206d757374206861766520736f6d65206c6f6f7400000000000081525060200191505060405180910390fd5b61308e826119c5565b613100576040517f08c379a00000000000000000000000000000000000000000000000000000000081526004018080602001828103825260128152602001807f63616e6e6f74206261696c6f757420796574000000000000000000000000000081525060200191505060405180910390fd5b61317a8160020154601560008060019054906101000a900473ffffffffffffffffffffffffffffffffffffffff1673ffffffffffffffffffffffffffffffffffffffff1673ffffffffffffffffffffffffffffffffffffffff16815260200190815260200160002060020154616e3190919063ffffffff16565b601560008060019054906101000a900473ffffffffffffffffffffffffffffffffffffffff1673ffffffffffffffffffffffffffffffffffffffff1673ffffffffffffffffffffffffffffffffffffffff16815260200190815260200160002060020181905550600081600201819055505060016000806101000a81548160ff02191690831515021790555050565b6000809054906101000a900460ff1661328a576040517f08c379a000000000000000000000000000000000000000000000000000000000815260040180806020018281038252601f8152602001807f5265656e7472616e637947756172643a207265656e7472616e742063616c6c0081525060200191505060405180910390fd5b60008060006101000a81548160ff021916908315150217905550600060156000601660003373ffffffffffffffffffffffffffffffffffffffff1673ffffffffffffffffffffffffffffffffffffffff16815260200190815260200160002060009054906101000a900473ffffffffffffffffffffffffffffffffffffffff1673ffffffffffffffffffffffffffffffffffffffff1673ffffffffffffffffffffffffffffffffffffffff16815260200190815260200160002060010154116133bb576040517f08c379a000000000000000000000000000000000000000000000000000000000815260040180806020018281038252600e8152602001807f6e6f7420612064656c656761746500000000000000000000000000000000000081525060200191505060405180910390fd5b600a60009054906101000a900473ffffffffffffffffffffffffffffffffffffffff1673ffffffffffffffffffffffffffffffffffffffff166323b872dd33306006546040518463ffffffff1660e01b8152600401808473ffffffffffffffffffffffffffffffffffffffff1673ffffffffffffffffffffffffffffffffffffffff1681526020018373ffffffffffffffffffffffffffffffffffffffff1673ffffffffffffffffffffffffffffffffffffffff1681526020018281526020019350505050602060405180830381600087803b15801561349a57600080fd5b505af11580156134ae573d6000803e3d6000fd5b505050506040513d60208110156134c457600080fd5b810190808051906020019092919050505061352a576040517f08c379a000000000000000000000000000000000000000000000000000000000815260040180806020018281038252602681526020018061877d6026913960400191505060405180910390fd5b6000601760008381526020019081526020016000209050600073ffffffffffffffffffffffffffffffffffffffff168160010160009054906101000a900473ffffffffffffffffffffffffffffffffffffffff1673ffffffffffffffffffffffffffffffffffffffff161415613608576040517f08c379a00000000000000000000000000000000000000000000000000000000081526004018080602001828103825260208152602001807f70726f706f73616c206d7573742068617665206265656e2070726f706f73656481525060200191505060405180910390fd5b80600c0160006006811061361857fe5b602091828204019190069054906101000a900460ff1615613684576040517f08c379a00000000000000000000000000000000000000000000000000000000081526004018080602001828103825260238152602001806186bc6023913960400191505060405180910390fd5b80600c0160036006811061369457fe5b602091828204019190069054906101000a900460ff161561371d576040517f08c379a000000000000000000000000000000000000000000000000000000000815260040180806020018281038252601b8152602001807f70726f706f73616c20686173206265656e2063616e63656c6c6564000000000081525060200191505060405180910390fd5b6000601560008360000160009054906101000a900473ffffffffffffffffffffffffffffffffffffffff1673ffffffffffffffffffffffffffffffffffffffff1673ffffffffffffffffffffffffffffffffffffffff16815260200190815260200160002060050154146137dc576040517f08c379a00000000000000000000000000000000000000000000000000000000081526004018080602001828103825260258152602001806186976025913960400191505060405180910390fd5b80600c016004600681106137ec57fe5b602091828204019190069054906101000a900460ff1615613a3357601160008260060160009054906101000a900473ffffffffffffffffffffffffffffffffffffffff1673ffffffffffffffffffffffffffffffffffffffff1673ffffffffffffffffffffffffffffffffffffffff16815260200190815260200160002060009054906101000a900460ff16156138ce576040517f08c379a00000000000000000000000000000000000000000000000000000000081526004018080602001828103825260298152602001806188596029913960400191505060405180910390fd5b601360008260060160009054906101000a900473ffffffffffffffffffffffffffffffffffffffff1673ffffffffffffffffffffffffffffffffffffffff1673ffffffffffffffffffffffffffffffffffffffff16815260200190815260200160002060009054906101000a900460ff16156139b2576040517f08c379a000000000000000000000000000000000000000000000000000000000815260040180806020018281038252601d8152602001807f616c72656164792070726f706f73656420746f2077686974656c69737400000081525060200191505060405180910390fd5b6001601360008360060160009054906101000a900473ffffffffffffffffffffffffffffffffffffffff1673ffffffffffffffffffffffffffffffffffffffff1673ffffffffffffffffffffffffffffffffffffffff16815260200190815260200160002060006101000a81548160ff021916908315150217905550613bc0565b80600c01600560068110613a4357fe5b602091828204019190069054906101000a900460ff1615613bbf57601460008260000160009054906101000a900473ffffffffffffffffffffffffffffffffffffffff1673ffffffffffffffffffffffffffffffffffffffff1673ffffffffffffffffffffffffffffffffffffffff16815260200190815260200160002060009054906101000a900460ff1615613b42576040517f08c379a00000000000000000000000000000000000000000000000000000000081526004018080602001828103825260188152602001807f616c72656164792070726f706f73656420746f206b69636b000000000000000081525060200191505060405180910390fd5b6001601460008360000160009054906101000a900473ffffffffffffffffffffffffffffffffffffffff1673ffffffffffffffffffffffffffffffffffffffff1673ffffffffffffffffffffffffffffffffffffffff16815260200190815260200160002060006101000a81548160ff0219169083151502179055505b5b6000613c406001613c32613bd2611573565b600060188054905014613c2a57601760006018613bfe600160188054905061692c90919063ffffffff16565b81548110613c0857fe5b9060005260206000200154815260200190815260200160002060090154613c2d565b60005b617fd8565b616e3190919063ffffffff16565b90508082600901819055506000601660003373ffffffffffffffffffffffffffffffffffffffff1673ffffffffffffffffffffffffffffffffffffffff16815260200190815260200160002060009054906101000a900473ffffffffffffffffffffffffffffffffffffffff169050808360020160006101000a81548173ffffffffffffffffffffffffffffffffffffffff021916908373ffffffffffffffffffffffffffffffffffffffff160217905550600183600c01600060068110613d0457fe5b602091828204019190066101000a81548160ff02191690831515021790555060188490806001815401808255809150509060018203906000526020600020016000909192909190915055508073ffffffffffffffffffffffffffffffffffffffff163373ffffffffffffffffffffffffffffffffffffffff167f2a383a979381335e3eb401ac01dd8083e024ff0256bf5338456ffc0063390bbd86613db8600160188054905061692c90919063ffffffff16565b8660405180848152602001838152602001828152602001935050505060405180910390a350505060016000806101000a81548160ff02191690831515021790555050565b60055481565b6000809054906101000a900460ff16613e83576040517f08c379a000000000000000000000000000000000000000000000000000000000815260040180806020018281038252601f8152602001807f5265656e7472616e637947756172643a207265656e7472616e742063616c6c0081525060200191505060405180910390fd5b60008060006101000a81548160ff021916908315150217905550600060156000601660003373ffffffffffffffffffffffffffffffffffffffff1673ffffffffffffffffffffffffffffffffffffffff16815260200190815260200160002060009054906101000a900473ffffffffffffffffffffffffffffffffffffffff1673ffffffffffffffffffffffffffffffffffffffff1673ffffffffffffffffffffffffffffffffffffffff1681526020019081526020016000206001015411613fb4576040517f08c379a000000000000000000000000000000000000000000000000000000000815260040180806020018281038252600e8152602001807f6e6f7420612064656c656761746500000000000000000000000000000000000081525060200191505060405180910390fd5b6000601660003373ffffffffffffffffffffffffffffffffffffffff1673ffffffffffffffffffffffffffffffffffffffff16815260200190815260200160002060009054906101000a900473ffffffffffffffffffffffffffffffffffffffff1690506000601560008373ffffffffffffffffffffffffffffffffffffffff1673ffffffffffffffffffffffffffffffffffffffff168152602001908152602001600020905060188054905084106140d5576040517f08c379a00000000000000000000000000000000000000000000000000000000081526004018080602001828103825260178152602001807f70726f706f73616c20646f6573206e6f7420657869737400000000000000000081525060200191505060405180910390fd5b600060176000601887815481106140e857fe5b90600052602060002001548152602001908152602001600020905060038460ff161061417c576040517f08c379a00000000000000000000000000000000000000000000000000000000081526004018080602001828103825260138152602001807f6d757374206265206c657373207468616e20330000000000000000000000000081525060200191505060405180910390fd5b60008460ff16600281111561418d57fe5b9050816009015461419c611573565b1015614210576040517f08c379a000000000000000000000000000000000000000000000000000000000815260040180806020018281038252601d8152602001807f766f74696e6720706572696f6420686173206e6f74207374617274656400000081525060200191505060405180910390fd5b61421d8260090154612e8a565b15614273576040517f08c379a00000000000000000000000000000000000000000000000000000000081526004018080602001828103825260228152602001806187a36022913960400191505060405180910390fd5b6000600281111561428057fe5b82600f0160008673ffffffffffffffffffffffffffffffffffffffff1673ffffffffffffffffffffffffffffffffffffffff16815260200190815260200160002060009054906101000a900460ff1660028111156142da57fe5b1461434d576040517f08c379a00000000000000000000000000000000000000000000000000000000081526004018080602001828103825260188152602001807f6d656d6265722068617320616c726561647920766f746564000000000000000081525060200191505060405180910390fd5b6001600281111561435a57fe5b81600281111561436657fe5b1480614387575060028081111561437957fe5b81600281111561438557fe5b145b6143f9576040517f08c379a000000000000000000000000000000000000000000000000000000000815260040180806020018281038252601d8152602001807f766f7465206d7573742062652065697468657220596573206f72204e6f00000081525060200191505060405180910390fd5b8082600f0160008673ffffffffffffffffffffffffffffffffffffffff1673ffffffffffffffffffffffffffffffffffffffff16815260200190815260200160002060006101000a81548160ff0219169083600281111561445657fe5b02179055506001600281111561446857fe5b81600281111561447457fe5b14156144fa57614495836001015483600a0154616e3190919063ffffffff16565b82600a018190555082600401548611156144b3578583600401819055505b81600e01546144cf600e54600d54616e3190919063ffffffff16565b11156144f5576144ec600e54600d54616e3190919063ffffffff16565b82600e01819055505b61453d565b60028081111561450657fe5b81600281111561451257fe5b141561453c57614533836001015483600b0154616e3190919063ffffffff16565b82600b01819055505b5b8373ffffffffffffffffffffffffffffffffffffffff163373ffffffffffffffffffffffffffffffffffffffff16877f29bf0061f2faa9daa482f061b116195432d435536d8af4ae6b3c5dd78223679b88604051808260ff1660ff16815260200191505060405180910390a45050505060016000806101000a81548160ff0219169083151502179055505050565b60006018805490508210614647576040517f08c379a00000000000000000000000000000000000000000000000000000000081526004018080602001828103825260178152602001807f70726f706f73616c20646f6573206e6f7420657869737400000000000000000081525060200191505060405180910390fd5b601760006018848154811061465857fe5b90600052602060002001548152602001908152602001600020600c0160016006811061468057fe5b602091828204019190069054906101000a900460ff169050919050565b600b60009054906101000a900473ffffffffffffffffffffffffffffffffffffffff1681565b60105481565b60075481565b6146d761824c565b60176000838152602001908152602001600020600c01600680602002604051908101604052809291908260068015614749576020028201916000905b82829054906101000a900460ff161515815260200190600101906020826000010492830192600103820291508084116147135790505b50505050509050919050565b60015481565b600a60009054906101000a900473ffffffffffffffffffffffffffffffffffffffff1681565b600c5481565b600060019054906101000a900473ffffffffffffffffffffffffffffffffffffffff1681565b6000809054906101000a900460ff1661482e576040517f08c379a000000000000000000000000000000000000000000000000000000000815260040180806020018281038252601f8152602001807f5265656e7472616e637947756172643a207265656e7472616e742063616c6c0081525060200191505060405180910390fd5b60008060006101000a81548160ff0219169083151502179055506000601560008373ffffffffffffffffffffffffffffffffffffffff1673ffffffffffffffffffffffffffffffffffffffff1681526020019081526020016000209050600081600501541415614906576040517f08c379a00000000000000000000000000000000000000000000000000000000081526004018080602001828103825260168152602001807f6d656d626572206d75737420626520696e206a61696c0000000000000000000081525060200191505060405180910390fd5b6000816002015411614980576040517f08c379a000000000000000000000000000000000000000000000000000000000815260040180806020018281038252601a8152602001807f6d656d626572206d757374206861766520736f6d65206c6f6f7400000000000081525060200191505060405180910390fd5b61498d81600401546145cb565b6149e2576040517f08c379a000000000000000000000000000000000000000000000000000000000815260040180806020018281038252604d815260200180618541604d913960600191505060405180910390fd5b6149eb826119c5565b15614a41576040517f08c379a00000000000000000000000000000000000000000000000000000000081526004018080602001828103825260318152602001806185106031913960400191505060405180910390fd5b614ad882600083600201546012805480602002602001604051908101604052809291908181526020018280548015614ace57602002820191906000526020600020905b8160009054906101000a900473ffffffffffffffffffffffffffffffffffffffff1673ffffffffffffffffffffffffffffffffffffffff1681526020019060010190808311614a84575b5050505050616eb9565b5060016000806101000a81548160ff02191690831515021790555050565b6000809054906101000a900460ff16614b77576040517f08c379a000000000000000000000000000000000000000000000000000000000815260040180806020018281038252601f8152602001807f5265656e7472616e637947756172643a207265656e7472616e742063616c6c0081525060200191505060405180910390fd5b60008060006101000a81548160ff021916908315150217905550600060176000838152602001908152602001600020905080600c01600060068110614bb857fe5b602091828204019190069054906101000a900460ff1615614c24576040517f08c379a00000000000000000000000000000000000000000000000000000000081526004018080602001828103825260238152602001806186bc6023913960400191505060405180910390fd5b80600c01600360068110614c3457fe5b602091828204019190069054906101000a900460ff1615614ca0576040517f08c379a00000000000000000000000000000000000000000000000000000000081526004018080602001828103825260238152602001806188156023913960400191505060405180910390fd5b8060010160009054906101000a900473ffffffffffffffffffffffffffffffffffffffff1673ffffffffffffffffffffffffffffffffffffffff163373ffffffffffffffffffffffffffffffffffffffff1614614d65576040517f08c379a000000000000000000000000000000000000000000000000000000000815260040180806020018281038252601e8152602001807f736f6c656c79207468652070726f706f7365722063616e2063616e63656c000081525060200191505060405180910390fd5b600181600c01600360068110614d7757fe5b602091828204019190066101000a81548160ff0219169083151502179055508060060160009054906101000a900473ffffffffffffffffffffffffffffffffffffffff1673ffffffffffffffffffffffffffffffffffffffff1663a9059cbb8260010160009054906101000a900473ffffffffffffffffffffffffffffffffffffffff1683600501546040518363ffffffff1660e01b8152600401808373ffffffffffffffffffffffffffffffffffffffff1673ffffffffffffffffffffffffffffffffffffffff16815260200182815260200192505050602060405180830381600087803b158015614e6957600080fd5b505af1158015614e7d573d6000803e3d6000fd5b505050506040513d6020811015614e9357600080fd5b8101908080519060200190929190505050614ef9576040517f08c379a00000000000000000000000000000000000000000000000000000000081526004018080602001828103825260248152602001806185f76024913960400191505060405180910390fd5b817fc215fed6680bb02d323dc3f8b8f85241572607538426059c9232601bd293c3be33604051808273ffffffffffffffffffffffffffffffffffffffff1673ffffffffffffffffffffffffffffffffffffffff16815260200191505060405180910390a25060016000806101000a81548160ff02191690831515021790555050565b60136020528060005260406000206000915054906101000a900460ff1681565b6000809054906101000a900460ff1661501c576040517f08c379a000000000000000000000000000000000000000000000000000000000815260040180806020018281038252601f8152602001807f5265656e7472616e637947756172643a207265656e7472616e742063616c6c0081525060200191505060405180910390fd5b60008060006101000a81548160ff02191690831515021790555061503f816172e1565b60006018828154811061504e57fe5b90600052602060002001549050600060176000838152602001908152602001600020905080600c0160056006811061508257fe5b602091828204019190069054906101000a900460ff1661510a576040517f08c379a000000000000000000000000000000000000000000000000000000000815260040180806020018281038252601d8152602001807f6d7573742062652061206775696c64206b69636b2070726f706f73616c00000081525060200191505060405180910390fd5b600181600c0160016006811061511c57fe5b602091828204019190066101000a81548160ff02191690831515021790555060006151468461786b565b509050801561525d57600182600c0160026006811061516157fe5b602091828204019190066101000a81548160ff0219169083151502179055506000601560008460000160009054906101000a900473ffffffffffffffffffffffffffffffffffffffff1673ffffffffffffffffffffffffffffffffffffffff1673ffffffffffffffffffffffffffffffffffffffff168152602001908152602001600020905084816005018190555061520b81600101548260020154616e3190919063ffffffff16565b816002018190555061522c8160010154600d5461692c90919063ffffffff16565b600d8190555061524b8160010154600e54616e3190919063ffffffff16565b600e8190555060008160010181905550505b6000601460008460000160009054906101000a900473ffffffffffffffffffffffffffffffffffffffff1673ffffffffffffffffffffffffffffffffffffffff1673ffffffffffffffffffffffffffffffffffffffff16815260200190815260200160002060006101000a81548160ff0219169083151502179055506153068260020160009054906101000a900473ffffffffffffffffffffffffffffffffffffffff16617d4b565b82847f86f74240ecee9e4230d26ff92e17fee978460d9c0f78f5c88b2864c9e7a4942783604051808215151515815260200191505060405180910390a350505060016000806101000a81548160ff02191690831515021790555050565b6000809054906101000a900460ff166153e4576040517f08c379a000000000000000000000000000000000000000000000000000000000815260040180806020018281038252601f8152602001807f5265656e7472616e637947756172643a207265656e7472616e742063616c6c0081525060200191505060405180910390fd5b60008060006101000a81548160ff021916908315150217905550615407816172e1565b60006018828154811061541657fe5b90600052602060002001549050600060176000838152602001908152602001600020905080600c0160046006811061544a57fe5b602091828204019190069054906101000a900460ff16158015615490575080600c0160056006811061547857fe5b602091828204019190069054906101000a900460ff16155b615502576040517f08c379a000000000000000000000000000000000000000000000000000000000815260040180806020018281038252601b8152602001807f6d7573742062652061207374616e646172642070726f706f73616c000000000081525060200191505060405180910390fd5b600181600c0160016006811061551457fe5b602091828204019190066101000a81548160ff02191690831515021790555060008061553f8561786b565b91509150670de0b6b3a764000061558f84600401546155818660030154615573600e54600d54616e3190919063ffffffff16565b616e3190919063ffffffff16565b616e3190919063ffffffff16565b111561559a57600091505b801580156155f95750600073ffffffffffffffffffffffffffffffffffffffff168360080160009054906101000a900473ffffffffffffffffffffffffffffffffffffffff1673ffffffffffffffffffffffffffffffffffffffff1614155b801561570557508260080160009054906101000a900473ffffffffffffffffffffffffffffffffffffffff1673ffffffffffffffffffffffffffffffffffffffff166370a08231600b60009054906101000a900473ffffffffffffffffffffffffffffffffffffffff166040518263ffffffff1660e01b8152600401808273ffffffffffffffffffffffffffffffffffffffff1673ffffffffffffffffffffffffffffffffffffffff16815260200191505060206040518083038186803b1580156156c357600080fd5b505afa1580156156d7573d6000803e3d6000fd5b505050506040513d60208110156156ed57600080fd5b81019080805190602001909291905050508360070154115b1561570f57600091505b811561618057600183600c0160026006811061572757fe5b602091828204019190066101000a81548160ff021916908315150217905550601560008460000160009054906101000a900473ffffffffffffffffffffffffffffffffffffffff1673ffffffffffffffffffffffffffffffffffffffff1673ffffffffffffffffffffffffffffffffffffffff16815260200190815260200160002060030160009054906101000a900460ff16156159925761583c8360030154601560008660000160009054906101000a900473ffffffffffffffffffffffffffffffffffffffff1673ffffffffffffffffffffffffffffffffffffffff1673ffffffffffffffffffffffffffffffffffffffff16815260200190815260200160002060010154616e3190919063ffffffff16565b601560008560000160009054906101000a900473ffffffffffffffffffffffffffffffffffffffff1673ffffffffffffffffffffffffffffffffffffffff1673ffffffffffffffffffffffffffffffffffffffff168152602001908152602001600020600101819055506159238360040154601560008660000160009054906101000a900473ffffffffffffffffffffffffffffffffffffffff1673ffffffffffffffffffffffffffffffffffffffff1673ffffffffffffffffffffffffffffffffffffffff16815260200190815260200160002060020154616e3190919063ffffffff16565b601560008560000160009054906101000a900473ffffffffffffffffffffffffffffffffffffffff1673ffffffffffffffffffffffffffffffffffffffff1673ffffffffffffffffffffffffffffffffffffffff16815260200190815260200160002060020181905550615e23565b60156000601660008660000160009054906101000a900473ffffffffffffffffffffffffffffffffffffffff1673ffffffffffffffffffffffffffffffffffffffff1673ffffffffffffffffffffffffffffffffffffffff16815260200190815260200160002060009054906101000a900473ffffffffffffffffffffffffffffffffffffffff1673ffffffffffffffffffffffffffffffffffffffff1673ffffffffffffffffffffffffffffffffffffffff16815260200190815260200160002060030160009054906101000a900460ff1615615bf3576000601660008560000160009054906101000a900473ffffffffffffffffffffffffffffffffffffffff1673ffffffffffffffffffffffffffffffffffffffff1673ffffffffffffffffffffffffffffffffffffffff16815260200190815260200160002060009054906101000a900473ffffffffffffffffffffffffffffffffffffffff16905080601660008373ffffffffffffffffffffffffffffffffffffffff1673ffffffffffffffffffffffffffffffffffffffff16815260200190815260200160002060006101000a81548173ffffffffffffffffffffffffffffffffffffffff021916908373ffffffffffffffffffffffffffffffffffffffff16021790555080601560008373ffffffffffffffffffffffffffffffffffffffff1673ffffffffffffffffffffffffffffffffffffffff16815260200190815260200160002060000160006101000a81548173ffffffffffffffffffffffffffffffffffffffff021916908373ffffffffffffffffffffffffffffffffffffffff160217905550505b6040518060c001604052808460000160009054906101000a900473ffffffffffffffffffffffffffffffffffffffff1673ffffffffffffffffffffffffffffffffffffffff1681526020018460030154815260200184600401548152602001600115158152602001600081526020016000815250601560008560000160009054906101000a900473ffffffffffffffffffffffffffffffffffffffff1673ffffffffffffffffffffffffffffffffffffffff1673ffffffffffffffffffffffffffffffffffffffff16815260200190815260200160002060008201518160000160006101000a81548173ffffffffffffffffffffffffffffffffffffffff021916908373ffffffffffffffffffffffffffffffffffffffff160217905550602082015181600101556040820151816002015560608201518160030160006101000a81548160ff0219169083151502179055506080820151816004015560a082015181600501559050508260000160009054906101000a900473ffffffffffffffffffffffffffffffffffffffff16601660008560000160009054906101000a900473ffffffffffffffffffffffffffffffffffffffff1673ffffffffffffffffffffffffffffffffffffffff1673ffffffffffffffffffffffffffffffffffffffff16815260200190815260200160002060006101000a81548173ffffffffffffffffffffffffffffffffffffffff021916908373ffffffffffffffffffffffffffffffffffffffff1602179055505b615e3c8360030154600d54616e3190919063ffffffff16565b600d81905550615e5b8360040154600e54616e3190919063ffffffff16565b600e819055508260060160009054906101000a900473ffffffffffffffffffffffffffffffffffffffff1673ffffffffffffffffffffffffffffffffffffffff1663a9059cbb600b60009054906101000a900473ffffffffffffffffffffffffffffffffffffffff1685600501546040518363ffffffff1660e01b8152600401808373ffffffffffffffffffffffffffffffffffffffff1673ffffffffffffffffffffffffffffffffffffffff16815260200182815260200192505050602060405180830381600087803b158015615f3257600080fd5b505af1158015615f46573d6000803e3d6000fd5b505050506040513d6020811015615f5c57600080fd5b8101908080519060200190929190505050615fc2576040517f08c379a00000000000000000000000000000000000000000000000000000000081526004018080602001828103825260238152602001806185b36023913960400191505060405180910390fd5b600b60009054906101000a900473ffffffffffffffffffffffffffffffffffffffff1673ffffffffffffffffffffffffffffffffffffffff166301e336678460080160009054906101000a900473ffffffffffffffffffffffffffffffffffffffff168560000160009054906101000a900473ffffffffffffffffffffffffffffffffffffffff1686600701546040518463ffffffff1660e01b8152600401808473ffffffffffffffffffffffffffffffffffffffff1673ffffffffffffffffffffffffffffffffffffffff1681526020018373ffffffffffffffffffffffffffffffffffffffff1673ffffffffffffffffffffffffffffffffffffffff1681526020018281526020019350505050602060405180830381600087803b1580156160eb57600080fd5b505af11580156160ff573d6000803e3d6000fd5b505050506040513d602081101561611557600080fd5b810190808051906020019092919050505061617b576040517f08c379a00000000000000000000000000000000000000000000000000000000081526004018080602001828103825260218152602001806188386021913960400191505060405180910390fd5b6162ea565b806162e9578260060160009054906101000a900473ffffffffffffffffffffffffffffffffffffffff1673ffffffffffffffffffffffffffffffffffffffff1663a9059cbb8460010160009054906101000a900473ffffffffffffffffffffffffffffffffffffffff1685600501546040518363ffffffff1660e01b8152600401808373ffffffffffffffffffffffffffffffffffffffff1673ffffffffffffffffffffffffffffffffffffffff16815260200182815260200192505050602060405180830381600087803b15801561625857600080fd5b505af115801561626c573d6000803e3d6000fd5b505050506040513d602081101561628257600080fd5b81019080805190602001909291905050506162e8576040517f08c379a00000000000000000000000000000000000000000000000000000000081526004018080602001828103825260228152602001806187c56022913960400191505060405180910390fd5b5b5b6163178360020160009054906101000a900473ffffffffffffffffffffffffffffffffffffffff16617d4b565b83857f86f74240ecee9e4230d26ff92e17fee978460d9c0f78f5c88b2864c9e7a4942784604051808215151515815260200191505060405180910390a35050505060016000806101000a81548160ff02191690831515021790555050565b6000809054906101000a900460ff166163f6576040517f08c379a000000000000000000000000000000000000000000000000000000000815260040180806020018281038252601f8152602001807f5265656e7472616e637947756172643a207265656e7472616e742063616c6c0081525060200191505060405180910390fd5b60008060006101000a81548160ff0219169083151502179055506000601560003373ffffffffffffffffffffffffffffffffffffffff1673ffffffffffffffffffffffffffffffffffffffff1681526020019081526020016000206001015411806164a357506000601560003373ffffffffffffffffffffffffffffffffffffffff1673ffffffffffffffffffffffffffffffffffffffff16815260200190815260200160002060020154115b616515576040517f08c379a000000000000000000000000000000000000000000000000000000000815260040180806020018281038252600c8152602001807f6e6f742061206d656d626572000000000000000000000000000000000000000081525060200191505060405180910390fd5b60008090505b81518110156166ba576011600083838151811061653457fe5b602002602001015173ffffffffffffffffffffffffffffffffffffffff1673ffffffffffffffffffffffffffffffffffffffff16815260200190815260200160002060009054906101000a900460ff166165f6576040517f08c379a00000000000000000000000000000000000000000000000000000000081526004018080602001828103825260198152602001807f746f6b656e206d7573742062652077686974656c69737465640000000000000081525060200191505060405180910390fd5b60008111156166ad5781600182038151811061660e57fe5b602002602001015173ffffffffffffffffffffffffffffffffffffffff1682828151811061663857fe5b602002602001015173ffffffffffffffffffffffffffffffffffffffff16116166ac576040517f08c379a00000000000000000000000000000000000000000000000000000000081526004018080602001828103825260308152602001806187006030913960400191505060405180910390fd5b5b808060010191505061651b565b506166c733848484616eb9565b60016000806101000a81548160ff021916908315150217905550505050565b60008060009054906101000a900460ff16616769576040517f08c379a000000000000000000000000000000000000000000000000000000000815260040180806020018281038252601f8152602001807f5265656e7472616e637947756172643a207265656e7472616e742063616c6c0081525060200191505060405180910390fd5b60008060006101000a81548160ff021916908315150217905550600073ffffffffffffffffffffffffffffffffffffffff168373ffffffffffffffffffffffffffffffffffffffff161415616826576040517f08c379a000000000000000000000000000000000000000000000000000000000815260040180806020018281038252601a8152602001807f6d7573742070726f7669646520746f6b656e206164647265737300000000000081525060200191505060405180910390fd5b601160008473ffffffffffffffffffffffffffffffffffffffff1673ffffffffffffffffffffffffffffffffffffffff16815260200190815260200160002060009054906101000a900460ff16156168c9576040517f08c379a00000000000000000000000000000000000000000000000000000000081526004018080602001828103825260298152602001806188596029913960400191505060405180910390fd5b6168d161824c565b6001816004600681106168e057fe5b602002019015159081151581525050616903600080600080886000808a896169c0565b6001600c540391505060016000806101000a81548160ff02191690831515021790555092915050565b600061696e83836040518060400160405280601e81526020017f536166654d6174683a207375627472616374696f6e206f766572666c6f770000815250617ff2565b905092915050565b60006169b883836040518060400160405280601a81526020017f536166654d6174683a206469766973696f6e206279207a65726f0000000000008152506180b2565b905092915050565b6169c861826e565b604051806101e001604052808b73ffffffffffffffffffffffffffffffffffffffff1681526020013373ffffffffffffffffffffffffffffffffffffffff168152602001600073ffffffffffffffffffffffffffffffffffffffff1681526020018a81526020018981526020018881526020018773ffffffffffffffffffffffffffffffffffffffff1681526020018681526020018573ffffffffffffffffffffffffffffffffffffffff168152602001600081526020016000815260200160008152602001838152602001848152602001600081525090508060176000600c54815260200190815260200160002060008201518160000160006101000a81548173ffffffffffffffffffffffffffffffffffffffff021916908373ffffffffffffffffffffffffffffffffffffffff16021790555060208201518160010160006101000a81548173ffffffffffffffffffffffffffffffffffffffff021916908373ffffffffffffffffffffffffffffffffffffffff16021790555060408201518160020160006101000a81548173ffffffffffffffffffffffffffffffffffffffff021916908373ffffffffffffffffffffffffffffffffffffffff160217905550606082015181600301556080820151816004015560a0820151816005015560c08201518160060160006101000a81548173ffffffffffffffffffffffffffffffffffffffff021916908373ffffffffffffffffffffffffffffffffffffffff16021790555060e082015181600701556101008201518160080160006101000a81548173ffffffffffffffffffffffffffffffffffffffff021916908373ffffffffffffffffffffffffffffffffffffffff160217905550610120820151816009015561014082015181600a015561016082015181600b015561018082015181600c01906006616c7c929190618358565b506101a082015181600d019080519060200190616c9a9291906183f1565b506101c082015181600e01559050506000601660003373ffffffffffffffffffffffffffffffffffffffff1673ffffffffffffffffffffffffffffffffffffffff16815260200190815260200160002060009054906101000a900473ffffffffffffffffffffffffffffffffffffffff1690508a73ffffffffffffffffffffffffffffffffffffffff168173ffffffffffffffffffffffffffffffffffffffff163373ffffffffffffffffffffffffffffffffffffffff167f1facc413faf060d5cc5c8bc12d8fe29e5c530eb98e2475c76733ec749787a750600c548e8e8e8e8e8e604051808881526020018781526020018681526020018581526020018473ffffffffffffffffffffffffffffffffffffffff1673ffffffffffffffffffffffffffffffffffffffff1681526020018381526020018273ffffffffffffffffffffffffffffffffffffffff1673ffffffffffffffffffffffffffffffffffffffff16815260200197505050505050505060405180910390a46001600c600082825401925050819055505050505050505050505050565b600080828401905083811015616eaf576040517f08c379a000000000000000000000000000000000000000000000000000000000815260040180806020018281038252601b8152602001807f536166654d6174683a206164646974696f6e206f766572666c6f77000000000081525060200191505060405180910390fd5b8091505092915050565b6000616ed2600e54600d54616e3190919063ffffffff16565b90506000601560008773ffffffffffffffffffffffffffffffffffffffff1673ffffffffffffffffffffffffffffffffffffffff16815260200190815260200160002090508481600101541015616f91576040517f08c379a00000000000000000000000000000000000000000000000000000000081526004018080602001828103825260138152602001807f696e73756666696369656e74207368617265730000000000000000000000000081525060200191505060405180910390fd5b838160020154101561700b576040517f08c379a00000000000000000000000000000000000000000000000000000000081526004018080602001828103825260118152602001807f696e73756666696369656e74206c6f6f7400000000000000000000000000000081525060200191505060405180910390fd5b61701881600401546145cb565b61706d576040517f08c379a000000000000000000000000000000000000000000000000000000000815260040180806020018281038252604d815260200180618541604d913960600191505060405180910390fd5b60006170828587616e3190919063ffffffff16565b905061709b86836001015461692c90919063ffffffff16565b82600101819055506170ba85836002015461692c90919063ffffffff16565b82600201819055506170d786600d5461692c90919063ffffffff16565b600d819055506170f285600e5461692c90919063ffffffff16565b600e81905550600b60009054906101000a900473ffffffffffffffffffffffffffffffffffffffff1673ffffffffffffffffffffffffffffffffffffffff1663732c8f57888386886040518563ffffffff1660e01b8152600401808573ffffffffffffffffffffffffffffffffffffffff1673ffffffffffffffffffffffffffffffffffffffff16815260200184815260200183815260200180602001828103825283818151815260200191508051906020019060200280838360005b838110156171ca5780820151818401526020810190506171af565b5050505090500195505050505050602060405180830381600087803b1580156171f257600080fd5b505af1158015617206573d6000803e3d6000fd5b505050506040513d602081101561721c57600080fd5b8101908080519060200190929190505050617282576040517f08c379a000000000000000000000000000000000000000000000000000000000815260040180806020018281038252602a81526020018061866d602a913960400191505060405180910390fd5b3373ffffffffffffffffffffffffffffffffffffffff167fcad1a1c68982832d9abc314de8a1e5d5e8c81b0588961e360766736d10c3be1a8787604051808381526020018281526020019250505060405180910390a250505050505050565b601880549050811061735b576040517f08c379a00000000000000000000000000000000000000000000000000000000081526004018080602001828103825260178152602001807f70726f706f73616c20646f6573206e6f7420657869737400000000000000000081525060200191505060405180910390fd5b61736361826e565b601760006018848154811061737457fe5b90600052602060002001548152602001908152602001600020604051806101e00160405290816000820160009054906101000a900473ffffffffffffffffffffffffffffffffffffffff1673ffffffffffffffffffffffffffffffffffffffff1673ffffffffffffffffffffffffffffffffffffffff1681526020016001820160009054906101000a900473ffffffffffffffffffffffffffffffffffffffff1673ffffffffffffffffffffffffffffffffffffffff1673ffffffffffffffffffffffffffffffffffffffff1681526020016002820160009054906101000a900473ffffffffffffffffffffffffffffffffffffffff1673ffffffffffffffffffffffffffffffffffffffff1673ffffffffffffffffffffffffffffffffffffffff1681526020016003820154815260200160048201548152602001600582015481526020016006820160009054906101000a900473ffffffffffffffffffffffffffffffffffffffff1673ffffffffffffffffffffffffffffffffffffffff1673ffffffffffffffffffffffffffffffffffffffff168152602001600782015481526020016008820160009054906101000a900473ffffffffffffffffffffffffffffffffffffffff1673ffffffffffffffffffffffffffffffffffffffff1673ffffffffffffffffffffffffffffffffffffffff16815260200160098201548152602001600a8201548152602001600b8201548152602001600c82016006806020026040519081016040528092919082600680156175ee576020028201916000905b82829054906101000a900460ff161515815260200190600101906020826000010492830192600103820291508084116175b85790505b50505050508152602001600d82018054600181600116156101000203166002900480601f0160208091040260200160405190810160405280929190818152602001828054600181600116156101000203166002900480156176905780601f1061766557610100808354040283529160200191617690565b820191906000526020600020905b81548152906001019060200180831161767357829003601f168201915b50505050508152602001600e8201548152505090506176d36003546176c5600254846101200151616e3190919063ffffffff16565b616e3190919063ffffffff16565b6176db611573565b1015617732576040517f08c379a000000000000000000000000000000000000000000000000000000000815260040180806020018281038252602581526020018061858e6025913960400191505060405180910390fd5b6000151581610180015160016006811061774857fe5b60200201511515146177a5576040517f08c379a00000000000000000000000000000000000000000000000000000000081526004018080602001828103825260238152602001806188826023913960400191505060405180910390fd5b600082148061781257506017600060186177c960018661692c90919063ffffffff16565b815481106177d357fe5b90600052602060002001548152602001908152602001600020600c016001600681106177fb57fe5b602091828204019190069054906101000a900460ff165b617867576040517f08c379a000000000000000000000000000000000000000000000000000000000815260040180806020018281038252602381526020018061861b6023913960400191505060405180910390fd5b5050565b60008061787661826e565b601760006018868154811061788757fe5b90600052602060002001548152602001908152602001600020604051806101e00160405290816000820160009054906101000a900473ffffffffffffffffffffffffffffffffffffffff1673ffffffffffffffffffffffffffffffffffffffff1673ffffffffffffffffffffffffffffffffffffffff1681526020016001820160009054906101000a900473ffffffffffffffffffffffffffffffffffffffff1673ffffffffffffffffffffffffffffffffffffffff1673ffffffffffffffffffffffffffffffffffffffff1681526020016002820160009054906101000a900473ffffffffffffffffffffffffffffffffffffffff1673ffffffffffffffffffffffffffffffffffffffff1673ffffffffffffffffffffffffffffffffffffffff1681526020016003820154815260200160048201548152602001600582015481526020016006820160009054906101000a900473ffffffffffffffffffffffffffffffffffffffff1673ffffffffffffffffffffffffffffffffffffffff1673ffffffffffffffffffffffffffffffffffffffff168152602001600782015481526020016008820160009054906101000a900473ffffffffffffffffffffffffffffffffffffffff1673ffffffffffffffffffffffffffffffffffffffff1673ffffffffffffffffffffffffffffffffffffffff16815260200160098201548152602001600a8201548152602001600b8201548152602001600c8201600680602002604051908101604052809291908260068015617b01576020028201916000905b82829054906101000a900460ff16151581526020019060010190602082600001049283019260010382029150808411617acb5790505b50505050508152602001600d82018054600181600116156101000203166002900480601f016020809104026020016040519081016040528092919081815260200182805460018160011615610100020316600290048015617ba35780601f10617b7857610100808354040283529160200191617ba3565b820191906000526020600020905b815481529060010190602001808311617b8657829003601f168201915b50505050508152602001600e82015481525050905080610160015181610140015111925060009150617c0d600454617bff600354617bf1600254866101200151616e3190919063ffffffff16565b616e3190919063ffffffff16565b616e3190919063ffffffff16565b617c15611573565b10617c45576001600f60006101000a81548160ff0219169083151502179055508360108190555060019150600092505b600f60009054906101000a900460ff1615617cb057617c9e60045460176000601860105481548110617c7357fe5b9060005260206000200154815260200190815260200160002060090154616e3190919063ffffffff16565b8161012001511015617caf57600092505b5b806101c00151617ce1600754617cd3600e54600d54616e3190919063ffffffff16565b61817890919063ffffffff16565b1015617cec57600092505b600060156000836000015173ffffffffffffffffffffffffffffffffffffffff1673ffffffffffffffffffffffffffffffffffffffff1681526020019081526020016000206005015414617d3f57600092505b82829250925050915091565b600a60009054906101000a900473ffffffffffffffffffffffffffffffffffffffff1673ffffffffffffffffffffffffffffffffffffffff1663a9059cbb336008546040518363ffffffff1660e01b8152600401808373ffffffffffffffffffffffffffffffffffffffff1673ffffffffffffffffffffffffffffffffffffffff16815260200182815260200192505050602060405180830381600087803b158015617df657600080fd5b505af1158015617e0a573d6000803e3d6000fd5b505050506040513d6020811015617e2057600080fd5b8101908080519060200190929190505050617e86576040517f08c379a000000000000000000000000000000000000000000000000000000000815260040180806020018281038252602e8152602001806187e7602e913960400191505060405180910390fd5b600a60009054906101000a900473ffffffffffffffffffffffffffffffffffffffff1673ffffffffffffffffffffffffffffffffffffffff1663a9059cbb82617edc60085460065461692c90919063ffffffff16565b6040518363ffffffff1660e01b8152600401808373ffffffffffffffffffffffffffffffffffffffff1673ffffffffffffffffffffffffffffffffffffffff16815260200182815260200192505050602060405180830381600087803b158015617f4557600080fd5b505af1158015617f59573d6000803e3d6000fd5b505050506040513d6020811015617f6f57600080fd5b8101908080519060200190929190505050617fd5576040517f08c379a000000000000000000000000000000000000000000000000000000000815260040180806020018281038252602c815260200180618751602c913960400191505060405180910390fd5b50565b600081831015617fe85781617fea565b825b905092915050565b600083831115829061809f576040517f08c379a00000000000000000000000000000000000000000000000000000000081526004018080602001828103825283818151815260200191508051906020019080838360005b83811015618064578082015181840152602081019050618049565b50505050905090810190601f1680156180915780820380516001836020036101000a031916815260200191505b509250505060405180910390fd5b5060008385039050809150509392505050565b6000808311829061815e576040517f08c379a00000000000000000000000000000000000000000000000000000000081526004018080602001828103825283818151815260200191508051906020019080838360005b83811015618123578082015181840152602081019050618108565b50505050905090810190601f1680156181505780820380516001836020036101000a031916815260200191505b509250505060405180910390fd5b50600083858161816a57fe5b049050809150509392505050565b60008083141561818b57600090506181f8565b600082840290508284828161819c57fe5b04146181f3576040517f08c379a00000000000000000000000000000000000000000000000000000000081526004018080602001828103825260218152602001806186df6021913960400191505060405180910390fd5b809150505b92915050565b6040518060c00160405280600073ffffffffffffffffffffffffffffffffffffffff168152602001600081526020016000815260200160001515815260200160008152602001600081525090565b6040518060c00160405280600690602082028038833980820191505090505090565b604051806102800160405280600073ffffffffffffffffffffffffffffffffffffffff168152602001600073ffffffffffffffffffffffffffffffffffffffff168152602001600073ffffffffffffffffffffffffffffffffffffffff168152602001600081526020016000815260200160008152602001600073ffffffffffffffffffffffffffffffffffffffff16815260200160008152602001600073ffffffffffffffffffffffffffffffffffffffff168152602001600081526020016000815260200160008152602001618344618471565b815260200160608152602001600081525090565b826006601f016020900481019282156183e05791602002820160005b838211156183b157835183826101000a81548160ff0219169083151502179055509260200192600101602081600001049283019260010302618374565b80156183de5782816101000a81549060ff02191690556001016020816000010492830192600103026183b1565b505b5090506183ed9190618493565b5090565b828054600181600116156101000203166002900490600052602060002090601f016020900481019282601f1061843257805160ff1916838001178555618460565b82800160010185558215618460579182015b8281111561845f578251825591602001919060010190618444565b5b50905061846d91906184c3565b5090565b6040518060c00160405280600690602082028038833980820191505090505090565b6184c091905b808211156184bc57600081816101000a81549060ff021916905550600101618499565b5090565b90565b6184e591905b808211156184e15760008160009055506001016184c9565b5090565b9056fe63616e6e6f74206f7665727772697465206578697374696e672064656c6567617465206b6579736261696c6f75745761697420686173207061737365642c206d656d626572206d757374206265206261696c6564206f757463616e6e6f7420726167657175697420756e74696c206869676865737420696e6465782070726f706f73616c206d656d62657220766f74656420594553206f6e2069732070726f63657373656470726f706f73616c206973206e6f7420726561647920746f2062652070726f636573736564746f6b656e207472616e7366657220746f206775696c642062616e6b206661696c65646d656d626572206d757374206e6f7420616c7265616479206265206a61696c65646661696c656420746f2072657475726e207472696275746520746f2070726f706f73657270726576696f75732070726f706f73616c206d7573742062652070726f6365737365646d656d626572206d7573742068617665206174206c65617374206f6e65207368617265206f72206f6e65206c6f6f747769746864726177616c206f6620746f6b656e732066726f6d206775696c6442616e6b206661696c656470726f706f73616c206170706c6963616e74206d757374206e6f74206265206a61696c656470726f706f73616c2068617320616c7265616479206265656e2073706f6e736f726564536166654d6174683a206d756c7469706c69636174696f6e206f766572666c6f77746f6b656e206c697374206d75737420626520756e6971756520616e6420696e20617363656e64696e67206f7264657263616e6e6f74206f7665727772697465206578697374696e67206d656d626572736661696c656420746f2072657475726e2070726f706f73616c206465706f73697420746f2073706f6e736f7270726f706f73616c206465706f73697420746f6b656e207472616e73666572206661696c656470726f706f73616c20766f74696e6720706572696f642068617320657870697265646661696c696e6720766f746520746f6b656e207472616e73666572206661696c65646661696c656420746f2073656e642070726f63657373696e672072657761726420746f206d73672e73656e64657270726f706f73616c2068617320616c7265616479206265656e2063616e63656c6c6564746f6b656e207061796d656e7420746f206170706c6963616e74206661696c656463616e6e6f7420616c726561647920686176652077686974656c69737465642074686520746f6b656e70726f706f73616c2068617320616c7265616479206265656e2070726f636573736564a165627a7a7230582009608a9b39b9ec426452be64fa0335afa300214a7d7216852be8b96f601a78630029608060405234801561001057600080fd5b50336000806101000a81548173ffffffffffffffffffffffffffffffffffffffff021916908373ffffffffffffffffffffffffffffffffffffffff16021790555061070c806100606000396000f3fe608060405234801561001057600080fd5b50600436106100415760003560e01c806301e3366714610046578063732c8f57146100cc5780638da5cb5b146101d0575b600080fd5b6100b26004803603606081101561005c57600080fd5b81019080803573ffffffffffffffffffffffffffffffffffffffff169060200190929190803573ffffffffffffffffffffffffffffffffffffffff1690602001909291908035906020019092919050505061021a565b604051808215151515815260200191505060405180910390f35b6101b6600480360360808110156100e257600080fd5b81019080803573ffffffffffffffffffffffffffffffffffffffff16906020019092919080359060200190929190803590602001909291908035906020019064010000000081111561013357600080fd5b82018360208201111561014557600080fd5b8035906020019184602083028401116401000000008311171561016757600080fd5b919080806020026020016040519081016040528093929190818152602001838360200280828437600081840152601f19601f8201169050808301925050505050505091929192905050506103a5565b604051808215151515815260200191505060405180910390f35b6101d8610659565b604051808273ffffffffffffffffffffffffffffffffffffffff1673ffffffffffffffffffffffffffffffffffffffff16815260200191505060405180910390f35b60008060009054906101000a900473ffffffffffffffffffffffffffffffffffffffff1673ffffffffffffffffffffffffffffffffffffffff163373ffffffffffffffffffffffffffffffffffffffff161461027557600080fd5b8373ffffffffffffffffffffffffffffffffffffffff168373ffffffffffffffffffffffffffffffffffffffff167f2717ead6b9200dd235aad468c9809ea400fe33ac69b5bfaa6d3e90fc922b6398846040518082815260200191505060405180910390a38373ffffffffffffffffffffffffffffffffffffffff1663a9059cbb84846040518363ffffffff1660e01b8152600401808373ffffffffffffffffffffffffffffffffffffffff1673ffffffffffffffffffffffffffffffffffffffff16815260200182815260200192505050602060405180830381600087803b15801561036157600080fd5b505af1158015610375573d6000803e3d6000fd5b505050506040513d602081101561038b57600080fd5b810190808051906020019092919050505090509392505050565b60008060009054906101000a900473ffffffffffffffffffffffffffffffffffffffff1673ffffffffffffffffffffffffffffffffffffffff163373ffffffffffffffffffffffffffffffffffffffff161461040057600080fd5b60008090505b825181101561064c5760006104e684838151811061042057fe5b602002602001015173ffffffffffffffffffffffffffffffffffffffff166370a08231306040518263ffffffff1660e01b8152600401808273ffffffffffffffffffffffffffffffffffffffff1673ffffffffffffffffffffffffffffffffffffffff16815260200191505060206040518083038186803b1580156104a457600080fd5b505afa1580156104b8573d6000803e3d6000fd5b505050506040513d60208110156104ce57600080fd5b8101908080519060200190929190505050878761067e565b90508382815181106104f457fe5b602002602001015173ffffffffffffffffffffffffffffffffffffffff168773ffffffffffffffffffffffffffffffffffffffff167f2717ead6b9200dd235aad468c9809ea400fe33ac69b5bfaa6d3e90fc922b6398836040518082815260200191505060405180910390a383828151811061056c57fe5b602002602001015173ffffffffffffffffffffffffffffffffffffffff1663a9059cbb88836040518363ffffffff1660e01b8152600401808373ffffffffffffffffffffffffffffffffffffffff1673ffffffffffffffffffffffffffffffffffffffff16815260200182815260200192505050602060405180830381600087803b1580156105fa57600080fd5b505af115801561060e573d6000803e3d6000fd5b505050506040513d602081101561062457600080fd5b810190808051906020019092919050505061063e57600080fd5b508080600101915050610406565b5060019050949350505050565b6000809054906101000a900473ffffffffffffffffffffffffffffffffffffffff1681565b60008082141561068d57600080fd5b600084141561069f57600090506106d9565b60008385029050838582816106b057fe5b0414156106c9578281816106c057fe5b049150506106d9565b838386816106d357fe5b04029150505b939250505056fea165627a7a7230582021c48acfa20bc825c284c7e69252b0bb21de6f73946bc11583dcadd60a767caf00295f766f74696e67506572696f644c656e6774682065786365656473206c696d69745f6261696c6f757457616974206d7573742062652067726561746572207468616e205f656d657267656e637950726f63657373696e67576169745f656d657267656e637950726f63657373696e67576169742063616e6e6f7420626520305f70726f706f73616c4465706f7369742063616e6e6f7420626520736d616c6c6572207468616e205f70726f63657373696e67526577617264",
  "source": "pragma solidity >=0.4.22 <0.6.0;\r\n\r\nimport \"../lib/SafeMath.sol\";\r\nimport \"../Interface/IERC20.sol\";\r\nimport \"./ReentrancyGuard.sol\";\r\nimport \"./GuildBank.sol\";\r\n\r\ncontract Moloch2 is ReentrancyGuard {\r\n    using SafeMath for uint256;\r\n\r\n    /***************\r\n    GLOBAL CONSTANTS\r\n    ***************/\r\n    address public summoner; // initial singular shareholder, assists with bailouts\r\n\r\n    uint256 public periodDuration; // default = 17280 = 4.8 hours in seconds (5 periods per day)\r\n    uint256 public votingPeriodLength; // default = 35 periods (7 days)\r\n    uint256 public gracePeriodLength; // default = 35 periods (7 days)\r\n    uint256 public emergencyProcessingWait; // default = 35 periods (7 days)\r\n    uint256 public bailoutWait; // default = 70 periods (14 days)\r\n    uint256 public proposalDeposit; // default = 10 ETH (~$1,000 worth of ETH at contract deployment)\r\n    uint256 public dilutionBound; // default = 3 - maximum multiplier a YES voter will be obligated to pay in case of mass ragequit\r\n    uint256 public processingReward; // default = 0.1 - amount of ETH to give to whoever processes a proposal\r\n    uint256 public summoningTime; // needed to determine the current period\r\n\r\n    IERC20 public depositToken; // deposit token contract reference; default = wETH\r\n    GuildBank public guildBank; // guild bank contract reference\r\n\r\n    // HARD-CODED LIMITS\r\n    // These numbers are quite arbitrary; they are small enough to avoid overflows when doing calculations\r\n    // with periods or shares, yet big enough to not limit reasonable use cases.\r\n    uint256 constant MAX_VOTING_PERIOD_LENGTH = 10**18; // maximum length of voting period\r\n    uint256 constant MAX_GRACE_PERIOD_LENGTH = 10**18; // maximum length of grace period\r\n    uint256 constant MAX_BAILOUT_WAIT = 10**18; // maximum # periods after a jailed member can be ragekicked before they must be bailed out instead\r\n    uint256 constant MAX_DILUTION_BOUND = 10**18; // maximum dilution bound\r\n    uint256 constant MAX_NUMBER_OF_SHARES_AND_LOOT = 10**18; // maximum number of shares that can be minted\r\n\r\n    // ***************\r\n    // EVENTS\r\n    // ***************\r\n    event SubmitProposal(uint256 proposalIndex, address indexed delegateKey, address indexed memberAddress, address indexed applicant, uint256 sharesRequested, uint256 lootRequested, uint256 tributeOffered, address tributeToken, uint256 paymentRequested, address paymentToken);\r\n    event SponsorProposal(address indexed delegateKey, address indexed memberAddress, uint256 proposalIndex, uint256 proposalQueueIndex, uint256 startingPeriod);\r\n    event SubmitVote(uint256 indexed proposalIndex, address indexed delegateKey, address indexed memberAddress, uint8 uintVote);\r\n    event ProcessProposal(uint256 indexed proposalIndex, uint256 indexed proposalId, bool didPass);\r\n    event Ragequit(address indexed memberAddress, uint256 sharesToBurn, uint256 lootToBurn);\r\n    event CancelProposal(uint256 indexed proposalIndex, address applicantAddress);\r\n    event UpdateDelegateKey(address indexed memberAddress, address newDelegateKey);\r\n    event SummonComplete(address indexed summoner, uint256 shares);\r\n\r\n    // *******************\r\n    // INTERNAL ACCOUNTING\r\n    // *******************\r\n    uint256 public proposalCount = 0; // total proposals submitted\r\n    uint256 public totalShares = 0; // total shares across all members\r\n    uint256 public totalLoot = 0; // total loot across all members\r\n\r\n    bool public emergencyWarning = false; // true if emergency processing has ever been triggered\r\n    uint256 public lastEmergencyProposalIndex = 0; // index of the last proposal which triggered emergency processing\r\n\r\n    enum Vote {\r\n        Null, // default value, counted as abstention\r\n        Yes,\r\n        No\r\n    }\r\n\r\n    struct Member {\r\n        address delegateKey; // the key responsible for submitting proposals and voting - defaults to member address unless updated\r\n        uint256 shares; // the # of voting shares assigned to this member\r\n        uint256 loot; // the loot amount available to this member (combined with shares on ragequit)\r\n        bool exists; // always true once a member has been created\r\n        uint256 highestIndexYesVote; // highest proposal index # on which the member voted YES\r\n        uint256 jailed; // set to proposalIndex of a passing guild kick proposal for this member, prevents voting on and sponsoring proposals\r\n    }\r\n\r\n    struct Proposal {\r\n        address applicant; // the applicant who wishes to become a member - this key will be used for withdrawals (doubles as guild kick target for gkick proposals)\r\n        address proposer; // the account that submitted the proposal (can be non-member)\r\n        address sponsor; // the member that sponsored the proposal (moving it into the queue)\r\n        uint256 sharesRequested; // the # of shares the applicant is requesting\r\n        uint256 lootRequested; // the amount of loot the applicant is requesting\r\n        uint256 tributeOffered; // amount of tokens offered as tribute\r\n        IERC20 tributeToken; // tribute token contract reference\r\n        uint256 paymentRequested; // amount of tokens requested as payment\r\n        IERC20 paymentToken; // payment token contract reference\r\n        uint256 startingPeriod; // the period in which voting can start for this proposal\r\n        uint256 yesVotes; // the total number of YES votes for this proposal\r\n        uint256 noVotes; // the total number of NO votes for this proposal\r\n        bool[6] flags; // [sponsored, processed, didPass, cancelled, whitelist, guildkick]\r\n        string details; // proposal details - could be IPFS hash, plaintext, or JSON\r\n        uint256 maxTotalSharesAndLootAtYesVote; // the maximum # of total shares encountered at a yes vote on this proposal\r\n        mapping(address => Vote) votesByMember; // the votes on this proposal by each member\r\n    }\r\n\r\n    mapping(address => bool) public tokenWhitelist;\r\n    IERC20[] public approvedTokens;\r\n\r\n    mapping(address => bool) public proposedToWhitelist;\r\n    mapping(address => bool) public proposedToKick;\r\n\r\n    mapping(address => Member) public members;\r\n    mapping(address => address) public memberAddressByDelegateKey;\r\n\r\n    mapping(uint256 => Proposal) public proposals;\r\n\r\n    uint256[] public proposalQueue;\r\n\r\n    modifier onlyMember {\r\n        require(members[msg.sender].shares > 0 || members[msg.sender].loot > 0, \"not a member\");\r\n        _;\r\n    }\r\n\r\n    modifier onlyShareholder {\r\n        require(members[msg.sender].shares > 0, \"not a shareholder\");\r\n        _;\r\n    }\r\n\r\n    modifier onlyDelegate {\r\n        require(members[memberAddressByDelegateKey[msg.sender]].shares > 0, \"not a delegate\");\r\n        _;\r\n    }\r\n\r\n    constructor(\r\n        address _summoner,\r\n        address[] memory _approvedTokens,\r\n        uint256 _periodDuration,\r\n        uint256 _votingPeriodLength,\r\n        uint256 _gracePeriodLength,\r\n        uint256 _emergencyProcessingWait,\r\n        uint256 _bailoutWait,\r\n        uint256 _proposalDeposit,\r\n        uint256 _dilutionBound,\r\n        uint256 _processingReward\r\n    ) public {\r\n        require(_summoner != address(0), \"summoner cannot be 0\");\r\n        require(_periodDuration > 0, \"_periodDuration cannot be 0\");\r\n        require(_votingPeriodLength > 0, \"_votingPeriodLength cannot be 0\");\r\n        require(_votingPeriodLength <= MAX_VOTING_PERIOD_LENGTH, \"_votingPeriodLength exceeds limit\");\r\n        require(_gracePeriodLength <= MAX_GRACE_PERIOD_LENGTH, \"_gracePeriodLength exceeds limit\");\r\n        require(_emergencyProcessingWait > 0, \"_emergencyProcessingWait cannot be 0\");\r\n        require(_bailoutWait > _emergencyProcessingWait, \"_bailoutWait must be greater than _emergencyProcessingWait\");\r\n        require(_bailoutWait <= MAX_BAILOUT_WAIT, \"_bailoutWait exceeds limit\");\r\n        require(_dilutionBound > 0, \"_dilutionBound cannot be 0\");\r\n        require(_dilutionBound <= MAX_DILUTION_BOUND, \"_dilutionBound exceeds limit\");\r\n        require(_approvedTokens.length > 0, \"need at least one approved token\");\r\n        require(_proposalDeposit >= _processingReward, \"_proposalDeposit cannot be smaller than _processingReward\");\r\n\r\n        summoner = _summoner;\r\n\r\n        depositToken = IERC20(_approvedTokens[0]);\r\n\r\n        for (uint256 i = 0; i < _approvedTokens.length; i++) {\r\n            require(_approvedTokens[i] != address(0), \"_approvedToken cannot be 0\");\r\n            require(!tokenWhitelist[_approvedTokens[i]], \"duplicate approved token\");\r\n            tokenWhitelist[_approvedTokens[i]] = true;\r\n            approvedTokens.push(IERC20(_approvedTokens[i]));\r\n        }\r\n\r\n        guildBank = new GuildBank();\r\n\r\n        periodDuration = _periodDuration;\r\n        votingPeriodLength = _votingPeriodLength;\r\n        gracePeriodLength = _gracePeriodLength;\r\n        emergencyProcessingWait = _emergencyProcessingWait;\r\n        bailoutWait = _bailoutWait;\r\n        proposalDeposit = _proposalDeposit;\r\n        dilutionBound = _dilutionBound;\r\n        processingReward = _processingReward;\r\n\r\n        summoningTime = now;\r\n\r\n        members[summoner] = Member(summoner, 1, 0, true, 0, 0);\r\n        memberAddressByDelegateKey[summoner] = summoner;\r\n        totalShares = 1;\r\n\r\n        emit SummonComplete(summoner, 1);\r\n    }\r\n\r\n    /*****************\r\n    PROPOSAL FUNCTIONS\r\n    *****************/\r\n    function submitProposal(\r\n        address applicant,\r\n        uint256 sharesRequested,\r\n        uint256 lootRequested,\r\n        uint256 tributeOffered,\r\n        address tributeToken,\r\n        uint256 paymentRequested,\r\n        address paymentToken,\r\n        string memory details\r\n    ) public nonReentrant returns (uint256 proposalId) {\r\n        require(sharesRequested.add(lootRequested) <= MAX_NUMBER_OF_SHARES_AND_LOOT, \"too many shares requested\");\r\n        require(tokenWhitelist[tributeToken], \"tributeToken is not whitelisted\");\r\n        require(tokenWhitelist[paymentToken], \"payment is not whitelisted\");\r\n        require(applicant != address(0), \"applicant cannot be 0\");\r\n        require(members[applicant].jailed == 0, \"proposal applicant must not be jailed\");\r\n\r\n        // collect tribute from applicant and store it in the Moloch until the proposal is processed\r\n        require(IERC20(tributeToken).transferFrom(msg.sender, address(this), tributeOffered), \"tribute token transfer failed\");\r\n\r\n        bool[6] memory flags;\r\n\r\n        _submitProposal(applicant, sharesRequested, lootRequested, tributeOffered, tributeToken, paymentRequested, paymentToken, details, flags);\r\n        return proposalCount - 1; // return proposalId - contracts calling submit might want it\r\n    }\r\n\r\n    function submitWhitelistProposal(address tokenToWhitelist, string memory details) public nonReentrant returns (uint256 proposalId) {\r\n        require(tokenToWhitelist != address(0), \"must provide token address\");\r\n        require(!tokenWhitelist[tokenToWhitelist], \"cannot already have whitelisted the token\");\r\n\r\n        bool[6] memory flags;\r\n        flags[4] = true;\r\n\r\n        _submitProposal(address(0), 0, 0, 0, tokenToWhitelist, 0, address(0), details, flags);\r\n        return proposalCount - 1;\r\n    }\r\n\r\n    function submitGuildKickProposal(address memberToKick, string memory details) public nonReentrant returns (uint256 proposalId) {\r\n        Member memory member = members[memberToKick];\r\n\r\n        require(member.shares > 0 || member.loot > 0, \"member must have at least one share or one loot\");\r\n        require(memberToKick != summoner, \"the summoner may not be kicked\");\r\n        require(members[memberToKick].jailed == 0, \"member must not already be jailed\");\r\n\r\n        bool[6] memory flags;\r\n        flags[5] = true;\r\n\r\n        _submitProposal(memberToKick, 0, 0, 0, address(0), 0, address(0), details, flags);\r\n        return proposalCount - 1;\r\n    }\r\n\r\n    function _submitProposal(\r\n        address applicant,\r\n        uint256 sharesRequested,\r\n        uint256 lootRequested,\r\n        uint256 tributeOffered,\r\n        address tributeToken,\r\n        uint256 paymentRequested,\r\n        address paymentToken,\r\n        string memory details,\r\n        bool[6] memory flags\r\n    ) internal {\r\n        Proposal memory proposal = Proposal({\r\n            applicant : applicant,\r\n            proposer : msg.sender,\r\n            sponsor : address(0),\r\n            sharesRequested : sharesRequested,\r\n            lootRequested : lootRequested,\r\n            tributeOffered : tributeOffered,\r\n            tributeToken : IERC20(tributeToken),\r\n            paymentRequested : paymentRequested,\r\n            paymentToken : IERC20(paymentToken),\r\n            startingPeriod : 0,\r\n            yesVotes : 0,\r\n            noVotes : 0,\r\n            flags : flags,\r\n            details : details,\r\n            maxTotalSharesAndLootAtYesVote : 0\r\n        });\r\n\r\n        proposals[proposalCount] = proposal;\r\n        address memberAddress = memberAddressByDelegateKey[msg.sender];\r\n        emit SubmitProposal(proposalCount, msg.sender, memberAddress, applicant, sharesRequested, lootRequested, tributeOffered, tributeToken, paymentRequested, paymentToken);\r\n        proposalCount += 1;\r\n    }\r\n\r\n    function sponsorProposal(uint256 proposalId) public nonReentrant onlyDelegate {\r\n        // collect proposal deposit from sponsor and store it in the Moloch until the proposal is processed\r\n        require(depositToken.transferFrom(msg.sender, address(this), proposalDeposit), \"proposal deposit token transfer failed\");\r\n\r\n        Proposal storage proposal = proposals[proposalId];\r\n\r\n        require(proposal.proposer != address(0), 'proposal must have been proposed');\r\n        require(!proposal.flags[0], \"proposal has already been sponsored\");\r\n        require(!proposal.flags[3], \"proposal has been cancelled\");\r\n        require(members[proposal.applicant].jailed == 0, \"proposal applicant must not be jailed\");\r\n\r\n        // whitelist proposal\r\n        if (proposal.flags[4]) {\r\n            require(!tokenWhitelist[address(proposal.tributeToken)], \"cannot already have whitelisted the token\");\r\n            require(!proposedToWhitelist[address(proposal.tributeToken)], 'already proposed to whitelist');\r\n            proposedToWhitelist[address(proposal.tributeToken)] = true;\r\n\r\n        // guild kick proposal\r\n        } else if (proposal.flags[5]) {\r\n            require(!proposedToKick[proposal.applicant], 'already proposed to kick');\r\n            proposedToKick[proposal.applicant] = true;\r\n        }\r\n\r\n        // compute startingPeriod for proposal\r\n        uint256 startingPeriod = max(\r\n            getCurrentPeriod(),\r\n            proposalQueue.length == 0 ? 0 : proposals[proposalQueue[proposalQueue.length.sub(1)]].startingPeriod\r\n        ).add(1);\r\n\r\n        proposal.startingPeriod = startingPeriod;\r\n\r\n        address memberAddress = memberAddressByDelegateKey[msg.sender];\r\n        proposal.sponsor = memberAddress;\r\n\r\n        proposal.flags[0] = true;\r\n\r\n        // append proposal to the queue\r\n        proposalQueue.push(proposalId);\r\n        emit SponsorProposal(msg.sender, memberAddress, proposalId, proposalQueue.length.sub(1), startingPeriod);\r\n    }\r\n\r\n    function submitVote(uint256 proposalIndex, uint8 uintVote) public nonReentrant onlyDelegate {\r\n        address memberAddress = memberAddressByDelegateKey[msg.sender];\r\n        Member storage member = members[memberAddress];\r\n\r\n        require(proposalIndex < proposalQueue.length, \"proposal does not exist\");\r\n        Proposal storage proposal = proposals[proposalQueue[proposalIndex]];\r\n\r\n        require(uintVote < 3, \"must be less than 3\");\r\n        Vote vote = Vote(uintVote);\r\n\r\n        require(getCurrentPeriod() >= proposal.startingPeriod, \"voting period has not started\");\r\n        require(!hasVotingPeriodExpired(proposal.startingPeriod), \"proposal voting period has expired\");\r\n        require(proposal.votesByMember[memberAddress] == Vote.Null, \"member has already voted\");\r\n        require(vote == Vote.Yes || vote == Vote.No, \"vote must be either Yes or No\");\r\n\r\n        proposal.votesByMember[memberAddress] = vote;\r\n\r\n        if (vote == Vote.Yes) {\r\n            proposal.yesVotes = proposal.yesVotes.add(member.shares);\r\n\r\n            // set highest index (latest) yes vote - must be processed for member to ragequit\r\n            if (proposalIndex > member.highestIndexYesVote) {\r\n                member.highestIndexYesVote = proposalIndex;\r\n            }\r\n\r\n            // set maximum of total shares encountered at a yes vote - used to bound dilution for yes voters\r\n            if (totalShares.add(totalLoot) > proposal.maxTotalSharesAndLootAtYesVote) {\r\n                proposal.maxTotalSharesAndLootAtYesVote = totalShares.add(totalLoot);\r\n            }\r\n\r\n        } else if (vote == Vote.No) {\r\n            proposal.noVotes = proposal.noVotes.add(member.shares);\r\n        }\r\n\r\n        emit SubmitVote(proposalIndex, msg.sender, memberAddress, uintVote);\r\n    }\r\n\r\n    function processProposal(uint256 proposalIndex) public nonReentrant {\r\n        _validateProposalForProcessing(proposalIndex);\r\n\r\n        uint256 proposalId = proposalQueue[proposalIndex];\r\n        Proposal storage proposal = proposals[proposalId];\r\n\r\n        require(!proposal.flags[4] && !proposal.flags[5], \"must be a standard proposal\");\r\n\r\n        proposal.flags[1] = true; // processed\r\n\r\n        (bool didPass, bool emergencyProcessing) = _didPass(proposalIndex);\r\n\r\n        // Make the proposal fail if the new total number of shares and loot exceeds the limit\r\n        if (totalShares.add(totalLoot).add(proposal.sharesRequested).add(proposal.lootRequested) > MAX_NUMBER_OF_SHARES_AND_LOOT) {  // TODO test\r\n            didPass = false;\r\n        }\r\n\r\n        // Make the proposal fail if it is requesting more tokens as payment than the available guild bank balance\r\n        if (!emergencyProcessing && proposal.paymentToken != IERC20(0) && proposal.paymentRequested > proposal.paymentToken.balanceOf(address(guildBank))) {\r\n            didPass = false;\r\n        }\r\n\r\n        // PROPOSAL PASSED\r\n        if (didPass) {\r\n            proposal.flags[2] = true; // didPass\r\n\r\n            // if the applicant is already a member, add to their existing shares & loot\r\n            if (members[proposal.applicant].exists) {\r\n                members[proposal.applicant].shares = members[proposal.applicant].shares.add(proposal.sharesRequested);\r\n                members[proposal.applicant].loot = members[proposal.applicant].loot.add(proposal.lootRequested);\r\n\r\n            // the applicant is a new member, create a new record for them\r\n            } else {\r\n                // if the applicant address is already taken by a member's delegateKey, reset it to their member address\r\n                if (members[memberAddressByDelegateKey[proposal.applicant]].exists) {\r\n                    address memberToOverride = memberAddressByDelegateKey[proposal.applicant];\r\n                    memberAddressByDelegateKey[memberToOverride] = memberToOverride;\r\n                    members[memberToOverride].delegateKey = memberToOverride;\r\n                }\r\n\r\n                // use applicant address as delegateKey by default\r\n                members[proposal.applicant] = Member(proposal.applicant, proposal.sharesRequested, proposal.lootRequested, true, 0, 0);\r\n                memberAddressByDelegateKey[proposal.applicant] = proposal.applicant;\r\n            }\r\n\r\n            // mint new shares & loot\r\n            totalShares = totalShares.add(proposal.sharesRequested);\r\n            totalLoot = totalLoot.add(proposal.lootRequested);\r\n\r\n            require(\r\n                proposal.tributeToken.transfer(address(guildBank), proposal.tributeOffered),\r\n                \"token transfer to guild bank failed\"\r\n            );\r\n\r\n            require(\r\n                guildBank.withdrawToken(proposal.paymentToken, proposal.applicant, proposal.paymentRequested),\r\n                \"token payment to applicant failed\"\r\n            );\r\n\r\n\r\n        // PROPOSAL FAILED\r\n        } else {\r\n            // return all tokens to the applicant (skip if emergency processing)\r\n            if (!emergencyProcessing) {\r\n                require(\r\n                    proposal.tributeToken.transfer(proposal.proposer, proposal.tributeOffered),\r\n                    \"failing vote token transfer failed\"\r\n                );\r\n            }\r\n        }\r\n\r\n        _returnDeposit(proposal.sponsor);\r\n\r\n        emit ProcessProposal(proposalIndex, proposalId, didPass);\r\n    }\r\n\r\n    function processWhitelistProposal(uint256 proposalIndex) public nonReentrant {\r\n        _validateProposalForProcessing(proposalIndex);\r\n\r\n        uint256 proposalId = proposalQueue[proposalIndex];\r\n        Proposal storage proposal = proposals[proposalId];\r\n\r\n        require(proposal.flags[4], \"must be a whitelist proposal\");\r\n\r\n        proposal.flags[1] = true; // processed\r\n\r\n        (bool didPass,) = _didPass(proposalIndex);\r\n\r\n        if (didPass) {\r\n            proposal.flags[2] = true; // didPass\r\n\r\n            tokenWhitelist[address(proposal.tributeToken)] = true;\r\n            approvedTokens.push(proposal.tributeToken);\r\n        }\r\n\r\n        proposedToWhitelist[address(proposal.tributeToken)] = false;\r\n\r\n        _returnDeposit(proposal.sponsor);\r\n\r\n        emit ProcessProposal(proposalIndex, proposalId, didPass);\r\n    }\r\n\r\n    function processGuildKickProposal(uint256 proposalIndex) public nonReentrant {\r\n        _validateProposalForProcessing(proposalIndex);\r\n\r\n        uint256 proposalId = proposalQueue[proposalIndex];\r\n        Proposal storage proposal = proposals[proposalId];\r\n\r\n        require(proposal.flags[5], \"must be a guild kick proposal\");\r\n\r\n        proposal.flags[1] = true; // processed\r\n\r\n        (bool didPass,) = _didPass(proposalIndex);\r\n\r\n        if (didPass) {\r\n            proposal.flags[2] = true; // didPass\r\n            Member storage member = members[proposal.applicant];\r\n            member.jailed = proposalIndex;\r\n\r\n            // transfer shares to loot\r\n            member.loot = member.loot.add(member.shares);\r\n            totalShares = totalShares.sub(member.shares);\r\n            totalLoot = totalLoot.add(member.shares);\r\n            member.shares = 0; // revoke all shares\r\n        }\r\n\r\n        proposedToKick[proposal.applicant] = false;\r\n\r\n        _returnDeposit(proposal.sponsor);\r\n\r\n        emit ProcessProposal(proposalIndex, proposalId, didPass);\r\n    }\r\n\r\n    function _didPass(uint256 proposalIndex) internal returns (bool didPass, bool emergencyProcessing) {\r\n        Proposal memory proposal = proposals[proposalQueue[proposalIndex]];\r\n\r\n        didPass = proposal.yesVotes > proposal.noVotes;\r\n\r\n        // Make the proposal fail (and skip returning tribute) if emergencyProcessingWait is exceeded\r\n        emergencyProcessing = false;\r\n        if (getCurrentPeriod() >= proposal.startingPeriod.add(votingPeriodLength).add(gracePeriodLength).add(emergencyProcessingWait)) {\r\n            emergencyWarning = true;\r\n            lastEmergencyProposalIndex = proposalIndex;\r\n            emergencyProcessing = true;\r\n            didPass = false;\r\n        }\r\n\r\n        // Make the proposal fail if it was in the grace period during the last emergency processing\r\n        if (emergencyWarning) {\r\n            if (proposal.startingPeriod < proposals[proposalQueue[lastEmergencyProposalIndex]].startingPeriod.add(emergencyProcessingWait)) {\r\n                didPass = false;\r\n            }\r\n        }\r\n\r\n        // Make the proposal fail if the dilutionBound is exceeded\r\n        if ((totalShares.add(totalLoot)).mul(dilutionBound) < proposal.maxTotalSharesAndLootAtYesVote) {\r\n            didPass = false;\r\n        }\r\n\r\n        // Make the proposal fail if the applicant is jailed\r\n        // - for standard proposals, we don't want the applicant to get any shares/loot/payment\r\n        // - for guild kick proposals, we should never be able to propose to kick a jailed member (or have two kick proposals active), so it doesn't matter\r\n        if (members[proposal.applicant].jailed != 0) {\r\n            didPass = false;\r\n        }\r\n\r\n        return (didPass, emergencyProcessing);\r\n    }\r\n\r\n    function _validateProposalForProcessing(uint256 proposalIndex) internal view {\r\n        require(proposalIndex < proposalQueue.length, \"proposal does not exist\");\r\n        Proposal memory proposal = proposals[proposalQueue[proposalIndex]];\r\n\r\n        require(getCurrentPeriod() >= proposal.startingPeriod.add(votingPeriodLength).add(gracePeriodLength), \"proposal is not ready to be processed\");\r\n        require(proposal.flags[1] == false, \"proposal has already been processed\");\r\n        require(proposalIndex == 0 || proposals[proposalQueue[proposalIndex.sub(1)]].flags[1], \"previous proposal must be processed\");\r\n    }\r\n\r\n    function _returnDeposit(address sponsor) internal {\r\n        require(\r\n            depositToken.transfer(msg.sender, processingReward),\r\n            \"failed to send processing reward to msg.sender\"\r\n        );\r\n\r\n        require(\r\n            depositToken.transfer(sponsor, proposalDeposit.sub(processingReward)),\r\n            \"failed to return proposal deposit to sponsor\"\r\n        );\r\n    }\r\n\r\n    function ragequit(uint256 sharesToBurn, uint256 lootToBurn) public nonReentrant onlyMember {\r\n        _ragequit(msg.sender, sharesToBurn, lootToBurn, approvedTokens);\r\n    }\r\n\r\n    function safeRagequit(uint256 sharesToBurn, uint256 lootToBurn, IERC20[] memory tokenList) public nonReentrant onlyMember {\r\n        // all tokens in tokenList must be in the tokenWhitelist\r\n        for (uint256 i=0; i < tokenList.length; i++) {\r\n            require(tokenWhitelist[address(tokenList[i])], \"token must be whitelisted\");\r\n\r\n            if (i > 0) {\r\n                require(tokenList[i] > tokenList[i - 1], \"token list must be unique and in ascending order\");\r\n            }\r\n        }\r\n\r\n        _ragequit(msg.sender, sharesToBurn, lootToBurn, tokenList);\r\n    }\r\n\r\n    function _ragequit(address memberAddress, uint256 sharesToBurn, uint256 lootToBurn, IERC20[] memory tokenList) internal {\r\n        uint256 initialTotalSharesAndLoot = totalShares.add(totalLoot);\r\n\r\n        Member storage member = members[memberAddress];\r\n\r\n        require(member.shares >= sharesToBurn, \"insufficient shares\");\r\n        require(member.loot >= lootToBurn, \"insufficient loot\");\r\n\r\n        require(canRagequit(member.highestIndexYesVote), \"cannot ragequit until highest index proposal member voted YES on is processed\");\r\n\r\n        uint256 sharesAndLootToBurn = sharesToBurn.add(lootToBurn);\r\n\r\n        // burn shares and loot\r\n        member.shares = member.shares.sub(sharesToBurn);\r\n        member.loot = member.loot.sub(lootToBurn);\r\n        totalShares = totalShares.sub(sharesToBurn);\r\n        totalLoot = totalLoot.sub(lootToBurn);\r\n\r\n        // instruct guildBank to transfer fair share of tokens to the ragequitter\r\n        require(\r\n            guildBank.withdraw(memberAddress, sharesAndLootToBurn, initialTotalSharesAndLoot, tokenList),\r\n            \"withdrawal of tokens from guildBank failed\"\r\n        );\r\n\r\n        emit Ragequit(msg.sender, sharesToBurn, lootToBurn);\r\n    }\r\n\r\n    function ragekick(address memberToKick) public nonReentrant {\r\n        Member storage member = members[memberToKick];\r\n\r\n        require(member.jailed != 0, \"member must be in jail\");\r\n        require(member.loot > 0, \"member must have some loot\"); // note - should be impossible for jailed member to have shares\r\n        require(canRagequit(member.highestIndexYesVote), \"cannot ragequit until highest index proposal member voted YES on is processed\");\r\n        require(!canBailout(memberToKick), \"bailoutWait has passed, member must be bailed out\");\r\n\r\n        _ragequit(memberToKick, 0, member.loot, approvedTokens);\r\n    }\r\n\r\n    function bailout(address memberToBail) public nonReentrant {\r\n        Member storage member = members[memberToBail];\r\n\r\n        require(member.jailed != 0, \"member must be in jail\");\r\n        require(member.loot > 0, \"member must have some loot\"); // note - should be impossible for jailed member to have shares\r\n        require(canBailout(memberToBail), \"cannot bailout yet\");\r\n\r\n        members[summoner].loot = members[summoner].loot.add(member.loot);\r\n        member.loot = 0;\r\n    }\r\n\r\n    function cancelProposal(uint256 proposalId) public nonReentrant {\r\n        Proposal storage proposal = proposals[proposalId];\r\n        require(!proposal.flags[0], \"proposal has already been sponsored\");\r\n        require(!proposal.flags[3], \"proposal has already been cancelled\");\r\n        require(msg.sender == proposal.proposer, \"solely the proposer can cancel\");\r\n\r\n        proposal.flags[3] = true; // cancelled\r\n\r\n        require(\r\n            proposal.tributeToken.transfer(proposal.proposer, proposal.tributeOffered),\r\n            \"failed to return tribute to proposer\"\r\n        );\r\n\r\n        emit CancelProposal(proposalId, msg.sender);\r\n    }\r\n\r\n    function updateDelegateKey(address newDelegateKey) public nonReentrant onlyShareholder {\r\n        require(newDelegateKey != address(0), \"newDelegateKey cannot be 0\");\r\n\r\n        // skip checks if member is setting the delegate key to their member address\r\n        if (newDelegateKey != msg.sender) {\r\n            require(!members[newDelegateKey].exists, \"cannot overwrite existing members\");\r\n            require(!members[memberAddressByDelegateKey[newDelegateKey]].exists, \"cannot overwrite existing delegate keys\");\r\n        }\r\n\r\n        Member storage member = members[msg.sender];\r\n        memberAddressByDelegateKey[member.delegateKey] = address(0);\r\n        memberAddressByDelegateKey[newDelegateKey] = msg.sender;\r\n        member.delegateKey = newDelegateKey;\r\n\r\n        emit UpdateDelegateKey(msg.sender, newDelegateKey);\r\n    }\r\n\r\n    /***************\r\n    GETTER FUNCTIONS\r\n    ***************/\r\n    function max(uint256 x, uint256 y) internal pure returns (uint256) {\r\n        return x >= y ? x : y;\r\n    }\r\n\r\n    function getCurrentPeriod() public view returns (uint256) {\r\n        return now.sub(summoningTime).div(periodDuration);\r\n    }\r\n\r\n    function getProposalQueueLength() public view returns (uint256) {\r\n        return proposalQueue.length;\r\n    }\r\n\r\n    function getProposalFlags(uint256 proposalId) public view returns (bool[6] memory) {\r\n        return proposals[proposalId].flags;\r\n    }\r\n\r\n    // can only ragequit if the latest proposal you voted YES on has been processed\r\n    function canRagequit(uint256 highestIndexYesVote) public view returns (bool) {\r\n        require(highestIndexYesVote < proposalQueue.length, \"proposal does not exist\");\r\n        return proposals[proposalQueue[highestIndexYesVote]].flags[1];\r\n    }\r\n\r\n    function canBailout(address memberToBail) public view returns (bool) {\r\n        Member memory member = members[memberToBail];\r\n\r\n        // get the starting period of the proposal to start the bailout wait from\r\n        // - either the guild kick proposal or the member's highest index yes vote\r\n        uint256 bailoutWaitStartingPeriod = member.highestIndexYesVote > member.jailed\r\n            ? proposals[proposalQueue[member.highestIndexYesVote]].startingPeriod\r\n            : proposals[proposalQueue[member.jailed]].startingPeriod;\r\n\r\n        // bailout wait starts after proposal grace period ends\r\n        return getCurrentPeriod() >= bailoutWaitStartingPeriod.add(votingPeriodLength).add(gracePeriodLength).add(bailoutWait);\r\n    }\r\n\r\n    function hasVotingPeriodExpired(uint256 startingPeriod) public view returns (bool) {\r\n        return getCurrentPeriod() >= startingPeriod.add(votingPeriodLength);\r\n    }\r\n\r\n    function getMemberProposalVote(address memberAddress, uint256 proposalIndex) public view returns (Vote) {\r\n        require(members[memberAddress].exists, \"member does not exist\");\r\n        require(proposalIndex < proposalQueue.length, \"proposal does not exist\");\r\n        return proposals[proposalQueue[proposalIndex]].votesByMember[memberAddress];\r\n    }\r\n}\r\n",
  "sourcePath": "D:/_______work/FD_Contract_ETH/fd/contracts/molochV2/Moloch2.sol",
  "compiler": {
    "name": "solc",
    "version": "0.5.8+commit.23d335f2.Emscripten.clang"
  },
  "schemaVersion": "3.0.11",
  "updatedAt": "2019-12-30T07:25:25.102Z",
  "devdoc": {
    "methods": {}
  },
  "userdoc": {
    "methods": {
      "submitProposal(address,uint256,uint256,uint256,address,uint256,address,string)": {
        "notice": "***************\r PROPOSAL FUNCTIONS\r****************"
      }
    }
  }
}